:020000040800F2
:100000000080012089160008D9160008D9160008BA
:10001000D9160008D9160008D916000800000000FB
:10002000000000000000000000000000D9160008D9
:10003000D916000800000000D9160008A90D000814
:1000400000000000D9160008D9160008D9160008CB
:10005000D9160008D9160008ED080008050900089F
:10006000D9160008D9160008D916000800000000AB
:100070000000000000000000000000000000000080
:100080000000000000000000D91600080000000079
:10009000000000000000000000000000D916000869
:1000A000D9160008D9160008D9160008D916000874
:1000B000D9160008D9160008D9160008D916000864
:1000C000D9160008D9160008D9160008410D0008F5
:1000D000D9160008D9160008D9160008000000003B
:1000E000D9160008D9160008D9160008000000002B
:1000F0000000000000000000000000000000000000
:1001000000000000D9160008D9160008D91600080A
:1001100000000000000000000000000000000000DF
:1001200000000000000000000000000000000000CF
:1001300000000000000000000000000000000000BF
:10014000000000000000000000000000D9160008B8
:10015000000000000000000000000000D9160008A8
:10016000D9160008D91600080000000000000000A1
:10017000000000000000000000000000000000007F
:1001800000000000D9160008000000000000000078
:04019000D916000874
:1001940010B5054C237833B9044B13B10448AFF3BD
:1001A40000800123237010BD08000020000000001F
:1001B4002417000808B5034B1BB103490348AFF3E8
:1001C400008008BD000000000C0000202417000877
:1001D40082B00022ADF8042040F66B41ADF8062051
:1001E400ADF80420BDF804309BB2834201D302B0C1
:1001F4007047ADF80620BDF806309BB28B4206D995
:10020400BDF8043001339BB2ADF80430EAE7BDF821
:10021400063001339BB2ADF80630ECE708B5042193
:10022400002000F0FFFC0421002000F0FBFC012270
:100234000021042000F070FB01221146042000F08C
:100244006BFB01220221042000F066FB0122032142
:10025400042000F061FB00221146042000F088FB1A
:1002640000220121042000F083FB0022022104204B
:1002740000F07EFB00220321042000F079FB002221
:100284001146042000F098FB00220121042000F014
:1002940093FB00220221042000F08EFB00220321A4
:1002A400042000F089FB01220021042000F006FC58
:1002B40001221146042000F001FC01220221042045
:1002C40000F0FCFB01220321042000F0F7FB0421D1
:1002D4000846002200F020FB00220521042000F043
:1002E4001BFB00220621042000F016FB002207213C
:1002F400042000F011FB04210846012200F088FBD1
:1003040001220521042000F083FB012206210420A0
:1003140000F07EFBBDE8084001220721042000F024
:1003240077BB00002DE9FF47204B6A4603F1100616
:10033400154618685968144603C40833B342224664
:10034400F7D10024A1465FFA84FA00225146042022
:1003540000F0B4FB2F4604265FFA86F841460420D9
:1003640000F082FB78B93220FFF732FF41460420C7
:1003740000F07AFB38B94146042000F075FB0028F0
:10038400F9D097F800900136082E07F10107E3D160
:10039400012251460420013400F090FB042C05F1A5
:1003A4000405D0D1484604B0BDE8F0873C170008E6
:1003B40010B5002204460A21032000F07FFB00222E
:1003C4000921032000F07AFB04F00102002103203C
:1003D40000F074FBC4F340020121032000F06EFB23
:1003E400C4F380020221032000F068FB0321C4F35C
:1003F400C002084600F062FBC4F30012042103208B
:1004040000F05CFBC4F340120521032000F056FB0E
:10041400C4F380120621032000F050FBE2090721F7
:10042400032000F04BFB01220821032000F046FBCF
:100434000520FFF7CDFE03200022082100F03EFB3B
:10044400BDE810400220FFF7C3BE08B50321002019
:1004540000F0E8FB01220A21032000F05DFA0122EA
:100464000921032000F058FA01220821032000F09A
:1004740053FA00220A21032000F09EFA00220921E7
:10048400032000F099FA00220821032000F094FAD6
:1004940000220A21032000F06BFA00220921032024
:1004A40000F066FA00220821032000F061FA01221C
:1004B4000021032000F030FA01221146032000F04D
:1004C4002BFA01220221032000F026FA0321084618
:1004D400012200F021FA00221146032000F06CFAF8
:1004E40000220121032000F067FA002202210320E8
:1004F40000F062FA03210846002200F05DFA0022AF
:100504001146032000F034FA00220121032000F0F8
:100514002FFA00220221032000F02AFA03210846C0
:10052400002200F025FA01220421032000F0F4F94E
:1005340001220521032000F0EFF901220621032006
:1005440000F0EAF901220721032000F0E5F9002276
:100554000421032000F030FA00220521032000F0DA
:100564002BFA00220621032000F026FA002207219C
:10057400032000F021FA00220421032000F0F8F9FE
:1005840000220521032000F0F3F9002206210320B4
:1005940000F0EEF900220721032000F0E9F93220EF
:1005A400FFF716FE3820FFF703FF0520FFF710FEC4
:1005B4000C20FFF7FDFE0120FFF70AFE0120FFF7E4
:1005C400F7FE0120FFF704FE0220FFF7F1FE0120F1
:1005D400FFF7FEFD0620FFF7EBFEBDE80840012013
:1005E400FFF7F6BD0120FFF7E3BE000082B0064B23
:1005F400019300F108030DEB030010F8040C084408
:10060400C0B202B0FFF7D4BE80C090D010B50122B2
:1006140004460A21032000F051FA00220921032094
:1006240000F04CFA04F001020021032000F046FA25
:10063400C4F340020121032000F040FAC4F3800215
:100644000221032000F03AFA0321C4F3C002084651
:1006540000F034FAC4F300120421032000F02EFA4F
:10066400C4F340120521032000F028FAC4F38012D9
:100674000621032000F022FAE2090721032000F0FA
:100684001DFA01220821032000F018FA0520FFF7C3
:100694009FFD03200022082100F010FABDE810405D
:1006A4000220FFF795BD38B505460024E3B20134B6
:1006B400E85C00B938BDFFF7A9FFF7E710B50022E1
:1006C40004460121104600F0F9F92046BDE8104027
:1006D40000F026BB10B5012204461146002000F0AC
:1006E400EDF92046BDE8104000F01ABB012208B520
:1006F4001146002000F010F900221046012100F0FC
:1007040037F900221046012100F056F90122022196
:10071400002000F001F900221046022100F028F91F
:1007240000221046022100F047F902220521002090
:1007340000F0F2F805221146002000F003FA00222E
:100744001046052100F014F901220521002000F0D3
:1007540033F902220721002000F0DEF805220721E8
:10076400002000F0EFF900221046072100F000F904
:1007740001220721002000F01FF90122022100209C
:1007840000F09CF9642000F0F5FA002210460221E2
:1007940000F094F9012000F0EDFA0122022100207A
:1007A40000F08CF9642000F0E5FA002210460221E2
:1007B40000F084F9642000F0DDFA01220221002017
:1007C40000F07CF9094800F0D5FA1120FFF776FF14
:1007D400074800F0CFFA3A20FFF770FF0520FFF733
:1007E40079FFBDE808402920FFF768BFC0D40100A5
:1007F400F0490200F8B507462A200D4616461C4665
:10080400FFF75CFF380AFFF765FFF8B2FFF762FFF6
:10081400300AFFF75FFFF0B2FFF75CFF2B20FFF712
:100824004DFF280AFFF756FFE8B2FFF753FF200AEF
:10083400FFF750FFE0B2BDE8F840FFF74BBF70B5DB
:100844000E469C1A11463246351AFFF7D3FF2C2068
:100854006C43FFF733FF049D0026023D0534B44288
:1008640000D870BD35F8020F000AFFF733FF28786F
:10087400FFF730FF0136F2E7002170B54FF4A073A3
:100884000446F0220846FFF7B5FF2C20FFF716FFB9
:10089400054D260AE4B23046FFF71CFF2046FFF759
:1008A40019FF013DF7D170BDB0300100F8B50F4616
:1008B4009C1A11463A463D1ABDF81860FFF79AFF94
:1008C4002C20FFF7FBFE6C43370A00250534F6B2F3
:1008D400AC4200D8F8BD3846FFF7FCFE3046FFF7BF
:1008E400F9FE0135F4E70000034A536943F00103BC
:1008F4005361024B1B681847003C01402400002050
:10090400034A536943F001035361024B1B681847C0
:10091400003C01402800002010B505280AD8DFE873
:1009240000F0030A0C0E10120B4804684B009A40A6
:100934002243026010BD0948F7E70948F5E7094872
:10094400F3E70948F1E709484B00046802FA03F1A8
:1009540021430160EEE700BF0000024000040240B2
:1009640000080240000C024000100240001C02403B
:10097400052809D8DFE800F003090B0D0F11084B17
:1009840058688A4002435A607047064BF8E7064BA2
:10099400F6E7064BF4E7064BF2E7064BF0E700BF39
:1009A400000002400004024000080240000C024023
:1009B40000100240001C024010B505280AD8DFE8E8
:1009C40000F0030A0C0E10120B4884684B009A4086
:1009D4002243826010BD0948F7E70948F5E7094852
:1009E400F3E70948F1E709484B00846802FA03F188
:1009F40021438160EEE700BF000002400004024092
:100A040000080240000C024000100240001C02409A
:100A140010B505280AD8DFE800F0030A0C0E1012FE
:100A24000B48C4684B009A402243C26010BD094879
:100A3400F7E70948F5E70948F3E70948F1E7094802
:100A44004B00C46802FA03F12143C160EEE700BF22
:100A5400000002400004024000080240000C024072
:100A640000100240001C0240052819D8DFE800F0FD
:100A7400030A0C0E10120B4B1B6923FA01F101F04F
:100A840001007047084BF7E7084BF5E7084BF3E71D
:100A9400084BF1E7084B1869C84000F001007047A3
:100AA4000020704700000240000402400008024099
:100AB400000C024000100240001C024012B1012A46
:100AC4001AD07047052825D8DFE800F0030C0E1073
:100AD400121416484369012202FA01F123EA0101C2
:100AE400416170471248F5E71248F3E71248F1E70D
:100AF4001248EFE71248EDE705280BD8DFE800F0CD
:100B0400030B0D0F1113094A5069012303FA01F174
:100B1400014351617047064AF6E7064AF4E7064A7C
:100B2400F2E7064AF0E7064AEEE700BF000002409B
:100B34000004024000080240000C02400010024081
:100B4400001C0240072910B523D805280BD8DFE87C
:100B540000F0030B0D15171E1E4B186A890002FACC
:100B640001F10143196210BD1B4BF6E71B48046AEF
:100B74008B0002FA03F121430162F4E71848F6E717
:100B84001848046A8B009A4022430262EBE7164835
:100B9400F7E701F007010528E5D8DFE800F0030ACC
:100BA4000C0E10120B48446A8B009A402243426296
:100BB400D9E70948F7E70948F5E70948F3E7094899
:100BC400F1E709488B00446A02FA03F121434162C8
:100BD400C9E700BF000002400004024000080240D0
:100BE400000C024000100240001C02400C4B1A682A
:100BF40022F001021A601A6822F480321A601A681C
:100C040022F080721A609A6822F001029A609A684F
:100C140022F002029A601A6842F001021A607047D8
:100C240000380240032822D8DFE800F0020A121A32
:100C34000F4A0123106B03FA01F10143116370475A
:100C44000B4A0123506B03FA01F1014351637047CE
:100C5400074A0123106C03FA01F101431164704740
:100C6400034A0123506C03FA01F1014351647047B4
:100C74000038024082B00138019B43F00103019324
:100C8400019B43F002030193019B43F0040301938E
:100C9400019B43F008030193019B6FF30413019339
:100CA400019B6FF345130193019B6FF3C7130193EA
:100CB400019B43F480730193019B43F400730193FC
:100CC400019B6FF3CB230193032806D8DFE800F0E0
:100CD40002070A0D019A064B1A6002B07047019A86
:100CE400044BF9E7019A044BF6E7019A034BF3E747
:100CF4000030014000380040003C00400034014016
:100D04000138032808D8DFE800F002020202034A8F
:100D1400136843F040031360704700BF0030014084
:100D2400054B9A681106FCD4D8609A681206FCD464
:100D3400D86880B2704700BF00300140014B1B6887
:100D4400184700BF2C0000204FF0E02300229A61D6
:100D540010B1012807D0704704221A61044B4FF4E4
:100D64007A521A6070471A61014B4FF4FA62F8E73D
:100D7400340000200A4B1B6858434FF0E023002244
:100D8400013858619A611A6942F001021A611A69BC
:100D9400D203FCD51A6922F001021A61704700BF20
:100DA4003400002010B5194B1A78022A1AD01B7887
:100DB40003F0FF015BB94FF0E0231A6922F001024E
:100DC4001A61596199611A6922F002021A61104B81
:100DD4001B6898474FF0E0230E4A1B69C3F3004396
:100DE400137010BD0C4C0D4A2368126801339342F2
:100DF4002360ECD00A4909680A449342EAD1044BBF
:100E04001B68984700232360E4E700BF38000020F4
:100E14004400002030000020480000204000002052
:100E24003C00002038B5451E4C1E15F9013F23B97E
:100E340094F901300BB9012038BD0520FFF7C8F93A
:100E440095F9002014F9013F9A42EED00020F3E70F
:100E540008B5012210460421FFF730FE6420FFF795
:100E6400B7F9BDE80840002204210120FFF726BE9F
:100E740083B5FFF7B7FB02210120FFF7B7FBC64894
:100E8400C64EC74FC74DFFF70EFC4FF4FA70FFF77D
:100E94009FF9FFF7A7FB4FF6FF70FFF7EDFC4FF646
:100EA400FF744FF4A1734FF48872D521AD200096DE
:100EB400FFF7C5FC009440F26B134FF48872AD2128
:100EC400AC20FFF7F3FC4FF4A1734FF48872A32115
:100ED4007B200096FFF7B3FC009440F26B134FF4B1
:100EE40088727B217A20FFF7E1FC4FF4A1734FF461
:100EF4008872712149200096FFF7A1FC009440F20A
:100F04006B134FF4887249214820FFF7CFFC4FF44C
:100F1400A1734FF488723F2117200096FFF78FFCCE
:100F2400009440F26B134FF4887217211620FFF7D8
:100F3400BDFCD2238222A02150200097FFF77FFC22
:100F4400009440F21B13822250214F20FFF7AEFC85
:100F54009448954CFFF7A7FB4FF0500884F80080A5
:100F6400FFF7E0F950282070F8D0A0F13703022BE6
:100F74003AD92F2840F0858000210846FFF736FB38
:100F84002846FFF790FB0F210020FFF72FFB207866
:100F9400FFF73CFB2020FFF739FB00210120FFF77E
:100FA40025FB8248FFF77FFB00210220FFF71EFB91
:100FB4007F48FFF778FB012210460321FFF77EFDEF
:100FC4007C4B00934FF488724FF4A1733F21172098
:100FD400FFF735FC4FF6FF7300934FF4887240F22D
:100FE4006B131721162078E13838012803D8DFE87D
:100FF40010F0F1003D01DFF8D48198F800300021B1
:1010040083F00103084688F80030FFF7EFFA28461A
:10101400FFF749FB0F210020FFF7E8FA2078FFF7DC
:10102400F5FA2020FFF7F2FA00210120FFF7DEFA9B
:1010340098F80080B8F1000F40F09E805E48FFF7FA
:1010440032FB424607210120FFF738FD00964FF49A
:10105400A1734FF48872D521AD20FFF7F0FB4FF652
:10106400FF7300934FF4887240F26B13AD21AC20F0
:10107400FFF71CFC02200021FFF7B8FA4C48FFF7E9
:1010840012FB2378A3F13402022A2ED80021352B37
:10109400084600F02581362B00F04681FFF7A6FABA
:1010A4002846FFF700FB0F210020FFF79FFA207866
:1010B400FFF7ACFA2020FFF7A9FA00210120FFF77F
:1010C40095FA3E48FFF7EFFA00210220FFF78EFA67
:1010D4003748FFF7E8FA002205210120FFF7EEFC6C
:1010E400012206210120FFF7E9FC2378A3F1310254
:1010F400012A3FF631AF322B00F04081DFF8D08077
:1011040098F80030002183F00103084688F8003085
:10111400FFF76CFA2846FFF7C6FA0F210020FFF705
:1011240065FA2078FFF772FA2020FFF76FFA0021A2
:101134000220FFF75BFA1E48FFF7B5FA00210120F1
:10114400FFF754FA98F80030002B40F00E811C4849
:10115400FFF7A9FA0097D2238222A0215020FFF79B
:101164006EFB4FF6FF730093822240F21B13502153
:101174004F20FFF79BFBEFE6B8F1010F7FF47AAF46
:101184001048FFF790FA424607214046FFF796FCC5
:101194000D4B00935BE700BF4C170008F0000208FA
:1011A400BC1800085917000855000020E61700086D
:1011B40092170008F410020868170008F5170008D1
:1011C4003B1800087D170008E4D001084D000020FA
:1011D4004C000020DFF8148298F80030002183F0DE
:1011E4000103084688F80030FFF700FA2846FFF7A5
:1011F4005AFA0F210020FFF7F9F92078FFF706FAD1
:101204002020FFF703FA00210120FFF7EFF998F8F7
:101214000080B8F1000F1AD16848FFF744FA0121A1
:1012240042460846FFF74AFC00964FF4A1734FF478
:101234008872A3217B20FFF702FB4FF6FF73009314
:101244004FF4887240F26B137B217A2010E7B8F1D7
:10125400010F7FF40FAF5A48FFF725FA4246414683
:101264004046FFF72BFC574B0093DEE7002108466E
:10127400FFF7BCF92846FFF716FA0F210020FFF705
:10128400B5F92078FFF7C2F92020FFF7BFF9002154
:101294000120FFF7ABF94C48FFF705FA00210220C3
:1012A400FFF7A4F94948FFF7FEF90122104602218D
:1012B400FFF704FC464B00934FF488724FF4A1737C
:1012C40071214920FFF7BBFA4FF6FF7300934FF4E7
:1012D400887240F26B1349214820FFF7E7FAD0E601
:1012E400FFF784F92846FFF7DEF90F210020FFF706
:1012F4007DF92078FFF78AF92020FFF787F900218C
:101304000120FFF773F93348FFF7CDF900210220DC
:10131400FFF76CF92D48FFF7C6F9002205210120DB
:10132400FFF7CCFB0022DCE6FFF760F92846FFF765
:10133400BAF90F210020FFF759F92078FFF766F971
:101344002020FFF763F900210120FFF74FF922481D
:10135400FFF7A9F900210220FFF748F91B48FFF71E
:10136400A2F9012205211046DAE7012B7FF4F4AD3E
:101374001A48FFF798F91A4B0093ECE60021084647
:10138400FFF734F92846FFF78EF90F210020FFF705
:101394002DF92078FFF73AF92020FFF737F90021DB
:1013A4000120FFF723F90F48FFF77DF90021022000
:1013B400FFF71CF90C48FFF776F9CDE5AD170008E7
:1013C400C2170008E8E00108D717000892170008C0
:1013D400ECF001080C180008231800084D18000848
:1013E4005C4B00085E180008721800084E000020CC
:1013F400F7B5404C502702202770FEF7E9FEFEF7B0
:1014040091FFB842207010D0A0F13003092B0ED800
:10141400FFF71EFD2078FFF7F9F8374A374992F9AC
:1014240000302078C8540133137003B0F0BD3D2858
:10143400FBD1FFF7D7F83248304D324EFFF733F97E
:101444004FF4FA70FEF7C4FE01210846FFF7CEF808
:10145400FFF7FEFC2C492846FFF7E4FC012816D1CF
:1014640000244FF6FF703470FFF706FA274B009301
:101474008222B423F0212046FFF7E1F92448FFF744
:1014840012F94FF4FA70FEF7A3FEFFF7F1FC33787C
:101494000321013301203370FFF7A8F81D48FFF73B
:1014A40002F900210120FFF7A1F84FF4FA70FEF7CA
:1014B4008FFE1948FFF7F7F805210220FFF796F889
:1014C4000D4B00241C7033782C70022B6C70AC70A4
:1014D400EC702C71A9D14FF6FF70FFF7CDF90F4BCB
:1014E40000933A464FF48273F0212046FFF7A7F9A0
:1014F4009BE700BF55000020560000204F0000204D
:101504007F1800085400002000000020787B0408A5
:1015140082180008901800089C180008FC7D000838
:1015240007B5FFF763FB0120FFF70EFC0021084617
:10153400FFF778FB01210020FFF774FB0221002054
:10154400FFF770FB03210020FFF76CFB0C21032045
:10155400FFF768FB0E210320FFF764FBFEF75EFE36
:10156400FEF773FF00210846FFF740F80120FFF75C
:1015740081FB0120FFF7C4FBFFF7B8F800223F4BC3
:10158400009310464FF4A073F021FFF758F901229D
:1015940010460721FFF7C0F9012211461046FFF754
:1015A400BBF9012210460221FFF7B6F901221046C9
:1015B4000321FFF7B1F9002207210120FFF7FCF90D
:1015C400012108460022FFF7F7F900220221012039
:1015D400FFF7F2F9002203210120FFF7EDF90022C1
:1015E40007210120FFF7C4F9012108460022FFF773
:1015F400BFF9002202210120FFF7BAF900220321DA
:101604000120FFF7B5F9012210460421FFF784F900
:10161400002204210120FFF7CFF900220421012038
:10162400FFF7A6F9012210460521FFF775F90122FB
:1016340010460621FFF770F9002205210120FFF76B
:10164400BBF9002206210120FFF7B6F9002205218B
:101654000120FFF78DF9002206210120FFF788F908
:1016640001210020FEF7C2FF0548FFF71CF8052101
:101674000120FEF7BBFFFFF7BBFEFCE7F8200208E2
:10168400AC1800080D488546AFF300800C480D499E
:101694000D4A002302E0D458C4500433C4188C42C9
:1016A400F9D30A4A0A4C002301E013600432A2422F
:1016B400FBD300F011F8FFF733FFFEE700800120B1
:1016C4000000002008000020A4D90408080000201D
:1016D40058000020FEE7000070B50D4D0D4C641B52
:1016E400A4100026A64209D10B4D0C4C00F018F8AA
:1016F400641BA4100026A64205D170BD55F8043B16
:1017040098470136EEE755F8043B98470136F2E76F
:101714009CD904089CD904089CD90408A0D90408BD
:10172400F8B500BFF8BC08BC9E467047F8B500BFCA
:08173400F8BC08BC9E4670479A
:10173C003738392F343536783132332D43303D2B11
:10174C0057656C636F6D6520486F6D6500507265F1
:10175C0073736564204B65792D3E20004C45442005
:10176C0030206973204F4646202020202020202046
:10177C00004C45442030206973204F4E20202020FF
:10178C00202020202000202020202020202020206D
:10179C00202020202020202020202020202020203D
:1017AC00004C45442031206973204F4646202020B0
:1017BC002020202020004C45442031206973204FEC
:1017CC004E202020202020202020004C4544332077
:1017DC00202020202020202020004C454434202094
:1017EC002020202020202020004D6F746F72206C50
:1017FC00656674203C2D20202020202020202000F5
:10180C004D6F746F722073746F7020202020202015
:10181C00202020202020004D6F746F722072696789
:10182C006874202D3E2020202020202020200041E4
:10183C0043206973204F4646202020202020202062
:10184C00004143206973204F4E202020202020206F
:10185C00200054656D702E20436865636B2020203A
:10186C0020202020200054656D70203D2020323730
:10187C002E38004F4B0041636365707465642050D3
:10188C006173730044656E69656420506173730005
:10189C0052656E7465722050617373776F72640059
:1018AC00456E7465722050617373776F72643A0081
:1018BC000000FFFFFFFFFFFFFFFFFFFFFFFFFFFF2A
:1018CC00FFFFFFFFFFFFFFFFFFFFFFFFFFFFFFFF1C
:1018DC00FFFFFFFFFFFFFFFFFFFFFFFFFFFFDFFF2C
:1018EC00FFFFFFFFFFFFDFFFDFFFFFFFFFFFFFFF3C
:1018FC00FFFF3CE7B6B53084CB5AE739494A694A11
:10190C0086316529694A494AE739AA52EF7B96B56F
:10191C001CE7FFFFFFFFFFFFFFFFDFFFDFFFFFFF06
:10192C00FFFFDFFFFFFFFFFFFFFFFFFFFFFFFFFFDB
:10193C00FFFFFFFFFFFFFFFFFFFFFFFFFFFFFFFFAB
:10194C00FFFFFFFFFFFFFFFFFFFFFFFFFFFFFFFF9B
:10195C00FFFF0000FFFFFFFFFFFFFFFFFFFFFFFF89
:10196C00FFFFFFFFFFFFFFFFFFFFFFFFFFFFFFFF7B
:10197C00FFFFFFFFFFFFFFFFFFFFFFFFFFFFFFFF6B
:10198C00FFFFFFFFFFFFFFFFFFFFFFFF7DEF38C6ED
:10199C0092948E73CB5A8A528A52694A08422842D0
:1019AC00084265298631284228420842494A494A58
:1019BC008A52EB5A8E73929418C67DEFFFFFFFFF8D
:1019CC00FFFFFFFFFFFFFFFFFFFFFFFFFFFFFFFF1B
:1019DC00FFFFDFFFFFFFFFFFFFFFFFFFFFFFFFFF2B
:1019EC00FFFFFFFFFFFFFFFFFFFFFFFFFFFFFFFFFB
:1019FC00FFFFFFFF0000FFFFFFFFFFFFFFFFFFFFE9
:101A0C00FFFFFFFFFFFFFFFFFFFFFFFFFFFFFFFFDA
:101A1C00FFFFFFFFFFFFFFFFFFFFFFFFFFFFFFFFCA
:101A2C00FFFFBEF7FFFFDFFF7DEF59CE518CAA52AF
:101A3C000842E739C739A631652945292421C3183D
:101A4C00C318E318E318C318E318C3180421452975
:101A5C00452965298631C739E73908428A523084CD
:101A6C0018C67DEFFFFFDFFFFFFFFFFFFFFFFFFF4C
:101A7C00FFFFFFFFFFFFFFFFFFFFFFFFFFFFFFFF6A
:101A8C00FFFFFFFFFFFFFFFFFFFFFFFFFFFFFFFF5A
:101A9C00FFFFFFFFFFFF0000FFFFFFFFFFFFFFFF48
:101AAC00FFFFFFFFFFFFFFFFFFFFFFFFFFFFFFFF3A
:101ABC00FFFFFFFFFFFFFFFFFFFFDFFFDFFFDFFF8A
:101ACC00BEF7FFFFFFFF5DEF34A54D6BE739C7395C
:101ADC00C73986312421E318C318C318C318E31877
:101AEC000421E318C318E318E318E318C318E31828
:101AFC00C318A210C318E318E31804216529C739C9
:101B0C00084228422C63F39C5DEFFFFFFFFFBEF7FA
:101B1C00FFFFFFFFFFFFFFFFFFFFFFFFFFFFFFFFC9
:101B2C00FFFFFFFFFFFFFFFFFFFFFFFFFFFFFFFFB9
:101B3C00FFFFFFFFFFFFFFFF0000FFFFFFFFFFFFA7
:101B4C00FFFFFFFFFFFFFFFFFFFFFFFFFFFFFFFF99
:101B5C00FFFFFFFFFFFFFFFFFFFFDFFFFFFFFFFFA9
:101B6C00FFFFFFFF1CE7D39CEB5A0842C7398631B5
:101B7C002421C318A210E318E318E3180421E31876
:101B8C00C318E3180421E318E318C318E31804215D
:101B9C0024210421E3180421E318E3180421C318B9
:101BAC00A21004216529C739494ACB5A92941CE7E3
:101BBC00FFFFFFFFDFFFFFFFFFFFFFFFFFFFFFFF49
:101BCC00FFFFFFFFFFFFFFFFFFFFFFFFFFFFFFFF19
:101BDC00FFFFFFFFFFFFFFFFFFFF0000FFFFFFFF07
:101BEC00FFFFFFFFFFFFFFFFFFFFFFFFFFFFFFFFF9
:101BFC00FFFFFFFFFFFFFFFFFFFFFFFFFFFFBEF732
:101C0C00FFFFBEF755ADEB5A0842C7396529E318FB
:101C1C00A210C318E318E318E318E318C31804213F
:101C2C000421E31804210421E318C318E318042148
:101C3C00E318E318E318E3182421E318E318E31876
:101C4C00C318E3180421E318E3182421E7390842E8
:101C5C008A52F39CBEF7FFFF9EF7FFFFFFFFFFFFCB
:101C6C00FFFFFFFFFFFFFFFFFFFFFFFFFFFFFFFF78
:101C7C00FFFFFFFFFFFFFFFFFFFFFFFF0000FFFF66
:101C8C00FFFFFFFFFFFFFFFFFFFFFFFFFFFFFFFF58
:101C9C00FFFFFFFFFFFFFFFFFFFFFFFFFFFFFFFF48
:101CAC00FFFF9AD6AE73E739E739A631A210A2101E
:101CBC0004210421E318E31824210421E318E31878
:101CCC0004210421E318E318E318E318E318C318FC
:101CDC00E318E318E318042104210421E318C318C2
:101CEC0024214529E318C318E3180421E318E31849
:101CFC006529E73928424D6B38C6FFFFFFFFFFFF10
:101D0C00FFFFFFFFFFFFFFFFFFFFFFFFFFFFFFFFD7
:101D1C00FFFFFFFFFFFFFFFFFFFFFFFFFFFF0000C5
:101D2C00FFFFFFFFFFFFFFFFFFFFFFFFFFFFFFFFB7
:101D3C00FFFFFFFFFFFFFFFFFFFFFFFFFFFFFFFFA7
:101D4C00FFFFF39CAA5228428631C318C318E3182C
:101D5C00C318E318E31804210421C318C318242161
:101D6C000421E31804210421042104210421C318B3
:101D7C00C3180421E31804210421E31804210421CD
:101D8C002421E318E318E318E318E318E318E31825
:101D9C002421C318E318A6310842694A9294BEF76D
:101DAC00FFFFFFFFFFFFFFFFFFFFFFFFFFFFFFFF37
:101DBC00FFFFFFFFFFFFFFFFFFFFFFFFFFFFFFFF27
:101DCC000000FFFFFFFFFFFFFFFFFFFFFFFFFFFF15
:101DDC00FFFFDFFFFFFFFFFFFFFFFFFFFFFFFFFF27
:101DEC007DEFEF7B694A08420421C318E3180842CF
:101DFC00494A284208428210E31804212421C318BE
:101E0C002421042104210421042104210421E318A8
:101E1C00E318C318E318042104210421042104212C
:101E2C0004210421C3180421242104210421E318D2
:101E3C0004210421E318C318E318E318E739694AAD
:101E4C00AE73FBDEFFFFFFFFFFFFFFFFDFFFFFFFB8
:101E5C00DFFFFFFFFFFFFFFFFFFFFFFFFFFFFFFFA6
:101E6C00FFFF0000FFFFFFFFFFFFFFFFFFFFFFFF74
:101E7C00FFFFFFFFFFFFFFFFFFFFFFFFDFFFFFFF86
:101E8C00DBDE4D6B8A52A631C318C318E7398E734B
:101E9C00D39C518CD39C9294694A8210C318E3183A
:101EAC0004210421042104210421042104210421FE
:101EBC00E318E318C318E3180421042104210421B6
:101ECC0004210421E3182421C318E3182421E31866
:101EDC004529E318A210E31824212421C318E31880
:101EEC0086318A520C6379CEFFFFFFFFDFFFFFFFC5
:101EFC00FFFFFFFFFFFFFFFFFFFFFFFFFFFFFFFFE6
:101F0C00FFFFFFFF0000FFFFFFFFFFFFFFFFFFFFD3
:101F1C00FFFFFFFFFFFFDFFFFFFFFFFFFFFFFFFFE5
:101F2C0059CEEB5A8A522421E31824212842EB5A29
:101F3C0028424D6B8A528A528E73494A8E732421E1
:101F4C0004214529E318042104210421042104213E
:101F5C0004210421E318C318E318042104210421EB
:101F6C00042104210421042104212421E318E7394C
:101F7C004D6BEB5A6D6B694AA2100421C3182421D6
:101F8C00E3180421E318694ACB5AF7BDFFFFFFFFA2
:101F9C00FFFFFFFFFFFFFFFFFFFFFFFFFFFFFFFF45
:101FAC00FFFFFFFFFFFF0000FFFFFFFFFFFFFFFF33
:101FBC00FFFFFFFFFFFFFFFFFFFFFFFFFFFFDFFF45
:101FCC0059CECB5A694A242104212421A2104D6BED
:101FDC00AA522421CB5AAA52EB5A28422421EF7B35
:101FEC00042104210421242104212421242104215D
:101FFC00042124210421E318E318042124210421C1
:10200C0004210421042104212421C318A2102842F4
:10201C00EF7BCB5AAA52CB5A2C63694AE318C318EC
:10202C00C3180421E31824212421694ACB5A96B5FC
:10203C00FFFFDFFFFFFFFFFFFFFFFFFFFFFFFFFFC4
:10204C00FFFFFFFFFFFFFFFF0000FFFFFFFFFFFF92
:10205C00FFFFFFFFFFFFFFFFFFFFDFFFFFFFFFFFA4
:10206C0038C6CB5A8A520421E31804212421C31800
:10207C00A2102C63EB5AC739494AC7392842CF7B87
:10208C006529C3180421E3182421042124212421C7
:10209C002421242124210421E318E31804212421E0
:1020AC00042104210421042104210421E3182C63BC
:1020BC004D6B86318E73AA528A52AE732C632C638D
:1020CC008A526529E318E318E318E3180421494AF6
:1020DC00CB5AB6B5FFFFDFFFFFFFFFFFFFFFFFFF90
:1020EC00FFFFFFFFFFFFFFFFFFFF0000FFFFFFFFF2
:1020FC00FFFFFFFFFFFFFFFFFFFFFFFFFFFFBEF72D
:10210C00DBDE4D6B2842E3182421242124210421F9
:10211C0045296529E318AA52CF7BAA526D6BAE7381
:10212C0065292421042124212421042104210421B2
:10213C0004210421042104210421E318C318E31809
:10214C00042104210421042124210421E318AA528E
:10215C000C63E318C3186108A6314D6BCB5AA2105F
:10216C006529AA528E73E3186529E3182421E31814
:10217C00E318694A0C6318C6FFFFFFFFFFFFFFFF60
:10218C00FFFFFFFFFFFFFFFFFFFFFFFF0000FFFF51
:10219C00FFFFFFFFFFFFFFFFFFFFFFFFFFFFFFFF43
:1021AC001CE78E73694A04214529E318E3180421BE
:1021BC004529C318A210E318E3184529C318E318DE
:1021CC00C318A2102421C318C318E31845290421ED
:1021DC00042104210421042104210421E318C3183F
:1021EC00E318042104210421042104210421C3182F
:1021FC000C63EF7BE318494A6D6B6D6B518CAE73BE
:10220C00EB5AE318EB5A108404210421E318E31869
:10221C00E31804216529494ACB5A3CE7FFFFFFFF2D
:10222C00FFFFFFFFFFFFFFFFFFFFFFFFFFFF0000B0
:10223C00FFFFFFFFFFFFFFFFFFFFFFFFFFFFFFFFA2
:10224C00BEF730848A52652904210421042104211B
:10225C000421042104218A52CB5A2842494A694A52
:10226C00694A8A52CB5ACB5A4529042104210421AC
:10227C00042124212421242124212421042104218A
:10228C00E318042124212421042104210421042104
:10229C002421C318494ACF7B4D6B8631242124213C
:1022AC004529AA52CF7BEB5A042124210421242155
:1022BC00242104212421C3186529CB5A4D6B9EF788
:1022CC00FFFFFFFFFFFFFFFFFFFFFFFFFFFFFFFF12
:1022DC000000FFFFFFFFFFFFFFFFFFFFDFFFDFFF40
:1022EC00FFFFF39CEB5A65290421042104212421CE
:1022FC00042104212421E318E739AA521084929472
:10230C004D6BEC5AF49CCF7BAE73694AC3182421F5
:10231C00252124212421E318A210821082106108A7
:10232C004108610841086108A210C318E318042190
:10233C0045292521042104214529E31804212421C0
:10234C00E318E318042124210421E31804210421B7
:10235C000421E31824212421242104216529CB5AAA
:10236C00718CFFFFBEF7FFFFFFFFFFFFFFFFDFFFDB
:10237C00FFFF0000FFFFFFFFFFFFFFFFFFFFFFFF5F
:10238C00FFFF59CE4D6BE7390421042104210421B0
:10239C0024212421452924210421C73908428A52A9
:1023AC00EB5A8A520C63CB5A6A4AC7390842E31873
:1023BC0004210421A2108210A210C3182421452943
:1023CC008631A631A631A63186310421C318A2105C
:1023DC00A21061080421042104212521452925216D
:1023EC002421252124212421042104210421242118
:1023FC002421042145290421042124210421042120
:10240C00E7390C63D7BDFFFFDFFFFFFFDFFFFFFFE7
:10241C00FFFFDFFF0000FFFFDFFFFFFFFFFFBEF747
:10242C00FFFFBEF7AE730842452904212421242165
:10243C000421242124214429032104214529042198
:10244C00E31804212421042145292421E318042123
:10245C0004214108C3182421A631084228422842ED
:10246C00284228422842E7390842084208422842BA
:10247C002842C739452982108210E418E318E31862
:10248C00E418452904212421242104210421242198
:10249C0024212421242145292421242124210421FF
:1024AC00E318452908424D6B7DEFDFFFBEF7FFFFB8
:1024BC00FFFFDFFFFFFF0000DFFFFFFFFFFFFFFF5E
:1024CC00FFFFFFFFF39CAA52863124210421242113
:1024DC00242124212421242124212421452924219F
:1024EC002421242104212421042125212421E31841
:1024FC006108C318C7392942494A28420842C739DA
:10250C00C739E739E739C739E739E739E739C7391F
:10251C00C739E73908422842494AC739C318610804
:10252C002421452924214529042104212421242165
:10253C002421242124212421042145294529242135
:10254C0024212421452965298A52518CFFFFFFFF44
:10255C00DFFFFFFFFFFFFFFF0000FFFFFFFFFFFF9D
:10256C00BEF7BEF7DBDE652924212421242124219A
:10257C00242124212421242124210421042145293E
:10258C000321242145290421242125214529410801
:10259C00A310C739494A29428631C739A631A63119
:1025AC00E739E739A631A631C739C739A631A63183
:1025BC00C739E739C739C739C739084229422942CF
:1025CC00A73182106208E418452904212421242112
:1025DC00452924212421242145292521452924214B
:1025EC000421452945290421E318E318242138C680
:1025FC00FFFFDFFFFFFFFFFFFFFF0000FFFFBEF746
:10260C00FFFFFFFFFFFFB294E739E318C318042163
:10261C0024214529242124212421242165294429EC
:10262C0065292421452945290421242104218210CE
:10263C000421494A2942A731A7310942E739E73930
:10264C00E739C739A631C739E739C739E739E73927
:10265C00C739C739C739C739E739C739A731A7319E
:10266C00C7398A52494A45298210042145294529EE
:10267C002421242124214529452945294529252181
:10268C002421242145290421C318E318E318E73930
:10269C00718CDFFFFFFFFFFFDFFFFFFF0000DFFF9D
:1026AC00FFFFDFFFDFFF1CE7AA52C7390421E31845
:1026BC000421042104212421242124212421242146
:1026CC00042144290421452945294529242161084F
:1026DC00A6318A52A731E8398731C8398731C739D1
:1026EC00C739A6318631A631C739A63145294529C6
:1026FC0065298631A631A6318631C7390842C739DA
:10270C00C739C739A731C739694AC73941080421C4
:10271C002521452924212421452945292421252108
:10272C004529452925210421C318E31845294529A4
:10273C00C739EB5A59CEDFFFDFFFFFFFFFFF000069
:10274C00FFFFDFFFFFFFFFFF9294694A24216529F9
:10275C0024210421A210A2100421242124212421AB
:10276C00242144294529042145294529242162088D
:10277C00C739494AC739E839A731C839C739A731E8
:10278C00C7398631A631E73986314529494ACF7B8D
:10279C00CF7B8A5286316529C739C739A631C739EB
:1027AC00E739A731E839C739E739C7392842084230
:1027BC0082100421452925210421242124212421AE
:1027CC00452945292421C318C318E3180421452998
:1027DC00242124210842518CFFFFFFFFDFFFFFFF64
:1027EC000000FFFFFFFFFFFF5DEF2C6386314529E3
:1027FC0004214529252145296629A310A21025214C
:10280C0065292421652924214529042124216108D5
:10281C00A731494AE839A731C739C839A731A73197
:10282C00A731A731A631A631A63145298A52D39CAE
:10283C0096B5D7BDD39CCB5A4529E7398631A631FD
:10284C00C739C739A739C739C739A731A731E739CC
:10285C00494AA731620824212521452925216529CA
:10286C0025214529E318A3100421452924214529B4
:10287C00042124210421A631EB5AFBDEDFFFFFFFEC
:10288C00FFFF0000FFFFDFFFFFFF55AD2942652969
:10289C00452925216529252124214529452925213D
:1028AC00E418A210E3180421652945296529821032
:1028BC00A6312842E841C739A731A739C739A73112
:1028CC00A731A739A63165298631A631C7392C63C2
:1028DC0034A5D7BDB6B534A56D6BA631A631652927
:1028EC00A631A631A731A731C739C739C739A731A6
:1028FC00C739E8392842A63182106529452945296E
:10290C0024210421620804216529452945294529EA
:10291C00452925212421452945292842D39CDFFF1F
:10292C00DFFFFFFF0000FFFFFFFFFFFF8E73C739C4
:10293C00652945294529242145294529252145294C
:10294C00652925212521E318C318E3182521042125
:10295C00042129420842A731A731A731A739A73151
:10296C00A731A731A731A731863165298631A63128
:10297C00AA523084B294F39C518CEB5AA631C739CD
:10298C006529A631A631A731A731A739C739C7396F
:10299C00C739A731A731E83928420421E31824218B
:1029AC00A310C318E41845294529452904210421FD
:1029BC00452945294529242145294529E7392C63F1
:1029CC00BEF7DFFFFFFF0000DFFFFFFFDBDE6A4A21
:1029DC0086314529242145298631652966292521F9
:1029EC00452965296529652924210421C318E31883
:1029FC00A3102842C73986318731A731C739A73987
:102A0C00A7318731873186318631863186318631DF
:102A1C00863128422C63AE73CF7B0C6328428631FF
:102A2C00A6318631A631A631A631A731A731A731FF
:102A3C00A731C739C739A7318631E8392942E3189C
:102A4C00E318C318042125212521252145296529B1
:102A5C0066296629252166294529242124216529F1
:102A6C00694A79CEFFFFBEF70000DFFFFFFF14A518
:102A7C00E739452925214529452945292421652959
:102A8C008631452945294529452946294529452980
:102A9C008210662929428731A731A731A739C73956
:102AAC00A631A631A6318631863165298631A6310B
:102ABC0086318631E739694ACB5A8A52694A2842AB
:102ACC00863165298631A63186318631A731A73109
:102ADC0087318731A739C739A7318731A7310842E8
:102AEC0086318210662945294529452945294529DC
:102AFC00252145296529452945294529242145298B
:102B0C00242107429194FFFFDEFF0000FFFFFFFF2F
:102B1C00AF73C7392521452965292421252145294C
:102B2C00042166294529452945294529462946294F
:102B3C002521A31029428631A731A731A731A7310E
:102B4C00A631A631A631A63186318631A631863121
:102B5C00863165296529A631A631C739E739C739C8
:102B6C00A63165298631A631863186316631A73189
:102B7C00A731A7318731A731A7318731A7398631E2
:102B8C0086310842C31804214529252145292521D0
:102B9C004529662966292421452904210421652912
:102BAC0065294529C6394C6BDEFFFFFF0000FFFF8E
:102BBC003CE7AB52A63124216529242104214D6B1D
:102BCC000C6325212421452966292421042145292A
:102BDC004529A310663108426629A7318731A731F0
:102BEC00A731A631A631A631A63186318631A63160
:102BFC006529863186316529A63186318631A63123
:102C0C00452945296529A631A6316529A731863183
:102C1C008731A731A731A731A73187318731C73920
:102C2C00A7398631E839A631A310652945294529EC
:102C3C002521452925210421E418EB5A8E732421E2
:102C4C002421452944298531694ABAD6FFFF000061
:102C5C00FFFF59CE08426629242166292521A73970
:102C6C00F49CF49C08424529252145290421652919
:102C7C0045294529E418294266316629A739873147
:102C8C00A731A731A731C739A731A6318631A63173
:102C9C00A6316529A63186316529863165298631AB
:102CAC0065298631A63165296529A6316529A731A3
:102CBC00A731A731A731A731A731A731A731A73940
:102CCC008631C739652986310842E3182521452903
:102CDC00252945296629042165290842B39414A5A0
:102CEC00E73924214529242165290842B6B5FFFF7F
:102CFC000000FFFF34A5E739652924216529242923
:102D0C00929408422842B2946529242145216529D0
:102D1C0025214629C3184529E8396629A73186316A
:102D2C00A7398631C739A7318631A731863166314B
:102D3C00A731863186318631A631652965298631E0
:102D4C008631652986316629863186296629862948
:102D5C00A731873187318731873187318731873187
:102D6C008731A731873186316631E8412521C41876
:102D7C00452945292521652925214529B294494A0A
:102D8C000842B2942421863145294529C7399294A9
:102D9C00FFFF0000FFFF0F7C863165296529242188
:102DAC00AE73CF7B04210421AE73AE730421863144
:102DBC00452145296529C3186629C83966318631EC
:102DCC00863187318631873186318631A739873113
:102DDC006629863166298629A63125218631A631B8
:102DEC0045298631863186298631652986296629C9
:102DFC008631662986318731873187318731873132
:102E0C00873186318631863166316631E8396629FB
:102E1C00E4186629662945294529E4186E6B108447
:102E2C002521A3108E73EF7BE31886310421A63184
:102E3C008E73DFFF0000FFFFAE7385294421242130
:102E4C00494A718C24216631C31824219294C739C4
:102E5C00E318852945296529E4188631A73166319F
:102E6C00863186316631A73186318631863187319C
:102E7C00863166298631A6314521C7316529452918
:102E8C008631A63145298631452986318629A631D8
:102E9C006629A731A6318631863186318631863155
:102EAC008631863186318631863186316631A7315D
:102EBC008731C41866292521863124210842518C7A
:102ECC0045290421A6314529518C8A5224212421DB
:102EDC0086314D6B9EF700009EEFCA52A6314529F4
:102EEC002421A63104216631E318452945294529B9
:102EFC00E7390319862925214521E418A7318631A4
:102F0C0086316631A731663186318631873186311B
:102F1C006629662986318631A73166296629A7314B
:102F2C008631452986318629662986298631862966
:102F3C00863186316629662986318631863186311D
:102F4C0086318631863186318631863186316631DD
:102F5C006631C739C318452945294529E418E8398C
:102F6C006529252186310421652945298631652964
:102F7C0045296529694A9AD600005DE7694A4529C1
:102F8C00A631652945292429C318E420A210A210D2
:102F9C00042124214529442124212421E418A7318A
:102FAC00662986316631A7316629662966318631F4
:102FBC0086316629863187316629863166296629EC
:102FCC00A731662986318631662966298631863194
:102FDC0045298631A7316629863186298631863185
:102FEC00863186318631863186318631863186311D
:102FFC0086296629C739C318252186312421252124
:10300C0024214529A210A310E418A210242165291B
:10301C004529452965290842F7BD000079CE083AB3
:10302C008631242145290421C318AA5A518C1084B5
:10303C00CB5AE31824214421652945292421E4187D
:10304C00A731662986316629863166296631863133
:10305C0066316629863186316629252166296629DD
:10306C004529452986316629252186318631452910
:10307C00A7316629662945294529A731662986295C
:10308C008629862986318631863186318629863194
:10309C00862986296629C731E418252165298631B8
:1030AC0045294529C318CB5A1084518C8A52E318F0
:1030BC0004214529652945292842D39C000038C69E
:1030CC0028428631652924210421AA52B29C71948C
:1030DC00B2949294494AE318A63104196629242122
:1030EC00E420873166296631663166316631863176
:1030FC008631662966298631662945298631E8415B
:10310C006E6BEC5A66316629C839EC5A66318631D9
:10311C0045296631663125218A52294225216629A5
:10312C00662966298629862986298629862966297B
:10313C008631662986316629A73104210421452967
:10314C0004218631A31008429294728C3184B2947B
:10315C00694AC318242124216529C7399294000097
:10316C00F7BDC739862945218631E3180C63CF7B1F
:10317C00AE7BEF7BCF7BEB5A442124214421662983
:10318C000421E42086316629663166316629863150
:10319C006629663166296631863145298631494A68
:1031AC0055AD3184D39C14A5E841A73139C68A5258
:1031BC0005218731452966314629D8BDB3940521AF
:1031CC0066296629662966298629862986298629FB
:1031DC00862986316629863186298629042104218F
:1031EC008631452945292421EC5A8E73AE738E7392
:1031FC00AE73EB5AC318452945294529084230843A
:10320C000000B6B5073A6529652945292421494AA4
:10321C00EB5AEB5AEB5AEB5A084224214421242155
:10322C004529042104216629863145294629662928
:10323C0066298631662986314629863186312529CB
:10324C000842A731042104212D6355ADC418728C9A
:10325C00F49C0521252946294629084218C6F4A4C0
:10326C00A739452945298631662986296629662983
:10327C0066296629862945296629862986310419F5
:10328C00042166294529652924210842CB5AAB52D1
:10329C00CB5ACB5A08422421452945292421C73928
:1032AC00518C0000D7BDE739852965298631E31893
:1032BC008631EB5ACB5AAA52CB5AC73904198631EC
:1032CC00652986292421E418662966294529662959
:1032DC00662966294529662966314529462986319C
:1032EC0045290421662966298631A31815A5AB5AF0
:1032FC00E84139CEE84166296631E4202D63518CD2
:10330C00528C8A524529452945298631452945291A
:10331C0086316629662966294529662966298631FA
:10332C00E4182521662945298631E318A731AB52CB
:10333C008A52CB5AAA526529242186312421652927
:10334C00E739518C000059CE073A652924214529CB
:10335C0045296529C739694A2842C739452965294C
:10336C002421652945294529E41866314529452933
:10337C006629462966296629452946298631452923
:10338C00052186318731252186316629E418EF7BAA
:10339C00F07BE31896B5AE73E31865290421718CA4
:1033AC002D63EF7BAF730421862945298631452196
:1033BC0045298631452966296629452966294529E5
:1033CC008631E4184529863125214529A731042168
:1033DC008631494A0842A6316529652924214529A7
:1033EC006529C739F39C0000DBDE48426529452975
:1033FC006529652904214529452965294529242163
:10340C0024214529452945296529E41866312529B2
:10341C0045296629452946296629462945294629EB
:10342C006629662945290421452945298631042127
:10343C00B3948E73A3108E73D7BD452945292521CE
:10344C00F7BD76ADF7BDF49CE418662966294529CD
:10345C00662966294529452945294529452966298D
:10346C0025218631E4186629652945294529252118
:10347C0025214529662965296529E31886316529A1
:10348C0045296529084296B50000BEF70842E73980
:10349C00652904210842AA520419652945212421D1
:1034AC00AA52E7394529863145296629E42066293F
:1034BC00452945294629452945294529452945298F
:1034CC002521462966292521863104210421A210B3
:1034DC00084296B5C739E318A63138C68A5282100D
:1034EC00AA5234A5C739AA5255ADA7310421662971
:1034FC000521662945294529462945294529452976
:10350C00462925296631E42086316529652925213E
:10351C000842AA522521652986312421494A494A63
:10352C0065292421C7390842BAD60000FFFF0C6375
:10353C002421A63165296529B294494224212421EC
:10354C00494A518C863165294529652986312521C1
:10355C0045296629452945294529452966292521D5
:10356C0066294529452905212521AB5214A5EB5A7D
:10357C00EF7BB6B54D6B042124212421F39C14A5BB
:10358C0082103084518CA2100421D39C0C63C4187B
:10359C0066294529452925216629252945294529B5
:1035AC002529452946294629252186316529863133
:1035BC00662966299294494A042145292842D39CBC
:1035CC008631452986314529AA527DEF0000FFFF3F
:1035DC00AE7386314529A63165290842D29444211F
:1035EC004529D394284224216529652986318631C1
:1035FC004629252186312521252945294529252995
:10360C0046296629252145296629252146296D6BE0
:10361C00F39C9294694AA21024216529E318694A03
:10362C001084C3180C63494A2421E318AA52CB5ABC
:10363C000421662945294529252166292521452965
:10364C004629252145298631252145298631863172
:10365C004529652945292842F49C863145299294AF
:10366C008A52242186316529C7390C63FFFF00007B
:10367C00FFFF9294863186312421C73904218E7341
:10368C00CE73EF7B6D6B25218631A731A731452990
:10369C00663166310421A7312521252145292529AB
:1036AC004529252125216629452904212521242167
:1036BC000421A210C318E318242124212421452914
:1036CC004529E318863124210421452965294529FA
:1036DC0045294529452904214629452945294529B6
:1036EC004529662925214529873105216629663119
:1036FC006629A631C739863104216E6B10848E730E
:10370C00F07B0421A6318631652986311084FFFFB8
:10371C000000FFFFD7BD6529C739A7318631A63117
:10372C002521D39CB39C8631873145298631662966
:10373C00A7318631A7310421863145290421452939
:10374C0024212521452945292521242125214529C7
:10375C002421452924210421242124214529242103
:10376C0004214529452945292421242124214529A1
:10377C004529252125212521252125214529452995
:10378C0025214529E4182521452945294529863136
:10379C0066298631662986318631A7316631929445
:1037AC0014A5662966318731C739A731662955AD0D
:1037BC00FFFF0000FFFF1CE7C839C73966298631B7
:1037CC0087314529084208424529A731C73946297E
:1037DC006629A73986316631863125214529042190
:1037EC004529252125214529242124212421452928
:1037FC0045292421452924212421242145294529F1
:10380C00242124214529242124212421242124215B
:10381C002421242104212421252145294529452918
:10382C004529452904216629252145294529663143
:10383C006629A7398631662986318631A731252933
:10384C00294209424629873186314529C739A63193
:10385C007ACEFFFF0000FFFFFFFFEC5AA731663165
:10386C008731A731873186316629A7396629863198
:10387C00A731A73145296631A731A6312521652904
:10388C008631C318452925212521252125212421CF
:10389C004529452924214529242124212421452950
:1038AC004529452924214529242124212421242169
:1038BC002421242124212421242145294529242182
:1038CC00242125212521252125212421652945294E
:1038DC00C739A7316629663166298631863186312A
:1038EC008731662987318631C739873146290842A5
:1038FC006A4ABFF7FFFF0000BEF7FFFF728C662914
:10390C00C73966316629A739A7318631C839C73915
:10391C00662987318631A731A731662945290421CB
:10392C000421863104214529252125212521252104
:10393C002421242124212421242124212421242153
:10394C002421242124212421242124212421242143
:10395C00242124212421242145292421242124210A
:10396C0024212421242125212521042166294529CE
:10397C00E4180421A731A73186318631A731A7314C
:10398C008731C8398731A731873166316631C739FC
:10399C00A631CF7BFFFFDFFF0000FFFFDFFF7ACEFA
:1039AC008631084286316629A7318631A7316631C6
:1039BC00A7318631C7398731A7312529A318252985
:1039CC004529452925216629042104212421252165
:1039DC0025212421242124212421242124212421B2
:1039EC0024212421242124212421242124212421A3
:1039FC0024212421242124212421242104210421D3
:103A0C002421242124212421242104214529863107
:103A1C0045296629042104214529C739A731A73135
:103A2C00A7318731A731A7396629A73146298631B5
:103A3C0009424529B7B5FFFFDFFF0000FFFFDFFF9D
:103A4C00DFFF8A52C839A73187318731A731E8396E
:103A5C0086316629C739C7396629C418E41846293E
:103A6C006629A739E839652925214529042104212E
:103A7C000421242124210421242124212421242152
:103A8C002421242124212421242124212421242102
:103A9C002421242124212421242124212421042112
:103AAC000421242124210421042104214529252138
:103ABC004529C739C739A7312521E4184529452996
:103ACC008631A731A7318631E8398731A73166298C
:103ADC00A739E84108425DEFFFFFFFFF0000FFFF41
:103AEC00BFF7FFFFB3948631C73986316629462963
:103AFC006631A731C7398731E418E41805216631DE
:103B0C00294266298631C739A7312521A7312521BC
:103B1C000421042104210421042104212421242131
:103B2C002421242124212421242124212421242161
:103B3C002421242124212421242124212421242151
:103B4C002421242124210421E31804212421652982
:103B5C0045298631E73945298631C739A631E4181C
:103B6C00042145298631A73986318731662986316A
:103B7C006629C839A7311084FFFFDFFFFFFF000063
:103B8C00FFFFFFFFFFFFFCDEC7392842863186317D
:103B9C00C739A73186312521A31004216629C739DD
:103BAC00A7314629A7318731A7318731A731E418CE
:103BBC0065292421E418E41804212421042104217A
:103BCC002421042104210421042124210421042181
:103BDC0004210421042104210421042104210421B1
:103BEC000421032104210421E318E3182421863144
:103BFC0024216529C7398631C7398631863186310A
:103C0C00C8396631C418C3186631C7398731C7390A
:103C1C00A73186310842C73918C6FFFFBEF7FFFF30
:103C2C000000DFFFFFFFFFFFFFFFAF73C739C7398E
:103C3C00A73186318731A318C318A731A731863134
:103C4C00C73987318631A73166318731C73986311B
:103C5C00E839252125214529E4180421E3180421FC
:103C6C0004210421042104210421E318042104214A
:103C7C000421E31824210421E31804210421042144
:103C8C00042104214529C31804210421452945296F
:103C9C002421E739A731C73986318631A731C73995
:103CAC008631A631C739A7316629C418C3188631A5
:103CBC00C739A731A739C739EC5AFFFFFFFFDFFF20
:103CCC00FFFF0000FFFFDFFFBFF7FFFF39C6A73183
:103CDC006A4A4529C318C3184529C739A731A739DA
:103CEC00A731A731C739A731A739C739C739C73960
:103CFC00A739C7398631452965294529E418042196
:103D0C002521C3180421E3180421042104210421D2
:103D1C000421E31804210421E318E31804212421CD
:103D2C000421E3180421A21024210421E31865299D
:103D3C00452986318631C739C739E739A731A631CC
:103D4C00A731C739A731A731C7398631A7316631B9
:103D5C00A310042166316A52A73196B5FFFFDFFF2D
:103D6C00FFFFFFFF0000FFFFFFFFFFFFFFFFFFFF55
:103D7C006E6BC31804212521C739C739E839863140
:103D8C00A731E839A731C739A7318731A731863137
:103D9C008631C739A7316629E8398631252145296D
:103DAC002421A31004210421E318E3180421042185
:103DBC0004210421031903190419E318031904211C
:103DCC000419E3180421E318042104218631652920
:103DDC0024210842A731C739E8396629A731C739E8
:103DEC00C739A731C739C739C739A631A631A73169
:103DFC00C739A7312521C3180421CB5ADFFFFFFF98
:103E0C00FFFFFFFFDFFF0000FFFFFFFFFFFFFFFFD4
:103E1C00FFFF9AD6E318C739A631E8398631A731A6
:103E2C00A731C739A739A7318731C739E839C7391D
:103E3C00C839C739A731A731C739E839C7398731EC
:103E4C0086316629452945290421E318E31803190D
:103E5C00E318E318E318E318E318E318E31803195D
:103E6C00E318C318E3182421242165296529452961
:103E7C00A731E839E73986318631A731A731A73127
:103E8C00A731A731A731A739A631A731A631E73918
:103E9C0087316631E8398631A7318210D7BDFFFFF3
:103EAC009EF7FFFFFFFFFFFF0000FFFFFFFFFFFF7D
:103EBC00FFFFDFFFFFFF518C8631284286318631B0
:103ECC00C739A631C7398631C739A731C7398731C8
:103EDC004529A731C73945298731863125214629FE
:103EEC00C739E839662945294529242104190419BB
:103EFC000421E318E318E318E318E318E318E318B4
:103F0C0003190419E3180419452166296629863119
:103F1C00E739A73966318631A739E839A731E8394D
:103F2C00A7318731C739C739A731C739A631C73946
:103F3C00A731C739A7316629494AE8390C63FFFF15
:103F4C00FFFFBEF7FFFFFFFFFFFF0000FFFFDFFFDC
:103F5C00FFFFFFFFFFFFFFFFFCDE2842C7390842CF
:103F6C00A731C739C7398631E839A731C739C739BD
:103F7C00873109420C634D6B2D638E730D63AF73E8
:103F8C004D6B29428631C839E839C73986316529E4
:103F9C00652965292421242124212421442124213B
:103FAC00242124216529852965298629C739E739E2
:103FBC00C73986318731C8390942C739662946293C
:103FCC00A731A731A731C739C739A731C739C73985
:103FDC00A7318631A731E839E839E841A7319AD6BB
:103FEC00FFFFFFFFFFFFFFFFDFFFFFFF0000FFFFF3
:103FFC00FFFFFFFFDFFFDFFFFFFFFFFFB6B58631DF
:10400C000842C739A6310842A631E83986318731D2
:10401C0087318731EC626E6B8B528A526A528A52AC
:10402C002942EC5ACF7BC7396631A731C739C73122
:10403C00C731C739C631A631A631A63165298529C4
:10404C00A631A631A631C731C739C731C731A7311F
:10405C00A7316631084286314D6B1CE78A52084203
:10406C004A4A8631E839C73987318731E839A63170
:10407C00E739C739C7398731A73909424529B3947C
:10408C00FFFFBEF7FFFFFFFFFFFFFFFFFFFF00007B
:10409C00FFFFFFFFFFFFFFFFFFFFFFFFFFFFFFFF24
:1040AC00CF7B8631494AA6318631E8398631E839E9
:1040BC00E839A73966312D6BEC5A4529E841C839E6
:1040CC00C739A73109426E6BA731C839A731C73937
:1040DC00A731C739E739C739C739E739E7398631E5
:1040EC006529C739073AE739C739C731C731C739E5
:1040FC00A731E839A731A7318631A73197B5AF730E
:10410C009BD676AD87318731C739E839A731E83985
:10411C00E839C739C739A731C739E839E841CB5A2B
:10412C00FFFFBEF7FFFFFFFFDFFFFFFFFFFFFFFFFC
:10413C000000FFFFFFFFFFFFFFFFFFFFFFFFFFFF81
:10414C00FFFFBEF7494AE7390842C739E739A631BC
:10415C00C739E739A73986310C63CC5A4D6B6E6B76
:10416C004D6B2D636E6B8B526E6BC8398731E8418A
:10417C008631C739C739C739C739A731C739C739A4
:10418C0045292521C739C739C739C739C739C7396F
:10419C00C739A731E839A731A7318A52F49C9394D7
:1041AC009394F083EC5A8631C739A7318731E839BB
:1041BC00A739C7398631C8390842E839E839E839AE
:1041CC003DE7FFFFFFFFFFFFFFFFFFFFFFFFFFFFCD
:1041DC00FFFF0000FFFFFFFFFFFFFFFFFFFFFFFFE1
:1041EC00FFFFFFFFFFFFBAD6E7390842E739C739AF
:1041FC00E739A631C739A731A7316E6B8B522D6BBE
:10420C002D632D632D632D6BEC5A2D630842C83939
:10421C00A7310842C739C739C739C739C739C73970
:10422C00C73945292521C739C739C739C739C739CE
:10423C00C739C739A739A731C83966298E73BBD698
:10424C006E7376AD518C2521A731A739A731E8398A
:10425C00E839A731A739A7310842873128426529A7
:10426C0059CEFFFFFFFFFFFFFFFFFFFFFFFFFFFF29
:10427C00FFFFFFFF0000FFFFFFFFFFFFFFFFFFFF40
:10428C00FFFFFFFFFFFFDFFFFFFF18C66529494A4D
:10429C00084286310842C7390842C7396A4A118434
:1042AC00D39CD39C14A59294F49CF49C8E7387316C
:1042BC00C839C7398731C739C739C739C839C73938
:1042CC00C739C73945292521C739C739C739C7392E
:1042DC00C739C739C739E8398731A73129428631FF
:1042EC00E839A73114A555ADA739E8390842E8419A
:1042FC008631A731E839A731E841A7316A4A042150
:10430C0055ADFFFFDFFFFFFFFFFFFFFFFFFFFFFFCD
:10431C00FFFFFFFFFFFF0000FFFFFFFFFFFFFFFF9F
:10432C00FFFFFFFFFFFFFFFFDFFFFFFFFFFF96B564
:10433C00452928422842A631E739C739A731E8393F
:10434C002942EC5A0D63EC5ACC5A0C636A52C739A9
:10435C00C739C739A7390842C839C739C739E83905
:10436C00C739C839C83946292529C839C739C73981
:10437C00C739C839C739C739C839E839C739C7390E
:10438C00A731A7318631A739C839863187318631B3
:10439C008631E839E839C739C739C7396A4A252916
:1043AC00B394DFFFFFFFDFFFFFFFFFFFFFFFFFFF08
:1043BC00FFFFFFFFFFFFFFFF0000FFFFFFFFFFFFFF
:1043CC00FFFFFFFFFFFFFFFFFFFFFFFFFFFFDFFF11
:1043DC00FFFF96B524210842494AC739A731C7398E
:1043EC00C73908426A4A0842E8396A5229424A4A9D
:1043FC00E839A731C739E839C839E839C839C83973
:10440C00E839C739C839E83966294529E839C7393F
:10441C00C839C739E839C739C839A731C8398A52B8
:10442C00AB5A8A526A4A2D638A5208422942AB52CD
:10443C000C63E839C739A731C739494A09422521E4
:10444C009294FFFFFFFFDFFFFFFFFFFFFFFFFFFF68
:10445C00FFFFFFFFFFFFFFFFFFFF0000FFFFFFFF5E
:10446C00FFFFFFFFFFFFFFFFFFFFFFFFFFFFDFFF70
:10447C00FFFFFFFFFFFF96B524210842494AE739A9
:10448C000842A6314D6B518C31844D6B0D63728C8F
:10449C0014A56A526631E839A731E839E839E839A8
:1044AC00C839E839C839E839E83966294529E8397D
:1044BC00C739E839C739E839C839E839E8398631B4
:1044CC008E73F07BF07BF07B2D63F4A4D07BD39CBC
:1044DC00F0836E6BAB5AC839C7392942E8392529A4
:1044EC00D39CFFFFDFFFFFFFFFFFBFF7FFFFFFFFC7
:1044FC00FFFFFFFFFFFFFFFFFFFFFFFF0000FFFFBE
:10450C00FFFFFFFFFFFFFFFFFFFFFFFFFFFFFFFFAF
:10451C00FFFFFFFFDFFFDFFFFFFF18C68631A6316D
:10452C00494AC73986310C639294CF7B1084AF73A0
:10453C00F07B728C8B5286310842E839E839E839C5
:10454C00E839E839E839C839E839E83966294529BC
:10455C00E839C839E839C839E839C839E839C839C7
:10456C00C7398A52EC5AAB5ACF7BCF7B2D6B518C0F
:10457C008F736D6BEF7BAA52A631494AC739452917
:10458C00B6B5FFFFFFFFFFFFFFFFFFFFFFFFFFFFC2
:10459C00FFFFFFFFFFFFFFFFFFFFFFFFFFFF00001D
:1045AC00FFFFFFFFFFFFFFFFFFFFFFFFFFFFFFFF0F
:1045BC00FFFFFFFFDFFFFFFFFFFFDFFFFFFFFBDE64
:1045CC0008424529284228420842494A0842E7390C
:1045DC008B52494A0842C739E8390842E839C73989
:1045EC00E839E839E839E839C839E839E839662969
:1045FC004629E839C839E839C839E839E839E83999
:10460C00E839C839E839C739A739E841A739C73972
:10461C000842C7390842E739E839494A4529E73998
:10462C009AD6DFFFFFFFFFFFFFFFDFFFFFFFFFFF5C
:10463C00FFFFFFFFFFFFFFFFFFFFFFFFFFFFFFFF7E
:10464C000000FFFFFFFFFFFFFFFFFFFFFFFFFFFF6C
:10465C00FFFFFFFFFFFFFFFFFFFFFFFFFFFFFFFF5E
:10466C00FFFFBFF7AF7304218631694A0842C7398F
:10467C00C739C739A739C739C739C739C739E8392D
:10468C00E839E839E839E839C839E839E839E8412E
:10469C0046294629E839C739E839E839E839C839AB
:1046AC00E839C739C839C839C839E839C739A739D9
:1046BC00A739E83908420842494AC73904216D6BC9
:1046CC009EF7FFFFFFFFFFFFFFFFFFFFFFFFFFFF57
:1046DC00FFFFFFFFFFFFFFFFFFFFFFFFFFFFFFFFDE
:1046EC00FFFF0000FFFFFFFFFFFFFFFFFFFFFFFFCC
:1046FC00FFFFFFFFFFFFFFFFFFFFFFFFFFFFFFFFBE
:10470C00FFFFFFFFFFFFFFFFB7B508422421494A17
:10471C006A4A2842C739C739A731E841294AE841D2
:10472C00A739E839E839E839E841E839E839C739CF
:10473C00E839662925290842E841E839C839E839B9
:10474C00E839E8390842C739E8392942E839A7314C
:10475C00C739C8390842084208420421A73155AD6F
:10476C00FFFFFFFFFFFFFFFFFFFFFFFFFFFFFFFF4D
:10477C00FFFFFFFFFFFFFFFFFFFFFFFFFFFFFFFF3D
:10478C00FFFFFFFF0000FFFFFFFFFFFFFFFFFFFF2B
:10479C00FFFFFFFFFFFFFFFFFFFFFFFFFFFFFFFF1D
:1047AC00FFFFFFFFFFFFFFFFBEF7FFFF9EF7108429
:1047BC000421452908428A5229420842C7398631C8
:1047CC00C8390942C839E839C739C839C739E8394D
:1047DC00C739E83966292529C839C739C739C839CD
:1047EC00E841E839E839C7390842C8398731E8392E
:1047FC0008422842694A294245290421EF7B3CE7BB
:10480C00FFFFFFFFFFFFFFFFFFFFFFFFFFFFFFFFAC
:10481C00FFFFFFFFFFFFFFFFFFFFFFFFFFFFFFFF9C
:10482C00FFFFFFFFFFFF0000FFFFFFFFFFFFFFFF8A
:10483C00FFFFFFFFFFFFFFFFFFFFFFFFFFFFFFFF7C
:10484C00FFFFFFFFFFFFFFFFFFFFFFFFFFFFDFFF8C
:10485C00FFFFFBDE6E6B2521242108428A52694A38
:10486C00494A0842A739E839E839C839E839E839FA
:10487C0008420842084246294629C839C839084224
:10488C0008420842E839E839E839C739E841294A89
:10489C00494A6A4A2842452904212D6379CEDFFF13
:1048AC00FFFFFFFFDFFFFFFFFFFFFFFFFFFFFFFF2C
:1048BC00FFFFFFFFFFFFFFFFFFFFFFFFFFFFFFFFFC
:1048CC00FFFFFFFFFFFFFFFF0000FFFFFFFFFFFFEA
:1048DC00FFFFFFFFFFFFFFFFFFFFFFFFFFFFFFFFDC
:1048EC00FFFFFFFFFFFFFFFFFFFFFFFFFFFFDFFFEC
:1048FC00FFFFFFFFFFFFDFFFDBDEAF73A731C31846
:10490C0086310842494A6A4A6A4A08420842E841E2
:10491C00A739C739C839E84145294529E839C83983
:10492C00E839C739C839E8390942294A4A4A6A4A32
:10493C00294A8631A31066296D6B79CEFFFFFFFFE4
:10494C00DFFFFFFFFFFFFFFFFFFFFFFFFFFFFFFF8B
:10495C00FFFFFFFFFFFFFFFFFFFFFFFFFFFFFFFF5B
:10496C00FFFFFFFFFFFFFFFFFFFF0000FFFFFFFF49
:10497C00FFFFFFFFFFFFFFFFFFFFFFFFFFFFFFFF3B
:10498C00FFFFFFFFFFFFFFFFFFFFFFFFFFFFDFFF4B
:10499C00FFFFFFFFDFFFFFFFDFFFFFFFFFFF7DEFED
:1049AC0055AD8A52252104214529863108422942D8
:1049BC006A4A494A494A29422942663145292942CB
:1049CC00494A494A494A8A52494A08428731452943
:1049DC00E418E418494A14A55DEFFFFFFFFFBFF789
:1049EC00FFFFFFFFFFFFFFFFBEF7FFFFFFFFFFFF14
:1049FC00FFFFFFFFFFFFFFFFFFFFFFFFFFFFFFFFBB
:104A0C00FFFFFFFFFFFFFFFFFFFFFFFF0000FFFFA8
:104A1C00FFFFFFFFFFFFFFFFFFFFFFFFFFFFFFFF9A
:104A2C00FFFFFFFFFFFFFFFFFFFFFFFFFFFFFFFF8A
:104A3C00FFFFDFFFFFFFFFFFFFFFFFFFFFFFFFFF9A
:104A4C00DFFFFFFFFFFFFCDE35A54E6BE84166295B
:104A5C00452945296629C739C739E739452925210B
:104A6C00C739A731A6316629652945294529C73992
:104A7C002D6314A5DCDEFFFFFFFFDFFFFFFFFFFF51
:104A8C00DFFFDFFFFFFFDFFFFFFFFFFFDEFFFFFFAB
:104A9C00FFFFFFFFFFFFFFFFFFFFFFFFFFFFFFFF1A
:104AAC00FFFFFFFFFFFFFFFFFFFFFFFFFFFF000008
:104ABC00FFFFFFFFFFFFFFFFFFFFFFFFFFFFFFFFFA
:104ACC00FFFFFFFFFFFFFFFFFFFFFFFFFFFFFFFFEA
:104ADC00FFFFFFFFFFFFFFFFDFFFFFFFFFFFFFFFFA
:104AEC00FFFFDFFFBEF7DFFFFFFFFFFFFFFFFFFF53
:104AFC00BBD6B3948A520421A2108210E418C318B6
:104B0C00C318E4188210A310E4182842718C9AD6AA
:104B1C00FFFFDFFFFFFFFFFFDFFFBFF7DFFFFFFF41
:104B2C00FFFFFFFFFFFFDFFFFFFFFFFFBEF7FFFFF2
:104B3C00FFFFFFFFFFFFFFFFFFFFFFFFFFFFFFFF79
:104B4C00FFFFFFFFFFFFFFFFFFFFFFFFFFFFFFFF69
:104B5C000000FFFFFFFFFFFFFFFFFFFFFFFFFFFF57
:104B6C00FFFFFFFFFFFFFFFFFFFFFFFFFFFFFFFF49
:104B7C00FFFFFFFFFFFFFFFFFFFFFFFFFFFFFFFF39
:104B8C00FFFFFFFFFFFFDFFFDFFFFFFFFFFFFFFF69
:104B9C00FFFF3CE7D7BD3084CB5AE739694A694AF5
:104BAC0086316529694A494AE739AA52EF7B96B59D
:104BBC001CE7FFFFFFFFFFFFFFFFDFFFDFFFFFFF34
:104BCC00FFFFDFFFFFFFFFFFFFFFFFFFFFFFFFFF09
:104BDC00FFFFFFFFFFFFFFFFFFFFFFFFFFFFFFFFD9
:104BEC00FFFFFFFFFFFFFFFFFFFFFFFFFFFFFFFFC9
:104BFC00FFFF0000FFFFFFFFFFFFFFFFFFFFFFFFB7
:104C0C00FFFFFFFFFFFFFFFFFFFFFFFFFFFFFFFFA8
:104C1C00FFFFFFFFFFFFDFFFFFFFFFFFDFFFFFFFD8
:104C2C00FFFFFFFFFFFFFFFFFFFFFFFF7DEF38C61A
:104C3C00B294AE73CB5A8A528A52694A08422842BD
:104C4C00084265298631284228420842494A494A85
:104C5C008A52EB5A8E73929418C67DEFFFFFFFFFBA
:104C6C00FFFFFFFFFFFFFFFFFFFFFFFFFFFFFFFF48
:104C7C00FFFFDFFFFFFFFFFFFFFFFFFFFFFFFFFF58
:104C8C00FFFFFFFFFFFFFFFFFFFFFFFFFFFFFFFF28
:104C9C00FFFFFFFF0000FFFFFFFFFFFFFFFFFFFF16
:104CAC00FFFFFFFFFFFFFFFFFFFFFFFFFFFFFFFF08
:104CBC00FFFFFFFFFFFFFFFFFFFFFFFFFFFFFFFFF8
:104CCC00FFFFDFFFFFFFDFFF7DEF59CE718CAA5294
:104CDC000842E739C739A631652945292421C3186B
:104CEC00C318E318E318C318E318C31804214529A3
:104CFC00452965298631C739E73908428A523084FB
:104D0C0018C67DEFFFFFDFFFFFFFFFFFFFFFFFFF79
:104D1C00FFFFFFFFFFFFFFFFFFFFFFFFFFFFFFFF97
:104D2C00FFFFFFFFFFFFFFFFFFFFFFFFFFFFFFFF87
:104D3C00FFFFFFFFFFFF0000FFFFFFFFFFFFFFFF75
:104D4C00FFFFFFFFFFFFFFFFFFFFFFFFFFFFFFFF67
:104D5C00FFFFFFFFFFFFFFFFFFFFDFFFDFFFDFFFB7
:104D6C00BEF7FFFFFFFF5DEF55AD4D6BE739C73960
:104D7C00C73986312421E318C318C318C318E318A4
:104D8C00E318E318C318E318E318E318C318E3187F
:104D9C00C318A210C318E318E31804216529C739F6
:104DAC00084228422C63F39C5DEFFFFFFFFFBEF728
:104DBC00FFFFFFFFFFFFFFFFFFFFFFFFFFFFFFFFF7
:104DCC00FFFFFFFFFFFFFFFFFFFFFFFFFFFFFFFFE7
:104DDC00FFFFFFFFFFFFFFFF0000FFFFFFFFFFFFD5
:104DEC00FFFFFFFFFFFFFFFFFFFFFFFFFFFFFFFFC7
:104DFC00FFFFFFFFFFFFFFFFFFFFDFFFFFFFFFFFD7
:104E0C00FFFFFFFF1CE7D39CEB5A2842C7398631C2
:104E1C002421C318C318E318042104210421E31826
:104E2C00C318E3180421E318E318C318E31804218A
:104E3C0024210421E3180421E318E3180421C318E6
:104E4C00A21004216529C739494ACB5A92941CE710
:104E5C00FFFFFFFFDFFFFFFFFFFFFFFFFFFFFFFF76
:104E6C00FFFFFFFFFFFFFFFFFFFFFFFFFFFFFFFF46
:104E7C00FFFFFFFFFFFFFFFFFFFF0000FFFFFFFF34
:104E8C00FFFFFFFFFFFFFFFFFFFFFFFFFFFFFFFF26
:104E9C00FFFFFFFFFFFFFFFFFFFFFFFFFFFFDFFF36
:104EAC00FFFFBEF755ADEB5A0842C7396529E31829
:104EBC00A210C318E318E318E318E318C31804216D
:104ECC000421E31804210421E318C318E318042176
:104EDC00E318E318E318E3182421E318E318E318A4
:104EEC00C318E3180421E318E3182421E739084216
:104EFC008A52F39CBEF7FFFF9EF7FFFFFFFFFFFFF9
:104F0C00FFFFFFFFFFFFFFFFFFFFFFFFFFFFFFFFA5
:104F1C00FFFFFFFFFFFFFFFFFFFFFFFF0000FFFF93
:104F2C00FFFFFFFFFFFFFFFFFFFFFFFFFFFFFFFF85
:104F3C00FFFFFFFFFFFFFFFFFFFFFFFFFFFFFFFF75
:104F4C00FFFF9AD6AE730842E7398631A210A21041
:104F5C0004212421E318E31824210421E318E31885
:104F6C0004210421E318E318E318E318E318C31829
:104F7C00E318E318E318042104210421E318C318EF
:104F8C0024214529E318C318E3180421E318E31876
:104F9C006529E73928424D6B38C6FFFFFFFFFFFF3D
:104FAC00FFFFFFFFFFFFFFFFFFFFFFFFFFFFFFFF05
:104FBC00FFFFFFFFFFFFFFFFFFFFFFFFFFFF0000F3
:104FCC00FFFFFFFFFFFFFFFFFFFFFFFFFFFFFFFFE5
:104FDC00FFFFFFFFFFFFFFFFFFFFFFFFFFFFFFFFD5
:104FEC00DFFFF39CAA5208428631E318A210042179
:104FFC00C318E318E31804210421C318C31824218F
:10500C000421E3180421042104210421E318C3180A
:10501C00C3180421E31804210421E31804210421FA
:10502C002421E318E318E318E318E318E318E31852
:10503C002421C318E318A6310842694A9294BEF79A
:10504C00FFFFFFFFFFFFFFFFFFFFFFFFFFFFFFFF64
:10505C00FFFFFFFFFFFFFFFFFFFFFFFFFFFFFFFF54
:10506C000000FFFFFFFFFFFFFFFFFFFFFFFFFFFF42
:10507C00FFFFDFFFFFFFFFFFFFFFFFFFFFFFFFFF54
:10508C007DEFEF7B694A08420421C318E3180842FC
:10509C00494A284208428210E31804212421C318EB
:1050AC002421042104210421042104210421E318D6
:1050BC00E318C318E318042104210421042104215A
:1050CC0004210421C3180421242104210421E31800
:1050DC0004210421E318C318E318E318E739694ADB
:1050EC00AE73FBDEFFFFFFFFFFFFFFFFFFFFFFFFC6
:1050FC00DFFFFFFFFFFFFFFFFFFFFFFFFFFFFFFFD4
:10510C00FFFF0000FFFFFFFFFFFFFFFFFFFFFFFFA1
:10511C00FFFFFFFFFFFFFFFFFFFFDFFFFFFFFFFFB3
:10512C00FBDE2C638A52A631C318C318E7398E7381
:10513C00D39C518CD39C9294694A8210C318E31867
:10514C00042104210421042104210421042104212B
:10515C00E318E318C318E3180421042104210421E3
:10516C0004210421E3182421C318E3182421E31893
:10517C004529E318A210E31824212421C318E318AD
:10518C0086318A520C6379CEFFFFFFFFFFFFFFFFD2
:10519C00FFFFFFFFFFFFFFFFFFFFFFFFFFFFFFFF13
:1051AC00FFFFFFFF0000FFFFFFFFFFFFFFFFFFFF01
:1051BC00FFFFFFFFFFFFDFFFFFFFDFFFFFFFFFFF33
:1051CC0059CECB5A8A522421E31824212842EB5A77
:1051DC0028424D6B8A528A528E73494A8E7324210F
:1051EC0004214529E318042104210421042104216C
:1051FC0004210421E318C318E31804210421042119
:10520C00042104210421042104212421E318E73979
:10521C004D6BEB5A6D6B694AA2100421C318242103
:10522C00E3180421E318694AAA5218C6FFFFFFFFCE
:10523C00DFFFFFFFDFFFFFFFFFFFFFFFFFFFFFFFB2
:10524C00FFFFFFFFFFFF0000FFFFFFFFFFFFFFFF60
:10525C00FFFFFFFFFFFFFFFFFFFFFFFFDFFFFFFF72
:10526C0038C6EB5A694A242104212421A2104D6B23
:10527C00AA522421CB5AAA52EB5A28422421EF7B62
:10528C00042104210421242104212421242104218A
:10529C00042124210421E318E318042124210421EE
:1052AC0004210421042104212421C318A210284222
:1052BC00EF7BCB5AAA52CB5A2C63694AE318C3181A
:1052CC00C3180421E31824212421694AAA5296B553
:1052DC00FFFFFFFFFFFFFFFFFFFFFFFFFFFFFFFFD2
:1052EC00FFFFFFFFFFFFFFFF0000FFFFFFFFFFFFC0
:1052FC00FFFFFFFFFFFFFFFFFFFFDFFFFFFFFFFFD2
:10530C0018C6EB5A694A0421E31804212421C31856
:10531C00A2102C63EB5AC739494AC7392842CF7BB4
:10532C006529C3180421E3182421042124212421F4
:10533C002421242124210421E318E318042124210D
:10534C00042104210421042104210421E3182C63E9
:10535C004D6B86318E73AA528A52AE732C632C63BA
:10536C008A526529E318E318E318E3180421494A23
:10537C00CB5A96B5FFFFDFFFFFFFFFFFFFFFFFFFDD
:10538C00FFFFFFFFFFFFFFFFFFFF0000FFFFFFFF1F
:10539C00FFFFFFFFFFFFFFFFFFFFFFFFFFFF9EF77A
:1053AC00FBDE4D6B494AE3182421242124210421DE
:1053BC0045296529E318AA52CF7BAA526D6BAE73AF
:1053CC0065292421042124212421042104210421E0
:1053DC0004210421042104210421E318C318E31837
:1053EC00042104210421042124210421E318AA52BC
:1053FC000C63E318C3186108A6314D6BCB5AA2108D
:10540C006529AA528E73E3186529E3182421E31841
:10541C000421694A2C6318C6FFFFFFFFFFFFFFFF43
:10542C00FFFFFFFFFFFFFFFFFFFFFFFF0000FFFF7E
:10543C00FFFFFFFFFFFFFFFFFFFFFFFFFFFFFFFF70
:10544C001CE76D6B8A52E3186529E318E3180421F5
:10545C004529C318A210E318E3184529C318E3180B
:10546C00C318A2102421C318C318E318452904211A
:10547C00042104210421042104210421E318C3186C
:10548C00E318042104210421042104210421C3185C
:10549C000C63EF7BE318494A6D6B6D6B518CAE73EB
:1054AC00EB5AE318EB5A108404210421E318E31897
:1054BC00E31824214529694ACB5A3CE7DFFFFFFF5B
:1054CC00FFFFFFFFFFFFFFFFFFFFFFFFFFFF0000DE
:1054DC00FFFFFFFFFFFFFFFFFFFFFFFFFFFFFFFFD0
:1054EC00BEF710848A524529242104212421042149
:1054FC000421042104218A52CB5A2842494A694A80
:10550C00694A8A52CB5ACB5A4529042104210421D9
:10551C0004212421242124212421242104210321B8
:10552C000319042124212421042104210421042110
:10553C002421C318494ACF7B4D6B86312421242169
:10554C004529AA52CF7BEB5A042124210421242182
:10555C00242104212421C3184529EB5A4D6B9EF7B5
:10556C00FFFFFFFFFFFFFFFFFFFFFFFFFFFFFFFF3F
:10557C000000FFFFFFFFFFFFFFFFFFFFDFFFDFFF6D
:10558C00FFFFF39CEB5A65290421042104212421FB
:10559C00042104212421E418E839AB52108492949C
:1055AC004D6BEC5AF49CCF7BAF73494AE318042142
:1055BC00252145292521E318A210A210811060088D
:1055CC004000600860088110A210A218E318252181
:1055DC0045212521042104212521E418042104213D
:1055EC00E418E318042124210421E31804210421E4
:1055FC000421E31824212421242104216529CB5AD8
:10560C00718CFFFFBEF7FFFFFFFFFFFFFFFFDFFF08
:10561C00FFFF0000FFFFFFFFFFFFFFFFFFFFFFFF8C
:10562C00FFFF59CE4D6BE7390421042104210421DD
:10563C0024212421452924210421C73908428A52D6
:10564C00EC5A8A520C63CB5A8A52C739E739042177
:10565C00E3180421821082106210C31844296529B2
:10566C00A531E639C639A53165292429C31882101C
:10567C008210821004210421042124214529252192
:10568C00242145292421242104210421042124211D
:10569C00242104214529042104212421042104214D
:1056AC00E7390C63D7BDFFFFDFFFFFFFDFFFFFFF15
:1056BC00FFFFDFFF0000FFFFDFFFFFFFFFFFBEF775
:1056CC00FFFFBEF7AE730842452904212421242193
:1056DC0004212421242145290421042145290421C4
:1056EC00E41804212521042125212521E318242156
:1056FC0004214108C3106529C7390842294A294A9F
:10570C00084208420842E839084228420842084A3E
:10571C00294AE739452182106208E418E418E31895
:10572C00E4184529042124212421042104212421C5
:10573C00242124212421452924212421242104212C
:10574C00E318452908424D6B7DEFDFFFBEF7FFFFE5
:10575C00FFFFDFFFFFFF0000DFFFFFFFFFFFFFFF8B
:10576C00FFFFFFFFF39CAA52863124210421242140
:10577C0024212421242124212521242145292521CA
:10578C002521252104212521242124214529C31843
:10579C006208C318C739294228422842E841A74168
:1057AC00C841E839C839E841E841E841E841C8391D
:1057BC00A739E84129422842494AA731C318821027
:1057CC0024214529252125210421042124212421BA
:1057DC002421242124212421042145294529242163
:1057EC0024212421452965298A52518CFFFFFFFF72
:1057FC00DFFFFFFFFFFFFFFF0000FFFFFFFFFFFFCB
:10580C00BEF7BEF7DBDE65292421242124212421C7
:10581C00242124212421242124210421042145296B
:10582C000421242145290421242125212421620835
:10583C008210C839494A29428631E739C731A7391C
:10584C00E841E841A7398739C841C8418739A739A8
:10585C00E841E841A739C731073A084208422942D2
:10586C00C7398210620804214529042124212421EE
:10587C004529242124212421452925214529242178
:10588C000421452945290421E318E318242138C6AD
:10589C00FFFFDFFFFFFFFFFFFFFF0000FFFFBEF773
:1058AC00FFFFFFFFFFFFB294E739E318C318042191
:1058BC002421452924212421242124216529452919
:1058CC0065292421452945290421252104218210FB
:1058DC002521294A2942A739A7392942C731083A33
:1058EC00E841C739C841E841E849E849E849C841B5
:1058FC00E841C841C739C739E739E739C731A6315B
:10590C00C7398A52494A452982100421452945291B
:10591C0024212421242145294529452945292521AE
:10592C002421242145290421C318E318E318E7395D
:10593C00718CDFFFFFFFFFFFDFFFFFFF0000FFFFAA
:10594C00FFFFDFFFDFFF1CE7AA52E7390421E31852
:10595C000421042104212421242124212421242173
:10596C00042145290421452945294529242162087A
:10597C0086318A52A731E839A739C739A731E739B7
:10598C000842C739A631C639A641644123392339A7
:10599C006441A641A639A631C73908420842E73905
:1059AC00E839C7398631C739694AC73941080421F2
:1059BC002521452924212421452945292421252136
:1059CC004529452925210421C318E31845294529D2
:1059DC00C739EB5A59CEDFFFDFFFFFFFFFFF000097
:1059EC00FFFFDFFFFFFFFFFF9294494A2421652947
:1059FC0024210421A210A2100421242124212421D9
:105A0C0024214529452904214529452924216208B9
:105A1C00C839494AA739E8418731E841C739C739FC
:105A2C00C739A631C731073AA5414341466ACC9BD9
:105A3C00CC9B666A64418539E739C731A639C739C9
:105A4C00C839C739E839C739E739C7390842084274
:105A5C0082100421452925210421242124212421DB
:105A6C00452945292421C318C318E31804214529C5
:105A7C00242124210842518CFFFFFFFFDFFFFFFF91
:105A8C000000FFFFFFFFFFFF5DEF2C638631452910
:105A9C0004214529252145296629A310A210252179
:105AAC006529242165292421452904212521610802
:105ABC00A731494AE839A731A731C839C839C7399C
:105ACC00C739A7418639C631063A43414672CED40E
