:020000040800F2
:1000000000800120191E0008691E0008691E0008F2
:10001000691E0008691E0008691E00080000000033
:10002000000000000000000000000000691E000841
:10003000691E000800000000691E0008B5150008D0
:1000400000000000691E0008691E0008691E000803
:10005000691E0008691E0008610A0008850A000878
:10006000691E0008691E0008691E000800000000E3
:100070000000000000000000000000000000000080
:100080000000000000000000691E000800000000E1
:10009000000000000000000000000000691E0008D1
:1000A000691E0008691E0008691E0008691E000814
:1000B000691E0008691E0008691E0008691E000804
:1000C000691E0008691E0008691E0008F91400086E
:1000D000691E0008691E0008691E00080000000073
:1000E000691E0008691E0008691E00080000000063
:1000F0000000000000000000000000000000000000
:1001000000000000691E0008691E0008691E000842
:1001100000000000000000000000000000000000DF
:1001200000000000000000000000000000000000CF
:1001300000000000000000000000000000000000BF
:10014000000000000000000000000000691E000820
:10015000000000000000000000000000691E000810
:10016000691E0008691E0008000000000000000071
:10017000000000000000000000000000000000007F
:1001800000000000691E00080000000000000000E0
:04019000691E0008DC
:1001940010B5054C237833B9044B13B10448AFF3BD
:1001A40000800123237010BD08000020000000001F
:1001B400B41E000808B5034B1BB103490348AFF351
:1001C400008008BD000000000C000020B41E0008E0
:1001D40080B485B000AF0346FB800023FB8100237D
:1001E400BB810023FB8112E00023BB8104E0BB89B7
:1001F4009BB201339BB2BB81BB899BB240F66B427D
:100204009342F4D9FB899BB201339BB2FB81FB89F6
:100214009BB2FA889A42E7D800BF00BF1437BD46A4
:100224005DF8047B704780B500AF0421002001F025
:100234005DF80421002001F059F801220021042076
:1002440000F030FC01220121042000F02BFC0122EB
:100254000221042000F026FC01220321042000F0E6
:1002640021FC00220021042000F094FC0022012142
:10027400042000F08FFC00220221042000F08AFCFC
:1002840000220321042000F085FC00220021042028
:1002940000F0F2FC00220121042000F0EDFC002219
:1002A4000221042000F0E8FC00220321042000F0D5
:1002B400E3FC01220021042000F03AFE0122012186
:1002C400042000F035FE01220221042000F030FE5B
:1002D40001220321042000F02BFE0022042104202B
:1002E40000F0E0FB00220521042000F0DBFB0022EB
:1002F4000621042000F0D6FB00220721042000F090
:10030400D1FB01220421042000F02EFD012205214D
:10031400042000F029FD01220621042000F024FD20
:1003240001220721042000F01FFD00BF80BD000052
:1003340090B587B000AF2D4B3C1D0FCB84E80F0068
:100344000123FB750523BB7500237B7501233B75D6
:100354000023FB7541E0FB7D00221946042000F0D8
:10036400E7FD0423BB752CE0BB7D1946042000F097
:1003740073FD03463B753B7D002B1FD13220FFF7F5
:1003840027FFBB7D1946042000F066FD03463B753C
:100394003B7D002B12D100BFBB7D1946042000F029
:1003A4005BFD0346002BF7D0FA7DBB7D043B920036
:1003B40018323A441344143B1B787B75BB7D0133DC
:1003C400BB75BB7D072BCFD9FB7D012219460420C9
:1003D40000F0AEFDFB7D0133FB75FB7D032BBAD929
:1003E4007B7D18461C37BD4690BD00BFCC1E00085F
:1003F40080B500AF0321002000F078FF01220A211C
:10040400032000F04FFB01220921032000F04AFBE6
:1004140001220821032000F045FB00220A210320C9
:1004240000F02AFC00220921032000F025FC002210
:100434000821032000F020FC00220A21032000F000
:10044400A9FB00220921032000F0A4FB00220821BB
:10045400032000F09FFB01220021032000F022FB77
:1004640001220121032000F01DFB012202210320AF
:1004740000F018FB01220321032000F013FB0022EB
:100484000021032000F0F8FB00220121032000F0EA
:10049400F3FB00220221032000F0EEFB00220321E3
:1004A400032000F0E9FB00220021032000F072FB8E
:1004B40000220121032000F06DFB00220221032011
:1004C40000F068FB00220321032000F063FB0122FB
:1004D4000421032000F0E6FA01220521032000F0A4
:1004E400E1FA01220621032000F0DCFA01220721AF
:1004F400032000F0D7FA00220421032000F0BCFB03
:1005040000220521032000F0B7FB0022062103206E
:1005140000F0B2FB00220721032000F0ADFB002213
:100524000421032000F036FB00220521032000F003
:1005340031FB00220621032000F02CFB00220721BE
:10054400032000F027FB3220FFF742FE382000F0A2
:100554001DF80520FFF73CFE0C2000F017F80120E1
:10056400FFF736FE012000F011F80120FFF730FEFE
:10057400022000F00BF80120FFF72AFE062000F00D
:1005840005F80120FFF724FE00BF80BD80B582B0CE
:1005940000AF0346FB7100220A21032000F0C8FCCF
:1005A40000220921032000F0C3FCFB7903F00103BE
:1005B400DBB21A460021032000F0BAFCFB795B0889
:1005C400DBB203F00103DBB21A460121032000F081
:1005D400AFFCFB799B08DBB203F00103DBB21A46E4
:1005E4000221032000F0A4FCFB79DB08DBB203F05A
:1005F4000103DBB21A460321032000F099FCFB79C6
:100604001B09DBB203F00103DBB21A460421032009
:1006140000F08EFCFB795B09DBB203F00103DBB273
:100624001A460521032000F083FCFB799B09DBB209
:1006340003F00103DBB21A460621032000F078FC24
:10064400FB79DB09DBB21A460721032000F070FCBA
:1006540001220821032000F06BFC0520FFF7B8FD00
:1006640000220821032000F063FC0220FFF7B0FD04
:1006740000BF0837BD4680BD80B500AF0120FFF73D
:1006840085FF00BF80BD000080B584B000AF034685
:100694000A46FB711346BB71084BFB60FB791033B0
:1006A4003B4413F8042CBB791344DBB21846FFF720
:1006B4006DFF00BF1037BD4680BD00BF80C090D025
:1006C40080B582B000AF0346FB7101220A210320EA
:1006D40000F02EFC00220921032000F029FCFB7904
:1006E40003F00103DBB21A460021032000F020FCD2
:1006F400FB795B08DBB203F00103DBB21A4601218C
:10070400032000F015FCFB799B08DBB203F0010326
:10071400DBB21A460221032000F00AFCFB79DB0855
:10072400DBB203F00103DBB21A460321032000F01D
:10073400FFFBFB791B09DBB203F00103DBB21A46B2
:100744000421032000F0F4FBFB795B09DBB203F026
:100754000103DBB21A460521032000F0E9FBFB7913
:100764009B09DBB203F00103DBB21A460621032026
:1007740000F0DEFBFB79DB09DBB21A46072103201C
:1007840000F0D6FB01220821032000F0D1FB052054
:10079400FFF71EFD00220821032000F0C9FB022000
:1007A400FFF716FD00BF0837BD4680BD80B584B095
:1007B40000AF78600023FB7309E0FB7B7A68134485
:1007C4001B781846FFF77CFFFB7B0133FB73FB7B35
:1007D4007A6813441B78002BEFD100BF00BF103799
:1007E400BD4680BD80B582B000AF0346FB710022D8
:1007F4000121002000F09CFBFB799BB2184600F01D
:1008040053FE00BF0837BD4680BD80B582B000AF3F
:100814000346FB8001220121002000F089FBFB88B4
:10082400184600F041FE00BF0837BD4680BD0000F9
:1008340080B500AF01220121002000F033F900222D
:100844000121002000F0A6F900220121002000F07F
:1008540013FA01220221002000F024F900220221CF
:10086400002000F097F900220221002000F004FA91
:1008740002220521002000F015F90522052100209F
:1008840000F02AFC00220521002000F083F9012257
:100894000521002000F0F0F902220721002000F0D9
:1008A40001F905220721002000F016FC002207218F
:1008B400002000F06FF901220721002000F0DCF98C
:1008C40001220221002000F033FB642000F044FEEA
:1008D40000220221002000F02BFB012000F03CFE4E
:1008E40001220221002000F023FB642000F034FEEA
:1008F40000220221002000F01BFB642000F02CFEEB
:1009040001220221002000F013FB0A4800F024FE1B
:100914001120FFF767FF084800F01EFE3A20FFF79A
:1009240061FF0520FFF771FF2920FFF75BFF00BF80
:1009340080BD00BFC0D40100F049020090B583B06F
:1009440000AF0446084611461A462346FB80034678
:10095400BB800B467B8013463B802A20FFF742FF77
:10096400FB881B0A9BB21846FFF74FFFFB88DBB2DC
:100974009BB21846FFF749FF7B881B0A9BB21846B7
:10098400FFF743FF7B88DBB29BB21846FFF73DFFBE
:100994002B20FFF727FFBB881B0A9BB21846FFF7E3
:1009A40034FFBB88DBB29BB21846FFF72EFF3B88AF
:1009B4001B0A9BB21846FFF728FF3B88DBB29BB2A9
:1009C4001846FFF722FF00BF0C37BD4690BD90B517
:1009D40085B000AF0446084611461A462346FB80FC
:1009E4000346BB800B467B8013463B800023FB60A1
:1009F400BA88FB88D31A39887A888A1A02FB03F3E7
:100A0400BB603B88BA887988F888FFF797FF2C2069
:100A1400FFF7E8FE0023FB6016E0FB685B003A6A20
:100A240013441B881B0A9BB21846FFF7EEFEFB68B3
:100A34005B003A6A13441B88DBB29BB21846FFF78B
:100A4400E4FEFB680133FB60BB680533FA689A4235
:100A5400E3D300BF00BF1437BD4690BD80B500AFDF
:100A6400054B5B69044A43F001035361034B1B6864
:100A7400984700BF80BD00BF003C01402400002017
:100A840080B500AF054B5B69044A43F00103536131
:100A9400034B1B68984700BF80BD00BF003C01406A
:100AA4002800002080B483B000AF0346FB710B46DE
:100AB400BB7113467B71FB79052B57D801A252F801
:100AC40023F000BFE10A0008F90A0008110B00082E
:100AD400290B0008410B0008590B0008274B1B6821
:100AE4007979BA79520001FA02F21146234A0B438A
:100AF40013603CE0224B1B687979BA79520001FA01
:100B040002F211461E4A0B43136030E01D4B1B6872
:100B14007979BA79520001FA02F21146194A0B4363
:100B2400136024E0184B1B687979BA79520001FAF2
:100B340002F21146144A0B43136018E0134B1B686E
:100B44007979BA79520001FA02F211460F4A0B433D
:100B540013600CE00E4B1B687979BA79520001FAE4
:100B640002F211460A4A0B43136000E000BF00BFC3
:100B74000C37BD465DF8047B704700BF000002409F
:100B84000004024000080240000C02400010024031
:100B9400001C024080B483B000AF0346FB710B46D7
:100BA400BB7113467B71FB79052B51D801A252F816
:100BB40023F000BFD10B0008E70B0008FD0B000871
:100BC400130C0008290C00083F0C0008244B5B6838
:100BD4007979BA7901FA02F21146214A0B4353603A
:100BE40037E0204B5B687979BA7901FA02F2114651
:100BF4001C4A0B4353602CE01B4B5B687979BA7930
:100C040001FA02F21146184A0B43536021E0174BD4
:100C14005B687979BA7901FA02F21146134A0B43F7
:100C2400536016E0124B5B687979BA7901FA02F2E3
:100C340011460F4A0B4353600BE00E4B5B68797906
:100C4400BA7901FA02F211460A4A0B43536000E0F2
:100C540000BF00BF0C37BD465DF8047B704700BF82
:100C6400000002400004024000080240000C024060
:100C740000100240001C024080B483B000AF034661
:100C8400FB710B46BB7113467B71FB79052B57D85F
:100C940001A252F823F000BFB50C0008CD0C0008E7
:100CA400E50C0008FD0C0008150D00082D0D0008CA
:100CB400274B9B687979BA79520001FA02F21146FE
:100CC400234A0B4393603CE0224B9B687979BA79C1
:100CD400520001FA02F211461E4A0B43936030E0BF
:100CE4001D4B9B687979BA79520001FA02F21146D8
:100CF400194A0B43936024E0184B9B687979BA79BD
:100D0400520001FA02F21146144A0B43936018E0B0
:100D1400134B9B687979BA79520001FA02F21146B1
:100D24000F4A0B4393600CE00E4B9B687979BA79B8
:100D3400520001FA02F211460A4A0B43936000E0A2
:100D440000BF00BF0C37BD465DF8047B704700BF91
:100D5400000002400004024000080240000C02406F
:100D640000100240001C024080B483B000AF034670
:100D7400FB710B46BB7113467B71FB79052B57D86E
:100D840001A252F823F000BFA50D0008BD0D000814
:100D9400D50D0008ED0D0008050E00081D0E000815
:100DA400274BDB687979BA79520001FA02F21146CD
:100DB400234A0B43D3603CE0224BDB687979BA7950
:100DC400520001FA02F211461E4A0B43D36030E08E
:100DD4001D4BDB687979BA79520001FA02F21146A7
:100DE400194A0B43D36024E0184BDB687979BA794C
:100DF400520001FA02F21146144A0B43D36018E080
:100E0400134BDB687979BA79520001FA02F2114680
:100E14000F4A0B43D3600CE00E4BDB687979BA7947
:100E2400520001FA02F211460A4A0B43D36000E071
:100E340000BF00BF0C37BD465DF8047B704700BFA0
:100E4400000002400004024000080240000C02407E
:100E540000100240001C024080B485B000AF03467D
:100E64000A46FB711346BB710023FB73FB79052B08
:100E74004AD801A252F823F0950E0008A90E0008E2
:100E8400BD0E0008D10E0008E50E0008F90E00089A
:100E9400214B1A69BB7922FA03F3DBB203F0010395
:100EA400FB7332E01D4B1A69BB7922FA03F3DBB200
:100EB40003F00103FB7328E0194B1A69BB7922FA8A
:100EC40003F3DBB203F00103FB731EE0154B1A6955
:100ED400BB7922FA03F3DBB203F00103FB7314E0E2
:100EE400114B1A69BB7922FA03F3DBB203F0010355
:100EF400FB730AE00D4B1A69BB7922FA03F3DBB2E8
:100F040003F00103FB7300E000BFFB7B18461437BA
:100F1400BD465DF8047B70470000024000040240B7
:100F240000080240000C024000100240001C024075
:100F340080B483B000AF0346FB710B46BB7113460C
:100F44007B717B79002B02D0012B5DD0B2E0FB7961
:100F5400052B57D801A252F823F000BF790F0008DF
:100F6400910F0008A90F0008C10F0008D90F00084D
:100F7400F10F0008524B5B69BA79012101FA02F2C0
:100F8400D24311464E4A0B4053613CE04D4B5B69E2
:100F9400BA79012101FA02F2D2431146494A0B40BF
:100FA400536130E0484B5B69BA79012101FA02F2DE
:100FB400D2431146444A0B40536124E0434B5B69DE
:100FC400BA79012101FA02F2D24311463F4A0B4099
:100FD400536118E03E4B5B69BA79012101FA02F2D0
:100FE400D24311463A4A0B4053610CE0394B5B69DA
:100FF400BA79012101FA02F2D2431146354A0B4073
:10100400536100E000BF55E0FB79052B50D801A2E5
:1010140052F823F031100008471000085D10000852
:1010240073100008891000089F100008244B5B69A6
:10103400BA79012101FA02F21146214A0B435361A4
:1010440037E0204B5B69BA79012101FA02F21146BB
:101054001C4A0B4353612CE01B4B5B69BA79012199
:1010640001FA02F21146184A0B43536121E0174B6F
:101074005B69BA79012101FA02F21146134A0B4362
:10108400536116E0124B5B69BA79012101FA02F24D
:1010940011460F4A0B4353610BE00E4B5B69BA795F
:1010A400012101FA02F211460A4A0B43536100E09E
:1010B40000BF00BF00BF0C37BD465DF8047B70471E
:1010C400000002400004024000080240000C0240FC
:1010D40000100240001C024080B483B000AF0346FD
:1010E400FB710B46BB7113467B71BB79072B5BD835
:1010F400FB79052B00F2B68001A252F823F000BF61
:101104001D110008351100084D1100086511000873
:101114007D11000895110008574B1B6A7979BA793B
:10112400920001FA02F21146534A0B4313629CE007
:10113400524B1B6A7979BA79920001FA02F211468C
:101144004E4A0B43136290E04D4B1B6A7979BA798E
:10115400920001FA02F21146494A0B43136284E0F9
:10116400484B1B6A7979BA79920001FA02F2114666
:10117400444A0B43136278E0434B1B6A7979BA798A
:10118400920001FA02F211463F4A0B4313626CE0EB
:101194003E4B1B6A7979BA79920001FA02F2114640
:1011A4003A4A0B43136260E0BB7903F00703BB7157
:1011B400FB79052B58D801A252F823F0D911000865
:1011C400F111000809120008211200083912000860
:1011D40051120008284B5B6A7979BA79920001FAB6
:1011E40002F21146244A0B4353623EE0234B5B6AEE
:1011F4007979BA79920001FA02F211461F4A0B4337
:10120400536232E01E4B5B6A7979BA79920001FA33
:1012140002F211461A4A0B43536226E0194B5B6AE9
:101224007979BA79920001FA02F21146154A0B4310
:1012340053621AE0144B5B6A7979BA79920001FA25
:1012440002F21146104A0B4353620EE00F4B5B6AE5
:101254007979BA79920001FA02F211460B4A0B43EA
:10126400536202E000BF00E000BF00BF0C37BD4680
:101274005DF8047B704700BF000002400004024098
:1012840000080240000C024000100240001C024012
:1012940080B400AF144B1B68134A23F0010313609E
:1012A400114B1B68104A23F4803313600E4B1B68E8
:1012B4000D4A23F0807313600B4B9B680A4A23F09A
:1012C40001039360084B9B68074A23F00203936071
:1012D400054B1B68044A43F00103136000BFBD467D
:1012E4005DF8047B704700BF0038024080B483B0CF
:1012F40000AF03460A46FB711346BB71FB79032B0F
:1013040036D801A252F823F01D1300083313000845
:10131400491300085F130008194B1B6BBA790121AC
:1013240001FA02F21146164A0B43136321E0144BEF
:101334005B6BBA79012101FA02F21146104A0B43A0
:10134400536316E00E4B1B6CBA79012101FA02F2C9
:1013540011460B4A0B4313640BE0094B5B6CBA79DF
:10136400012101FA02F21146054A0B43536400E0DD
:1013740000BF00BF0C37BD465DF8047B704700BF5B
:101384000038024080B485B000AF0346FB71FB68AF
:1013940043F00103FB60FB6843F00203FB60FB685E
:1013A40043F00403FB60FB6843F00803FB60FB6845
:1013B4006FF30413FB60FB686FF34513FB60FB687A
:1013C4006FF3C713FB60FB6843F48073FB60FB6837
:1013D40043F40073FB60FB686FF3CB23FB60FB7982
:1013E400013B032B1AD801A252F823F00114000880
:1013F4000914000811140008191400080B4AFB68AA
:1014040013600CE00A4AFB68136008E0094AFB68B1
:10141400136004E0084AFB68136000E000BF00BFEB
:101424001437BD465DF8047B704700BF00300140AF
:1014340000380040003C00400034014080B483B0D8
:1014440000AF0346FB71FB79013B032B22D801A2B9
:1014540052F823F069140008751400088114000878
:101464008D1400080F4A136843F04003136012E020
:101474000C4A136843F0400313600CE0094A1368F4
:1014840043F04003136006E0064A136843F0400348
:10149400136000E000BF00BF0C37BD465DF8047B5D
:1014A400704700BF0030014080B485B000AF0346F0
:1014B400FB800023FB8100BF0D4B9B68DB0903F01D
:1014C4000103002BF8D10A4AFB88D36000BF084B04
:1014D4009B68DB0903F00103002BF8D1044BDB68A4
:1014E400FB81FB8918461437BD465DF8047B7047C1
:1014F4000030014080B500AF024B1B68984700BF25
:1015040080BD00BF2C00002080B483B000AF034630
:10151400FB710F4B00229A60FB79002B02D0012B48
:1015240008D00FE00A4B04221A600A4B4FF47A5297
:101534001A6007E0064B00221A60064B4FF4FA6269
:101544001A6000BF00BF0C37BD465DF8047B7047CE
:1015540010E000E03000002080B483B000AF786079
:10156400114B1B687A6802FB03F3104A013B53607A
:101574000E4B00229A600D4B1B680C4A43F001038A
:10158400136000BF094B1B6803F48033002BF9D0B0
:10159400064B1B68054A23F00103136000BF0C3798
:1015A400BD465DF8047B70473000002010E000E089
:1015B40080B500AF244B1B78DBB2022B1AD0224B30
:1015C4001B78DBB2002B11D1204B1B681F4A23F080
:1015D400010313601D4B00225A601C4B00229A60C9
:1015E4001A4B1B68194A23F002031360184B1B683B
:1015F40098471DE0174B1B680133164A1360154BBF
:101604001A68154B1B689A4203D1114B1B68984703
:101614000EE0114B1A68114B1B681A440D4B1B68E2
:101624009A4205D10A4B1B6898470A4B00221A605C
:10163400064B1B681B0CDBB203F00103DAB2084B48
:101644001A7000BF80BD00BF4000002010E000E021
:101654003C0000204400002034000020380000201A
:101664004100002080B582B002AFFFF711FE0120D7
:10167400FFF74AFF00210020FFF738FE0121002078
:10168400FFF734FE02210020FFF730FE0321002083
:10169400FFF72CFE0C210320FFF728FE0E21032068
:1016A400FFF724FEFEF7BFFDFEF7A2FE0021002097
:1016B400FEF7EAFF0120FFF765FE0120FFF7BEFEFB
:1016C400FFF7B6F83F4B00934FF4A0730022F021CC
:1016D4000020FFF77CF9012207210120FFF7E2F93E
:1016E400012201210120FFF7DDF90122022101205D
:1016F400FFF7D8F9012203210120FFF7D3F90022D3
:1017040007210120FFF7B8FA002201210120FFF789
:10171400B3FA002202210120FFF7AEFA00220321CE
:101724000120FFF7A9FA002207210120FFF732FA6E
:10173400002201210120FFF72DFA002202210120BD
:10174400FFF728FA002203210120FFF723FA0122E0
:1017540004210120FFF7A6F9002204210120FFF74C
:101764008BFA002204210120FFF714FA012205213B
:101774000120FFF797F9012206210120FFF792F9D2
:10178400002205210120FFF777FA0022062101201B
:10179400FFF772FA002205210120FFF7FBF900226E
:1017A40006210120FFF7F6F901210020FEF76CFF66
:1017B4000548FEF7FBFF05210120FEF765FF00F059
:1017C40005F8FCE764200008DC1E000880B500AFC3
:1017D4003F4B50221A700220FEF7FAFCFEF7A8FDD8
:1017E40003461A463A4B1A70394B1B78502B6DD06E
:1017F400374B1B782F2B1DD9354B1B78392B19D818
:1018040000F09FF8324B1B781846FEF759FF304B17
:101814001978304B93F900301A4649B22E4B99543B
:101824002C4B93F90030DBB20133DBB25AB2294BB3
:101834001A704BE0264B1B783D2B47D1FEF71CFF5B
:101844002648FEF7B3FF4FF4FA70FEF7C1FC0121FE
:101854000120FEF719FF00F074F821491E4800F03A
:1018640047F80346012B09D11E48FEF79FFF4FF4AA
:10187400FA70FEF7ADFC00F075F827E003210120B3
:10188400FEF702FF1848FEF791FF00210120FEF742
:10189400FBFE4FF4FA70FEF79BFC1448FEF786FF3C
:1018A40005210220FEF7F0FE0A4B00221A700A4BB3
:1018B40000221A70084B00225A70074B00229A70BB
:1018C400054B0022DA70044B00221A7100BF80BD60
:1018D40048000020490000204C000020EC1E0008B5
:1018E40000000020F01E0008001F00080C1F000864
:1018F40080B582B000AF7860396013E00520FEF750
:1019040067FC7B6893F900203B6893F900309A42A6
:1019140006D17B6801337B603B6801333B6001E0A7
:1019240000230AE07B6893F90030002BE6D13B6882
:1019340093F90030002BE1D1012318460837BD4646
:1019440080BD80B500AF012204210120FFF7F0FA29
:101954006420FEF73DFC002204210120FFF7E8FA91
:1019640000BF80BD80B500AFFEF786FE02210120D6
:10197400FEF78AFEC448FEF719FF4FF4FA70FEF72B
:1019840027FCFEF779FEC148FEF710FFC04B50223A
:101994001A70FEF7CDFC03461A46BD4B1A70BC4BB9
:1019A4001B78502BF2D0BA4B1B78372B0CD0B84B8A
:1019B4001B78382B08D0B64B1B78392B04D0B44B8A
:1019C4001B782F2B40F0EC80B14B1B782F3B0A2B5C
:1019D40000F2E88001A252F823F000BF571B000870
:1019E400A91B0008A91B0008A91B0008A91B0008C3
:1019F400A91B0008A91B0008A91B00080D1A000850
:101A04008B1A0008091B0008A24B1B7883F0010302
:101A1400DAB2A04B1A7000210020FEF735FE9B4875
:101A2400FEF7C4FE0F210020FEF72EFE984B1B7814
:101A34001846FEF745FE2020FEF742FE0021012055
:101A4400FEF722FE934B1B78002B08D19248FEF739
:101A5400ADFE002207210120FFF76AFA0BE08D4B4F
:101A64001B78012B07D18D48FEF7A0FE0122072128
:101A74000120FFF75DFA00210220FEF705FE8848E9
:101A8400FEF794FE8FE0874B1B7883F00103DAB2F4
:101A9400844B1A7000210020FEF7F6FD7B48FEF708
:101AA40085FE0F210020FEF7EFFD794B1B781846C9
:101AB400FEF706FE2020FEF703FE00210120FEF7BC
:101AC400E3FD784B1B78002B08D17748FEF76EFEB8
:101AD400002201210120FFF72BFA0BE0714B1B7848
:101AE400012B07D17148FEF761FE0122012101207B
:101AF400FFF71EFA00210220FEF7C6FD6848FEF734
:101B040055FE50E000210020FEF7BEFD5F48FEF7C1
:101B14004DFE0F210020FEF7B7FD5D4B1B781846E4
:101B2400FEF7CEFD2020FEF7CBFD00210120FEF7BD
:101B3400ABFD5F48FEF73AFE00210220FEF7A4FD4C
:101B44005748FEF733FE012202210120FFF7F0F986
:101B540029E000210020FEF797FD4C48FEF726FE01
:101B64000F210020FEF790FD494B1B781846FEF725
:101B7400A7FD2020FEF7A4FD00210120FEF784FD2F
:101B84004C48FEF713FE00210220FEF77DFD444879
:101B9400FEF70CFE012203210120FFF7C9F902E040
:101BA40000BF00E000BF3A4B1B78342B08D0384B01
:101BB4001B78352B04D0364B1B78362B40F0AC8089
:101BC400334B1B78362B7BD0362B00F3A780342B7A
:101BD40002D0352B2CD0A1E000210020FEF754FDCB
:101BE4002A48FEF7E3FD0F210020FEF74DFD284BA8
:101BF4001B781846FEF764FD2020FEF761FD0021E6
:101C04000120FEF741FD2C48FEF7D0FD0021022003
:101C1400FEF73AFD2248FEF7C9FD00220521012006
:101C2400FFF786F9012206210120FFF781F976E00A
:101C340000210020FEF728FD1448FEF7B7FD0F2110
:101C44000020FEF721FD124B1B781846FEF738FDE5
:101C54002020FEF735FD00210120FEF715FD174871
:101C6400FEF7A4FD00210220FEF70EFD0C48FEF74E
:101C74009DFD002205210120FFF75AF900220621CB
:101C84000120FFF755F94AE01C1F00082C1F00082B
:101C940048000020510000203C1F0008541F000889
:101CA4006C1F000852000020881F0008A01F0008B5
:101CB400B81F0008C81F0008D81F0008F01F00083C
:101CC40000210020FEF7E0FC4948FEF76FFD0F21DC
:101CD4000020FEF7D9FC474B1B781846FEF7F0FCB2
:101CE4002020FEF7EDFC00210120FEF7CDFC424848
:101CF400FEF75CFD00210220FEF7C6FC3F48FEF71C
:101D040055FD012205210120FFF712F900220621C9
:101D14000120FFF70DF902E000BF00E000BF354BE2
:101D24001B78312B03D0334B1B78322B5DD1314BD5
:101D34001B78312B02D0322B35D057E0304B1B7837
:101D440083F00103DAB22E4B1A7000210020FEF753
:101D54009BFC2748FEF72AFD0F210020FEF794FC88
:101D6400244B1B781846FEF7ABFC2020FEF7A8FC9A
:101D740000210120FEF788FC214B1B78002B03D1A6
:101D84002048FEF713FD06E01D4B1B78012B02D102
:101D94001D48FEF70BFD00210220FEF775FC1748D5
:101DA400FEF704FD22E000210020FEF76DFC104840
:101DB400FEF7FCFC0F210020FEF766FC0D4B1B78A0
:101DC4001846FEF77DFC2020FEF77AFC0021012056
:101DD400FEF75AFC0D48FEF7E9FC00210220FEF74D
:101DE40053FC0B48FEF7E2FC00E000BFCEE500BF69
:101DF4002C1F000848000020082000086C1F000861
:101E04005300002020200008342000084820000847
:101E14005C2000080D488546AFF300800C480D494E
:101E24000D4A002302E0D458C4500433C4188C4231
:101E3400F9D30A4A0A4C002301E013600432A24297
:101E4400FBD300F011F8FFF70DFCFEE70080012042
:101E54000000002008000020EC7A0208080000209E
:101E640054000020FEE7000070B50D4D0D4C641BBE
:101E7400A4100026A64209D10B4D0C4C00F018F812
:101E8400641BA4100026A64205D170BD55F8043B7E
:101E940098470136EEE755F8043B98470136F2E7D8
:101EA400E47A0208E47A0208E47A0208E87A02088A
:101EB400F8B500BFF8BC08BC9E467047F8B500BF33
:081EC400F8BC08BC9E46704703
:101ECC003738392F343536783132332D43303D2B7A
:101EDC00456E7465722050617373776F72643A004B
:101EEC004F4B0000416363657074656420506173EF
:101EFC007300000044656E69656420506173730063
:101F0C0052656E7465722050617373776F726400E2
:101F1C0057656C636F6D6520486F6D650000000040
:101F2C0050726573736564204B65792D3E200000FB
:101F3C004C45442030206973204F464620202020F9
:101F4C0020202020000000004C45442030206973E4
:101F5C00204F4E2020202020202020200000000098
:101F6C002020202020202020202020202020202065
:101F7C002020202020202020202000004C45442020
:101F8C0031206973204F464620202020202020201D
:101F9C00000000004C45442031206973204F4E2036
:101FAC002020202020202020000000004C4544331D
:101FBC002020202020202020202000004C454434CC
:101FCC002020202020202020202000004D6F746F26
:101FDC0072206C656674203C2D202020202020204F
:101FEC00202000004D6F746F722073746F7020206E
:101FFC002020202020202020202000004D6F746FF6
:10200C0072207269676874202D3E202020202020C9
:10201C00202020004143206973204F464620202079
:10202C0020202020200000004143206973204F4EC7
:10203C0020202020202020200000000054656D70FE
:10204C002E20436865636B20202020202020200058
:10205C0054656D70203D20000000FFFFFFFFFFFF67
:10206C00FFFFFFFFFFFFFFFFFFFFFFFFFFFFFFFF74
:10207C00FFFFFFFFFFFFFFFFFFFFFFFFFFFFFFFF64
:10208C00FFFFFFFFFFFFFFFFFFFFFFFFFFFFFFFF54
:10209C00FFFFFFFFFFFFFFFFFFFFFFFFFFFFFFFF44
:1020AC00FFFFFFFFFFFFFFFFFFFFFFFFFFFFFFFF34
:1020BC00FFFFFFFFFFFFFFFFFFFFFFFFFFFFFFFF24
:1020CC00FFFFFFFFFFFFFFFFFFFFFFFFFFFFFFFF14
:1020DC00FFFFFFFFFFFFFFFFFFFFFFFFFFFFFFFF04
:1020EC00FFFFFFFFFFFFFFFFFFFFFFFFFFFFFFFFF4
:1020FC00FFFFFFFFFFFFFFFFFFFFFFFFFFFFFFFFE4
:10210C00FFFFFFFFFFFFFFFFFFFFFFFFFFFFFFFFD3
:10211C00FFFFFFFFFFFFFFFFFFFFFFFFFFFFFFFFC3
:10212C00FFFFFFFFFFFFFFFFFFFFFFFFFFFFFFFFB3
:10213C00FFFFFFFFFFFFFFFFFFFFFFFFFFFFFFFFA3
:10214C00FFFFFFFFFFFFFFFFFFFFFFFFFFFFFFFF93
:10215C00FFFFFFFFFFFFFFFFFFFFFFFFFFFFFFFF83
:10216C00FFFFFFFFFFFFFFFFFFFFFFFFFFFFFFFF73
:10217C00FFFFFFFFFFFFFFFFFFFFFFFFFFFFFFFF63
:10218C00FFFFFFFFFFFFFFFFFFFFFFFFFFFFFFFF53
:10219C00FFFFFFFFFFFFFFFFFFFFFFFFFFFFFEFF44
:1021AC00DEFFFFFFFFFFFFFFFFFFFFFFFFFFFFFF54
:1021BC00FFF77FCFBEA61E7E9C651A55DA4C79447C
:1021CC00583C383459349A44DA4C1B5D7B6DFC8D89
:1021DC009EAE5FCFDFE7FFF7FFFFDFFFDFFFFFFF05
:1021EC00FFFFFFFFFFFFFFFFFFFFFFFFFFFFFEFFF4
:1021FC00FEFFFFFFFFFFFFFFFFFFFFFFFFFFFFFFE4
:10220C00FFFFFFFFFFFFFFFFFFFFFFFFFFFFFFFFD2
:10221C00FFFFFFFFFFFFFFFFFFFFFFFFFFFFFFFFC2
:10222C00FFFFFFFFFFFFFFFFFFFFFFFFFFFFFFFFB2
:10223C00FFFFFFFFFFFFFFFFFFFF0000FFFFFFFFA0
:10224C00FFFFFFFFFFFFFFFFFFFFFFFFFFFFFFFF92
:10225C00FFFFFFFFFFFFFFFFFFFFFFFFFFFFFFFF82
:10226C00FFFFFFFFFFFFFFFFFFFFFFFFFFFFFFFF72
:10227C00FFFFFFFFFFFFFFFFFFFFFFFFFFFFFFFF62
:10228C00FFFFFFFFFFFFFFFFFFFFFFFFFFFFFFFF52
:10229C00FFFFFFFFFFFFFFFFFFFFFFFFFFFFFFFF42
:1022AC00FFFFFFFFFFFFFFFFFFFFFFFFFFFFFFFF32
:1022BC00FFFFFFFFFFFFFFFFFFFFFFFFFFFFFFFF22
:1022CC00FFFFFFFFFFFFFFFFFFFFFFFFFFFFFFFF12
:1022DC00FFFFFFFFFFFFFFFFFFFFFFFFFFFFFFFF02
:1022EC00FFFFFFFFFFFFFFFFFFFFFFFFFFFFFFFFF2
:1022FC00FFFFFFFFFFFFFFFFFFFFFFFFFFFFFFFFE2
:10230C00FFFFFFFFFFFFFFFFFFFFFFFFFFFFFFFFD1
:10231C00FFFFFFFFFFFFFFFFFFFFFFFFFFFFFFFFC1
:10232C00FFFFFFFFFFFFFFFFFFFFFFFFFFFFFFFFB1
:10233C00FFFFFFFFFFFFFFFFFFFFFFFFFFFFFFFFA1
:10234C00FFFFFFFFFFFFFFFFFFFFFFFFFFFFFFFF91
:10235C00FFFFFFFFFFFFFFFFFFFFFFFFFFFFFFFF81
:10236C00FFFFFFFFFFFFFFFFFFFFFFFFFFFFFFFF71
:10237C00FFFFFFFFFFFFFFFFFFFFFFFFFFFFFFFF61
:10238C00FFFFFFFFFFFFFFFFFFFFFFF7DFEF3ED772
:10239C00DDC67CAEFB959B7D7B651B4D9944793CE2
:1023AC0058343834382C382C59347934BA44FA54DB
:1023BC003A659B7DFB957CAEFEBE7FD79FEFFFFF02
:1023CC00FFFFFFFFFFFFFFFFFFFFFFFFFFFFFFFF11
:1023DC00FFFFFFFFFFFFFFFFFFFFFFFFFFFFFFFF01
:1023EC00FFFFFFFFFFFFFFFFFFFFFFFFFFFFFFFFF1
:1023FC00FFFFFFFFFFFFFFFFFFFFFFFFFFFFFFFFE1
:10240C00FFFFFFFFFFFFFFFFFFFFFFFFFFFFFFFFD0
:10241C00FFFFFFFFFFFFFFFFFFFFFFFF0000FFFFBE
:10242C00FFFFFFFFFFFFFFFFFFFFFFFFFFFFFFFFB0
:10243C00FFFFFFFFFFFFFFFFFFFFFFFFFFFFFFFFA0
:10244C00FFFFFFFFFFFFFFFFFFFFFFFFFFFFFFFF90
:10245C00FFFFFFFFFFFFFFFFFFFFFFFFFFFFFFFF80
:10246C00FFFFFFFFFFFFFFFFFFFFFFFFFFFFFFFF70
:10247C00FFFFFFFFFFFFFFFFFFFFFFFFFFFFFFFF60
:10248C00FFFFFFFFFFFFFFFFFFFFFFFFFFFFFFFF50
:10249C00FFFFFFFFFFFFFFFFFFFFFFFFFFFFFFFF40
:1024AC00FFFFFFFFFFFFFFFFFFFFFFFFFFFFFFFF30
:1024BC00FFFFFFFFFFFFFFFFFFFFFFFFFFFFFFFF20
:1024CC00FFFFFFFFFFFFFFFFFFFFFFFFFFFFFFFF10
:1024DC00FFFFFFFFFFFFFFFFFFFFFFFFFFFFFFFF00
:1024EC00FFFFFFFFFFFFFFFFFFFFFFFFFFFFFFFFF0
:1024FC00FFFFFFFFFFFFFFFFFFFFFFFFFFFFFFFFE0
:10250C00FFFFFFFFFFFFFFFFFFFFFFFFFFFFFFFFCF
:10251C00FFFFFFFFFFFFFFFFFFFFFFFFFFFFFFFFBF
:10252C00FFFFFFFFFFFFFFFFFFFFFFFFFFFFFFFFAF
:10253C00FFFFFFFFFFFFFFFFFFFFFFFFFFFFFFFF9F
:10254C00FFFFFFFFFFFFFFFFFFFFFFFFFFFFFFFF8F
:10255C00FFFFFFFFFFFFFFFFFFFFFFFFFFFFDFFF9F
:10256C00FFFFFFFFDFFFFFFFFFFFFFF7FFE7DEB619
:10257C00DB8DB75CF63BB52BD623D7239613B61B56
:10258C00B613B6139613B713B713B713B713D71BEA
:10259C00B61BB61BD623B523F533B84C9B75FFB6CB
:1025AC00BFDFFFF7FFFFFFFFDEFFDFFFDFFFFFFFF8
:1025BC00FFFFFFFFFFFFFFFFFFFFFFFFFFFFFFFF1F
:1025CC00FFFFFFFFFFFFFFFFFFFFFFFFFFFFFFFF0F
:1025DC00FFFFFFFFFFFFFFFFFFFFFFFFFFFFFFFFFF
:1025EC00FFFFFFFFFFFFFFFFFFFFFFFFFFFFFFFFEF
:1025FC00FFFFFFFFFFFFFFFFFFFFFFFFFFFF0000DD
:10260C00FFFFFFFFFFFFFFFFFFFFFFFFFFFFFFFFCE
:10261C00FFFFFFFFFFFFFFFFFFFFFFFFFFFFFFFFBE
:10262C00FFFFFFFFFFFFFFFFFFFFFFFFFFFFFFFFAE
:10263C00FFFFFFFFFFFFFFFFFFFFFFFFFFFFFFFF9E
:10264C00FFFFFFFFFFFFFFFFFFFFFFFFFFFFFFFF8E
:10265C00FFFFFFFFFFFFFFFFFFFFFFFFFFFFFFFF7E
:10266C00FFFFFFFFFFFFFFFFFFFFFFFFFFFFFFFF6E
:10267C00FFFFFFFFFFFFFFFFFFFFFFFFFFFFFFFF5E
:10268C00FFFFFFFFFFFFFFFFFFFFFFFFFFFFFFFF4E
:10269C00FFFFFFFFFFFFFFFFFFFFFFFFFFFFFFFF3E
:1026AC00FFFFFFFFFFFFFFFFFFFFFFFFFFFFFFFF2E
:1026BC00FFFFFFFFFFFFFFFFFFFFFFFFFFFFFFFF1E
:1026CC00FFFFFFFFFFFFFFFFFFFFFFFFFFFFFFFF0E
:1026DC00FFFFFFFFFFFFFFFFFFFFFFFFFFFFFFFFFE
:1026EC00FFFFFFFFFFFFFFFFFFFFFFFFFFFFFFFFEE
:1026FC00FFFFFFFFFFFFFFFFFFFFFFFFFFFFFFFFDE
:10270C00FFFFFFFFFFFFFFFFFFFFFFFFFFFFFFFFCD
:10271C00FFFFFFFFFFFFFFFFFFFFFFFFFFFFFFFFBD
:10272C00FFFFFFFFFFFFFFFFFFFFFFFFFFFFFFFFAD
:10273C00FFFFFFFFFFFFFFFFFFFFFFFFFFFFFFFF9D
:10274C00FFFFFFFFFFFFFFFFFFF79FDFDEB63D96AA
:10275C005A6D9844961B1403F40214033503350385
:10276C00550355035503750B760B760B550B55031B
:10277C00550314031403340314031403D7137934CB
:10278C005B651C8EDEB67FD7FFF7FFFFFFFFFFFFF9
:10279C00FFFFFFFFFFFFFFFFFFFFFFFFFEFFFFFF3E
:1027AC00FFFFFFFFFFFFFFFFFFFFFFFFFFFFFFFF2D
:1027BC00FFFFFFFFFFFFFFFFFFFFFFFFFFFFFFFF1D
:1027CC00FFFFFFFFFFFFFFFFFFFFFFFFFFFFFFFF0D
:1027DC00FFFFFFFFFFFFFFFFFFFFFFFFFFFFFFFFFD
:1027EC000000FFFFFFFFFFFFFFFFFFFFFFFFFFFFEB
:1027FC00FFFFFFFFFFFFFFFFFFFFFFFFFFFFFFFFDD
:10280C00FFFFFFFFFFFFFFFFFFFFFFFFFFFFFFFFCC
:10281C00FFFFFFFFFFFFFFFFFFFFFFFFFFFFFFFFBC
:10282C00FFFFFFFFFFFFFFFFFFFFFFFFFFFFFFFFAC
:10283C00FFFFFFFFFFFFFFFFFFFFFFFFFFFFFFFF9C
:10284C00FFFFFFFFFFFFFFFFFFFFFFFFFFFFFFFF8C
:10285C00FFFFFFFFFFFFFFFFFFFFFFFFFFFFFFFF7C
:10286C00FFFFFFFFFFFFFFFFFFFFFFFFFFFFFFFF6C
:10287C00FFFFFFFFFFFFFFFFFFFFFFFFFFFFFFFF5C
:10288C00FFFFFFFFFFFFFFFFFFFFFFFFFFFFFFFF4C
:10289C00FFFFFFFFFFFFFFFFFFFFFFFFFFFFFFFF3C
:1028AC00FFFFFFFFFFFFFFFFFFFFFFFFFFFFFFFF2C
:1028BC00FFFFFFFFFFFFFFFFFFFFFFFFFFFFFFFF1C
:1028CC00FFFFFFFFFFFFFFFFFFFFFFFFFFFFFFFF0C
:1028DC00FFFFFFFFFFFFFFFFFFFFFFFFFFFFFFFFFC
:1028EC00FFFFFFFFFFFFFFFFFFFFFFFFFFFFFFFFEC
:1028FC00FFFFFFFFFFFFFFFFFFFFFFFFFFFFFFFFDC
:10290C00FFFFFFFFFFFFFFFFFFFFFFFFFFFFFFFFCB
:10291C00FFFFFFFFFFFFFFFFFFFFFFFFFFFFFFFFBB
:10292C00FFFFFFFFDFFFFFFFFFF7DFE77CA6F86489
:10293C00163CD723D813B70B770B56033503350B3F
:10294C00751396139613D61BD623D623D623951B15
:10295C00741B54133413540B550B750B760BB70BAC
:10296C00F81BF7233734F85C3C9E9FD7FFFFFFFF23
:10297C00DFFFFFFFFFFFFFFFFFF7FFFFFFFFFEFF84
:10298C00FEFFFFFFFFFFFFFFFFFFFFFFFFFFFFFF4C
:10299C00FFFFFFFFFFFFFFFFFFFFFFFFFFFFFFFF3B
:1029AC00FFFFFFFFFFFFFFFFFFFFFFFFFFFFFFFF2B
:1029BC00FFFFFFFFFFFFFFFFFFFFFFFFFFFFFFFF1B
:1029CC00FFFF0000FFFFFFFFFFFFFFFFFFFFFFFF09
:1029DC00FFFFFFFFFFFFFFFFFFFFFFFFFFFFFFFFFB
:1029EC00FFFFFFFFFFFFFFFFFFFFFFFFFFFFFFFFEB
:1029FC00FFFFFFFFFFFFFFFFFFFFFFFFFFFFFFFFDB
:102A0C00FFFFFFFFFFFFFFFFFFFFFFFFFFFFFFFFCA
:102A1C00FFFFFFFFFFFFFFFFFFFFFFFFFFFFFFFFBA
:102A2C00FFFFFFFFFFFFFFFFFFFFFFFFFFFFFFFFAA
:102A3C00FFFFFFFFFFFFFFFFFFFFFFFFFFFFFFFF9A
:102A4C00FFFFFFFFFFFFFFFFFFFFFFFFFFFFFFFF8A
:102A5C00FFFFFFFFFFFFFFFFFFFFFFFFFFFFFFFF7A
:102A6C00FFFFFFFFFFFFFFFFFFFFFFFFFFFFFFFF6A
:102A7C00FFFFFFFFFFFFFFFFFFFFFFFFFFFFFFFF5A
:102A8C00FFFFFFFFFFFFFFFFFFFFFFFFFFFFFFFF4A
:102A9C00FFFFFFFFFFFFFFFFFFFFFFFFFFFFFFFF3A
:102AAC00FFFFFFFFFFFFFFFFFFFFFFFFFFFFFFFF2A
:102ABC00FFFFFFFFFFFFFFFFFFFFFFFFFFFFFFFF1A
:102ACC00FFFFFFFFFFFFFFFFFFFFFFFFFFFFFFFF0A
:102ADC00FFFFFFFFFFFFFFFFFFFFFFFFFFFFFFFFFA
:102AEC00FFFFFFFFFFFFFFFFFFFFFFFFFFFFFFFFEA
:102AFC00FFFFFFFFFFFFFFFFFFFFFFFFFFFFFFFFDA
:102B0C00FFFFFFFFFFFFFFFFDFEF3FC75D9E3A6D4B
:102B1C001634140B55037603770BD813392C793CE8
:102B2C009944B94CFA5C3A655B657B6D9B757A751B
:102B3C00396D1965F964D954984C583C182CD71B2D
:102B4C00760B35033503540BD623F95C1C96FEC665
:102B5C009FE7FFFFFFFFFFFFFFFFFFFFFFFFFFFFF1
:102B6C00FFFFFEFFFFFFFFFFFFFFFFFFFFFFFFFF6A
:102B7C00FFFFFFFFFFFFFFFFFFFFFFFFFFFFFFFF59
:102B8C00FFFFFFFFFFFFFFFFFFFFFFFFFFFFFFFF49
:102B9C00FFFFFFFFFFFFFFFFFFFFFFFFFFFFFFFF39
:102BAC00FFFFFFFF0000FFFFFFFFFFFFFFFFFFFF27
:102BBC00FFFFFFFFFFFFFFFFFFFFFFFFFFFFFFFF19
:102BCC00FFFFFFFFFFFFFFFFFFFFFFFFFFFFFFFF09
:102BDC00FFFFFFFFFFFFFFFFFFFFFFFFFFFFFFFFF9
:102BEC00FFFFFFFFFFFFFFFFFFFFFFFFFFFFFFFFE9
:102BFC00FFFFFFFFFFFFFFFFFFFFFFFFFFFFFFFFD9
:102C0C00FFFFFFFFFFFFFFFFFFFFFFFFFFFFFFFFC8
:102C1C00FFFFFFFFFFFFFFFFFFFFFFFFFFFFFFFFB8
:102C2C00FFFFFFFFFFFFFFFFFFFFFFFFFFFFFFFFA8
:102C3C00FFFFFFFFFFFFFFFFFFFFFFFFFFFFFFFF98
:102C4C00FFFFFFFFFFFFFFFFFFFFFFFFFFFFFFFF88
:102C5C00FFFFFFFFFFFFFFFFFFFFFFFFFFFFFFFF78
:102C6C00FFFFFFFFFFFFFFFFFFFFFFFFFFFFFFFF68
:102C7C00FFFFFFFFFFFFFFFFFFFFFFFFFFFFFFFF58
:102C8C00FFFFFFFFFFFFFFFFFFFFFFFFFFFFFFFF48
:102C9C00FFFFFFFFFFFFFFFFFFFFFFFFFFFFFFFF38
:102CAC00FFFFFFFFFFFFFFFFFFFFFFFFFFFFFFFF28
:102CBC00FFFFFFFFFFFFFFFFFFFFFFFFFFFFFFFF18
:102CCC00FFFFFFFFFFFFFFFFFFFFFFFFFFFFFFFF08
:102CDC00FFFFFFFFFFFFFFFFFFFFFFFFFFFFFFFFF8
:102CEC00FFFFFFFFFFFFFFFFFFF71FBF7A75573C8A
:102CFC00F723B61B14031403340B7513172C1B5D2D
:102D0C00DC7D3D9E9DAE1FC73FCF5FCF7FD77FD76A
:102D1C007FD75FD75FCFFEBEBEAE3D9EBC851A652A
:102D2C0038447523140B34035503760BD72378449E
:102D3C0039759DB6FFF7DFFFDFFFFFFFFFFFFFFFDA
:102D4C00FFFFFFFFFFFFFFFFFFFFFFFFFFFFFFFF87
:102D5C00FFFFFFFFFFFFFFFFFFFFFFFFFFFFFFFF77
:102D6C00FFFFFFFFFFFFFFFFFFFFFFFFFFFFFFFF67
:102D7C00FFFFFFFFFFFFFFFFFFFFFFFFFFFFFFFF57
:102D8C00FFFFFFFFFFFF0000FFFFFFFFFFFFFFFF45
:102D9C00FFFFFFFFFFFFFFFFFFFFFFFFFFFFFFFF37
:102DAC00FFFFFFFFFFFFFFFFFFFFFFFFFFFFFFFF27
:102DBC00FFFFFFFFFFFFFFFFFFFFFFFFFFFFFFFF17
:102DCC00FFFFFFFFFFFFFFFFFFFFFFFFFFFFFFFF07
:102DDC00FFFFFFFFFFFFFFFFFFFFFFFFFFFFFFFFF7
:102DEC00FFFFFFFFFFFFFFFFFFFFFFFFFFFFFFFFE7
:102DFC00FFFFFFFFFFFFFFFFFFFFFFFFFFFFFFFFD7
:102E0C00FFFFFFFFFFFFFFFFFFFFFFFFFFFFFFFFC6
:102E1C00FFFFFFFFFFFFFFFFFFFFFFFFFFFFFFFFB6
:102E2C00FFFFFFFFFFFFFFFFFFFFFFFFFFFFFFFFA6
:102E3C00FFFFFFFFFFFFFFFFFFFFFFFFFFFFFFFF96
:102E4C00FFFFFFFFFFFFFFFFFFFFFFFFFFFFFFFF86
:102E5C00FFFFFFFFFFFFFFFFFFFFFFFFFFFFFFFF76
:102E6C00FFFFFFFFFFFFFFFFFFFFFFFFFFFFFFFF66
:102E7C00FFFFFFFFFFFFFFFFFFFFFFFFFFFFFFFF56
:102E8C00FFFFFFFFFFFFFFFFFFFFFFFFFFFFFFFF46
:102E9C00FFFFFFFFFFFFFFFFFFFFFFFFFFFFFFFF36
:102EAC00FFFFFFFFFFFFFFFFFFFFFFFFFFFFFFFF26
:102EBC00FFFFFFFFFFFFFFFFFFFFFFFFFFFFFFFF16
:102ECC00FFFFFFFFFFFFFFF7BFE7FEC6BB7D373CF1
:102EDC00550B1503760BD62316347744F85C7A75AC
:102EEC005D9EFFBE7FD7FFEFFFF7FFFFFFFFFFFFEA
:102EFC00FFFFFFFFFFFFFFFFFFF7DFEF9FDF1FC7A6
:102F0C007EA67B7DB864574C1734F723760B3503BC
:102F1C00340BD62B5A75DEB6BFEFDFFFFFFFFFFF7A
:102F2C00FFFFFFFFFFFFFFFFFFFFFFFFFFFFFFFFA5
:102F3C00FFFFFFFFFFFFFFFFFFFFFFFFFFFFFFFF95
:102F4C00FFFFFFFFFFFFFFFFFFFFFFFFFFFFFFFF85
:102F5C00FFFFFFFFFFFFFFFFFFFFFFFFFFFFFFFF75
:102F6C00FFFFFFFFFFFFFFFF0000FFFFFFFFFFFF63
:102F7C00FFFFFFFFFFFFFFFFFFFFFFFFFFFFFFFF55
:102F8C00FFFFFFFFFFFFFFFFFFFFFFFFFFFFFFFF45
:102F9C00FFFFFFFFFFFFFFFFFFFFFFFFFFFFFFFF35
:102FAC00FFFFFFFFFFFFFFFFFFFFFFFFFFFFFFFF25
:102FBC00FFFFFFFFFFFFFFFFFFFFFFFFFFFFFFFF15
:102FCC00FFFFFFFFFFFFFFFFFFFFFFFFFFFFFFFF05
:102FDC00FFFFFFFFFFFFFFFFFFFFFFFFFFFFFFFFF5
:102FEC00FFFFFFFFFFFFFFFFFFFFFFFFFFFFFFFFE5
:102FFC00FFFFFFFFFFFFFFFFFFFFFFFFFFFFFFFFD5
:10300C00FFFFFFFFFFFFFFFFFFFFFFFFFFFFFFFFC4
:10301C00FFFFFFFFFFFFFFFFFFFFFFFFFFFFFFFFB4
:10302C00FFFFFFFFFFFFFFFFFFFFFFFFFFFFFFFFA4
:10303C00FFFFFFFFFFFFFFFFFFFFFFFFFFFFFFFF94
:10304C00FFFFFFFFFFFFFFFFFFFFFFFFFFFFFFFF84
:10305C00FFFFFFFFFFFFFFFFFFFFFFFFFFFFFFFF74
:10306C00FFFFFFFFFFFFFFFFFFFFFFFFFFFFFFFF64
:10307C00FFFFFFFFFFFFFFFFFFFFFFFFFFFFFFFF54
:10308C00FFFFFFFFFFFFFFFFFFFFFFFFFFFFFFFF44
:10309C00FFFFFFFFFFFFFFFFFFFFFFFFFFFFFEFF35
:1030AC00FFFFDFFFDFF7FFF7FFEFBEAED964373C62
:1030BC00D72335031403751337345A6D3C961EBF52
:1030CC005ECF7EDFDFEFFFF7FFF7FFFFFFFFFFFFB6
:1030DC00FFFFFFFFFFFFFFFFFFFFDFFFFFFFFFFF14
:1030EC00DFEF9FE75FD7BDBE3CA67A7D3744541314
:1030FC001403560BB613373497543BA6FFEFFFF768
:10310C00FFFFFFFFFFFFFFFFFFFFFFFFFFFFFFFFC3
:10311C00FFFFFFFFFFFFFFFFFFFFFFFFFFFFFFFFB3
:10312C00FFFFFFFFFFFFFFFFFFFFFFFFFFFFFFFFA3
:10313C00FFFFFFFFFFFFFFFFFFFFFFFFFFFFFFFF93
:10314C00FFFFFFFFFFFFFFFFFFFF0000FFFFFFFF81
:10315C00FFFFFFFFFFFFFFFFFFFFFFFFFFFFFFFF73
:10316C00FFFFFFFFFFFFFFFFFFFFFFFFFFFFFFFF63
:10317C00FFFFFFFFFFFFFFFFFFFFFFFFFFFFFFFF53
:10318C00FFFFFFFFFFFFFFFFFFFFFFFFFFFFFFFF43
:10319C00FFFFFFFFFFFFFFFFFFFFFFFFFFFFFFFF33
:1031AC00FFFFFFFFFFFFFFFFFFFFFFFFFFFFFFFF23
:1031BC00FFFFFFFFFFFFFFFFFFFFFFFFFFFFFFFF13
:1031CC00FFFFFFFFFFFFFFFFFFFFFFFFFFFFFFFF03
:1031DC00FFFFFFFFFFFFFFFFFFFFFFFFFFFFFFFFF3
:1031EC00FFFFFFFFFFFFFFFFFFFFFFFFFFFFFFFFE3
:1031FC00FFFFFFFFFFFFFFFFFFFFFFFFFFFFFFFFD3
:10320C00FFFFFFFFFFFFFFFFFFFFFFFFFFFFFFFFC2
:10321C00FFFFFFFFFFFFFFFFFFFFFFFFFFFFFFFFB2
:10322C00FFFFFFFFFFFFFFFFFFFFFFFFFFFFFFFFA2
:10323C00FFFFFFFFFFFFFFFFFFFFFFFFFFFFFFFF92
:10324C00FFFFFFFFFFFFFFFFFFFFFFFFFFFFFFFF82
:10325C00FFFFFFFFFFFFFFFFFFFFFFFFFFFFFFFF72
:10326C00FFFFFFFFFFFFFFFFFFFFFFFFFFFFFFFF62
:10327C00FFFFFFFFFFFFFFFFFFFFFFFFDFFFFFFF72
:10328C00FFFFDEFFFFFFFFF7BFDF3FBF3A6DB62347
:10329C0034137613B61BD623573C7A6DDEAE7FD72C
:1032AC00FFEFFFFFFFFFFFFFFFFFFFFFFFFFFFFF32
:1032BC00FFFFDFFFFFFFDFFFDFFFDFFFDFFFFFFFB2
:1032CC00FFFFFFFFFFFFFFFFFFF7BFE7BDB69A7DD4
:1032DC00774C1734D71B760B750B941B185DFEB609
:1032EC00BFE7FFFFBEF7FFFFFFFFDFFFFFFFFFFFA3
:1032FC00FFFFFFFFFFFFFFFFFFFFFFFFFFFFFFFFD2
:10330C00FFFFFFFFFFFFFFFFFFFFFFFFFFFFFFFFC1
:10331C00FFFFFFFFFFFFFFFFFFFFFFFFFFFFFFFFB1
:10332C00FFFFFFFFFFFFFFFFFFFFFFFF0000FFFF9F
:10333C00FFFFFFFFFFFFFFFFFFFFFFFFFFFFFFFF91
:10334C00FFFFFFFFFFFFFFFFFFFFFFFFFFFFFFFF81
:10335C00FFFFFFFFFFFFFFFFFFFFFFFFFFFFFFFF71
:10336C00FFFFFFFFFFFFFFFFFFFFFFFFFFFFFFFF61
:10337C00FFFFFFFFFFFFFFFFFFFFFFFFFFFFFFFF51
:10338C00FFFFFFFFFFFFFFFFFFFFFFFFFFFFFFFF41
:10339C00FFFFFFFFFFFFFFFFFFFFFFFFFFFFFFFF31
:1033AC00FFFFFFFFFFFFFFFFFFFFFFFFFFFFFFFF21
:1033BC00FFFFFFFFFFFFFFFFFFFFFFFFFFFFFFFF11
:1033CC00FFFFFFFFFFFFFFFFFFFFFFFFFFFFFFFF01
:1033DC00FFFFFFFFFFFFFFFFFFFFFFFFFFFFFFFFF1
:1033EC00FFFFFFFFFFFFFFFFFFFFFFFFFFFFFFFFE1
:1033FC00FFFFFFFFFFFFFFFFFFFFFFFFFFFFFFFFD1
:10340C00FFFFFFFFFFFFFFFFFFFFFFFFFFFFFFFFC0
:10341C00FFFFFFFFFFFFFFFFFFFFFFFFFFFFFFFFB0
:10342C00FFFFFFFFFFFFFFFFFFFFFFFFFFFFFFFFA0
:10343C00FFFFFFFFFFFFFFFFFFFFFFFFFFFFFFFF90
:10344C00FFFFFFFFFFFFFFFFFFFFFFFFFFFFFFFF80
:10345C00FFFFFFFFFFFFFFFFFFFFFFFFFFFFFFFF70
:10346C00FFFFFFFFDFFFFFF7FFEF5CA618651734C8
:10347C00760B1503550B38349C6D7D9E3FC7BFE70B
:10348C00FFF7FFFFFFFFFFFFFFFFFFFFDEFFFFFF69
:10349C00FFFFFFFFFFFFFFFFFFFFFFFFFFFFFFFF30
:1034AC00FFFFFFFFFFFFFFFFFFFFFFF7FFF7DFE768
:1034BC003FCF7DA69B7D573C540B35037603372CB1
:1034CC00D8545B9EFFEFFFFFFFFFFFFFFFFFFFFFE7
:1034DC00FFFFFFFFFFFFFFFFFFFFFFFFFFFFFFFFF0
:1034EC00FFFFFFFFFFFFFFFFFFFFFFFFFFFFFFFFE0
:1034FC00FFFFFFFFFFFFFFFFFFFFFFFFFFFFFFFFD0
:10350C00FFFFFFFFFFFFFFFFFFFFFFFFFFFF0000BD
:10351C00FFFFFFFFFFFFFFFFFFFFFFFFFFFFFFFFAF
:10352C00FFFFFFFFFFFFFFFFFFFFFFFFFFFFFFFF9F
:10353C00FFFFFFFFFFFFFFFFFFFFFFFFFFFFFFFF8F
:10354C00FFFFFFFFFFFFFFFFFFFFFFFFFFFFFFFF7F
:10355C00FFFFFFFFFFFFFFFFFFFFFFFFFFFFFFFF6F
:10356C00FFFFFFFFFFFFFFFFFFFFFFFFFFFFFFFF5F
:10357C00FFFFFFFFFFFFFFFFFFFFFFFFFFFFFFFF4F
:10358C00FFFFFFFFFFFFFFFFFFFFFFFFFFFFFFFF3F
:10359C00FFFFFFFFFFFFFFFFFFFFFFFFFFFFFFFF2F
:1035AC00FFFFFFFFFFFFFFFFFFFFFFFFFFFFFFFF1F
:1035BC00FFFFFFFFFFFFFFFFFFFFFFFFFFFFFFFF0F
:1035CC00FFFFFFFFFFFFFFFFFFFFFFFFFFFFFFFFFF
:1035DC00FFFFFFFFFFFFFFFFFFFFFFFFFFFFFFFFEF
:1035EC00FFFFFFFFFFFFFFFFFFFFFFFFFFFFFFFFDF
:1035FC00FFFFFFFFFFFFFFFFFFFFFFFFFFFFFFFFCF
:10360C00FFFFFFFFFFFFFFFFFFFFFFFFFFFFFFFFBE
:10361C00FFFFFFFFFFFFFFFFFFFFFFFFFFFFFFFFAE
:10362C00FFFFFFFFFFFFFFFFFFFFFFFFFFFFFFFF9E
:10363C00FFFFFFFFFFFFFFFFFFFFFFFFFFFFFFFF8E
:10364C00FFFFDFFFFFFFFFF7FFEF1FBFF864532300
:10365C0075139613D72317343A651FB7FFE7FFF797
:10366C00FFFFFFFFFFFFFFFFFFFFFFFFFFFFFFFF5E
:10367C00FFFFFFFFFFFFFFFFFFFFFFFFFFFFFFFF4E
:10368C00FFFFFFFFFFFFFFFFFFFFFFF7FFF7FFF756
:10369C00FFF7FFF7FFEFFFBE7A75573CF71BD81308
:1036AC00B70B5413B75CFEBEDFEFFFFFDFFFFFFF6E
:1036BC00FFFFFFFFFFFFFFFFFFFFFFFFFFFFFFFF0E
:1036CC00FFFFFFFFFFFFFFFFFFFFFFFFFFFFFFFFFE
:1036DC00FFFFFFFFFFFFFFFFFFFFFFFFFFFFFFFFEE
:1036EC00FFFFFFFFFFFFFFFFFFFFFFFFFFFFFFFFDE
:1036FC000000FFFFFFFFFFFFFFFFFFFFFFFFFFFFCC
:10370C00FFFFFFFFFFFFFFFFFFFFFFFFFFFFFFFFBD
:10371C00FFFFFFFFFFFFFFFFFFFFFFFFFFFFFFFFAD
:10372C00FFFFFFFFFFFFFFFFFFFFFFFFFFFFFFFF9D
:10373C00FFFFFFFFFFFFFFFFFFFFFFFFFFFFFFFF8D
:10374C00FFFFFFFFFFFFFFFFFFFFFFFFFFFFFFFF7D
:10375C00FFFFFFFFFFFFFFFFFFFFFFFFFFFFFFFF6D
:10376C00FFFFFFFFFFFFFFFFFFFFFFFFFFFFFFFF5D
:10377C00FFFFFFFFFFFFFFFFFFFFFFFFFFFFFFFF4D
:10378C00FFFFFFFFFFFFFFFFFFFFFFFFFFFFFFFF3D
:10379C00FFFFFFFFFFFFFFFFFFFFFFFFFFFFFFFF2D
:1037AC00FFFFFFFFFFFFFFFFFFFFFFFFFFFFFFFF1D
:1037BC00FFFFFFFFFFFFFFFFFFFFFFFFFFFFFFFF0D
:1037CC00FFFFFFFFFFFFFFFFFFFFFFFFFFFFFFFFFD
:1037DC00FFFFFFFFFFFFFFFFFFFFFFFFFFFFFFFFED
:1037EC00FFFFFFFFFFFFFFFFFFFFFFFFFFFFFFFFDD
:1037FC00FFFFFFFFFFFFFFFFFFFFFFFFFFFFFFFFCD
:10380C00FFFFFFFFFFFFFFFFFFFFFFFFFFFFFFFFBC
:10381C00FFFFFFFFFFFFFFFFFFFFFFFFFFFFFFFFAC
:10382C00FFFFFFFFDFF7FFF7FFEF1FBF5A75163CD7
:10383C00341314037513D9541C8EDDBEBFE7FFFF80
:10384C00FFFFFFFFFFFFFFFFFFFFFFFFFFFFFFFF7C
:10385C00FFFFFFFFFFFFFFFFFFFFFFFFFFFFFFFF6C
:10386C00FFFFFFFFFFFFFFFFFFFFFFFFFFFFFEFF5D
:10387C00FFFFFFFFFFFFFFFFDFEF1FC73D96FA546F
:10388C00D61B3503340BF633396D7CAEFFEFFFFFDF
:10389C00FFFFFFFFFFFFFFFFFFFFFFFFFFFFFFFF2C
:1038AC00FFFFFFFFFFFFFFFFFFFFFFFFFFFFFFFF1C
:1038BC00FFFFFFFFFFFFFFFFFFFFFFFFFFFFFFFF0C
:1038CC00FFFFFFFFFFFFFFFFFFFFFFFFFFFFFFFFFC
:1038DC00FFFF0000FFFFFFFFFFFFFFFFFFFFFFFFEA
:1038EC00FFFFFFFFFFFFFFFFFFFFFFFFFFFFFFFFDC
:1038FC00FFFFFFFFFFFFFFFFFFFFFFFFFFFFFFFFCC
:10390C00FFFFFFFFFFFFFFFFFFFFFFFFFFFFFFFFBB
:10391C00FFFFFFFFFFFFFFFFFFFFFFFFFFFFFFFFAB
:10392C00FFFFFFFFFFFFFFFFFFFFFFFFFFFFFFFF9B
:10393C00FFFFFFFFFFFFFFFFFFFFFFFFFFFFFFFF8B
:10394C00FFFFFFFFFFFFFFFFFFFFFFFFFFFFFFFF7B
:10395C00FFFFFFFFFFFFFFFFFFFFFFFFFFFFFFFF6B
:10396C00FFFFFFFFFFFFFFFFFFFFFFFFFFFFFFFF5B
:10397C00FFFFFFFFFFFFFFFFFFFFFFFFFFFFFFFF4B
:10398C00FFFFFFFFFFFFFFFFFFFFFFFFFFFFFFFF3B
:10399C00FFFFFFFFFFFFFFFFFFFFFFFFFFFFFFFF2B
:1039AC00FFFFFFFFFFFFFFFFFFFFFFFFFFFFFFFF1B
:1039BC00FFFFFFFFFFFFFFFFFFFFFFFFFFFFFFFF0B
:1039CC00FFFFFFFFFFFFFFFFFFFFFFFFFFFFFFFFFB
:1039DC00FFFFFFFFFFFFFFFFFFFFFFFFFFFFFFFFEB
:1039EC00FFFFFFFFFFFFFFFFFFFFFFFFFFFFFFFFDB
:1039FC00FFFFFFFFFFFFFFFFFFFFFFFFFFFFFFFFCB
:103A0C00FFFFFFFFDFFFFFFFFFEFBFD7BB7DB42B37
:103A1C0075139613751B37441C96BFD7FFF7FFFF22
:103A2C00FFFFDFFFFFFFFFFFFFFFFFFFFFFFFFFFBA
:103A3C00FFFFFFF7FFFFFFFFFFFFFFFFFFFFFFFF92
:103A4C00FFFFFFFFFFFFFFFFFFFFFFFFFFFFDEFF9B
:103A5C00FEFFFFFFFFFFFFFFDFFFFFFFFFF7BFDFF3
:103A6C005D96984C951B961375137423186D5FC750
:103A7C00FFF7FFF7FFFFFFFFFFFFFFFFFFFFFFFF5A
:103A8C00FFFFFFFFFFFFFFFFFFFFFFFFFFFFFFFF3A
:103A9C00FFFFFFFFFFFFFFFFFFFFFFFFFFFFFFFF2A
:103AAC00FFFFFFFFFFFFFFFFFFFFFFFFFFFFFFFF1A
:103ABC00FFFFFFFF0000FFFFFFFFFFFFFFFFFFFF08
:103ACC00FFFFFFFFFFFFFFFFFFFFFFFFFFFFFFFFFA
:103ADC00FFFFFFFFFFFFFFFFFFFFFFFFFFFFFFFFEA
:103AEC00FFFFFFFFFFFFFFFFFFFFFFFFFFFFFFFFDA
:103AFC00FFFFFFFFFFFFFFFFFFFFFFFFFFFFFFFFCA
:103B0C00FFFFFFFFFFFFFFFFFFFFFFFFFFFFFFFFB9
:103B1C00FFFFFFFFFFFFFFFFFFFFFFFFFFFFFFFFA9
:103B2C00FFFFFFFFFFFFFFFFFFFFFFFFFFFFFFFF99
:103B3C00FFFFFFFFFFFFFFFFFFFFFFFFFFFFFFFF89
:103B4C00FFFFFFFFFFFFFFFFFFFFFFFFFFFFFFFF79
:103B5C00FFFFFFFFFFFFFFFFFFFFFFFFFFFFFFFF69
:103B6C00FFFFFFFFFFFFFFFFFFFFFFFFFFFFFFFF59
:103B7C00FFFFFFFFFFFFFFFFFFFFFFFFFFFFFFFF49
:103B8C00FFFFFFFFFFFFFFFFFFFFFFFFFFFFFFFF39
:103B9C00FFFFFFFFFFFFFFFFFFFFFFFFFFFFFFFF29
:103BAC00FFFFFFFFFFFFFFFFFFFFFFFFFFFFFFFF19
:103BBC00FFFFFFFFFFFFFFFFFFFFFFFFFFFFFFFF09
:103BCC00FFFFFFFFFFFFFFFFFFFFFFFFFFFFFFFFF9
:103BDC00FFFFFFFFFFFFFFFFFFFFFFFFFFFFFFFFE9
:103BEC00FFFFFFFFFFFFFFFFFFF79FD7FC8D574441
:103BFC00340B3503D71BD9541C965FCFFFF7FFFF4F
:103C0C00FEFFFFFFDFFFDFFFFFFFFFFFFFFFFFFFF9
:103C1C00FFFFFFFFFFFFFFFFFFFFFFFFFFFFFFFFA8
:103C2C00FFFFFFFFFFFFFFFFFFFFFFFFFFFFFFFF98
:103C3C00FFFFFFFFFFFFFFFFFFFFFFFFFFFFFFFF88
:103C4C00FFFF7FD77DA61A65F72B3503350B17348D
:103C5C00BB7D3EC7FFF7FFFFFFFFFFFFFFFFFFFF2F
:103C6C00FFFFFFFFFFFFFFFFFFFFFFFFFFFFFFFF58
:103C7C00FFFFFFFFFFFFFFFFFFFFFFFFFFFFFFFF48
:103C8C00FFFFFFFFFFFFFFFFFFFFFFFFFFFFFFFF38
:103C9C00FFFFFFFFFFFF0000FFFFFFFFFFFFFFFF26
:103CAC00FFFFFFFFFFFFFFFFFFFFFFFFFFFFFFFF18
:103CBC00FFFFFFFFFFFFFFFFFFFFFFFFFFFFFFFF08
:103CCC00FFFFFFFFFFFFFFFFFFFFFFFFFFFFFFFFF8
:103CDC00FFFFFFFFFFFFFFFFFFFFFFFFFFFFFFFFE8
:103CEC00FFFFFFFFFFFFFFFFFFFFFFFFFFFFFFFFD8
:103CFC00FFFFFFFFFFFFFFFFFFFFFFFFFFFFFFFFC8
:103D0C00FFFFFFFFFFFFFFFFFFFFFFFFFFFFFFFFB7
:103D1C00FFFFFFFFFFFFFFFFFFFFFFFFFFFFFFFFA7
:103D2C00FFFFFFFFFFFFFFFFFFFFFFFFFFFFFFFF97
:103D3C00FFFFFFFFFFFFFFFFFFFFFFFFFFFFFFFF87
:103D4C00FFFFFFFFFFFFFFFFFFFFFFFFFFFFFFFF77
:103D5C00FFFFFFFFFFFFFFFFFFFFFFFFFFFFFFFF67
:103D6C00FFFFFFFFFFFFFFFFFFFFFFFFFFFFFFFF57
:103D7C00FFFFFFFFFFFFFFFFFFFFFFFFFFFFFFFF47
:103D8C00FFFFFFFFFFFFFFFFFFFFFFFFFFFFFFFF37
:103D9C00FFFFFFFFFFFFFFFFFFFFFFFFFFFFFFFF27
:103DAC00FFFFFFFFFFFFFFFFFFFFFFFFFFFFFFFF17
:103DBC00FFFFFFFFFFFFFFFFFFFFFFFFFFFFFFFF07
:103DCC00FFFFFFFFFFFFFFFFFFFFFFEF7DA6F543A8
:103DDC00751BB613960B37345D9EBFDFFFF7FFFFE5
:103DEC00FFFFDEFFDEFFFFFFFFFFFFFFFFFFFFFF19
:103DFC00FFFFFFFFFFFFFFFFFFFFFFFFFFFFFFFFC7
:103E0C00FFFFFFFFFFFFFFFFFFFFFFFFFFFFFFFFB6
:103E1C00FFFFFFFFFFFFFFFFFFFFFFFFFFFFFFFFA6
:103E2C00DFFFFFFFFFFFDFE77EA67854761B9713BB
:103E3C007513F5331C96FFEFFFF7FFFFFFFFFFFF36
:103E4C00FFFFFFFFFFFFFFFFFFFFFFFFFFFFFFFF76
:103E5C00FFFFFFFFFFFFFFFFFFFFFFFFFFFFFFFF66
:103E6C00FFFFFFFFFFFFFFFFFFFFFFFFFFFFFFFF56
:103E7C00FFFFFFFFFFFFFFFF0000FFFFFFFFFFFF44
:103E8C00FFFFFFFFFFFFFFFFFFFFFFFFFFFFFFFF36
:103E9C00FFFFFFFFFFFFFFFFFFFFFFFFFFFFFFFF26
:103EAC00FFFFFFFFFFFFFFFFFFFFFFFFFFFFFFFF16
:103EBC00FFFFFFFFFFFFFFFFFFFFFFFFFFFFFFFF06
:103ECC00FFFFFFFFFFFFFFFFFFFFFFFFFFFFFFFFF6
:103EDC00FFFFFFFFFFFFFFFFFFFFFFFFFFFFFFFFE6
:103EEC00FFFFFFFFFFFFFFFFFFFFFFFFFFFFFFFFD6
:103EFC00FFFFFFFFFFFFFFFFFFFFFFFFFFFFFFFFC6
:103F0C00FFFFFFFFFFFFFFFFFFFFFFFFFFFFFFFFB5
:103F1C00FFFFFFFFFFFFFFFFFFFFFFFFFFFFFFFFA5
:103F2C00FFFFFFFFFFFFFFFFFFFFFFFFFFFFFFFF95
:103F3C00FFFFFFFFFFFFFFFFFFFFFFFFFFFFFFFF85
:103F4C00FFFFFFFFFFFFFFFFFFFFFFFFFFFFFFFF75
:103F5C00FFFFFFFFFFFFFFFFFFFFFFFFFFFFFFFF65
:103F6C00FFFFFFFFFFFFFFFFFFFFFFFFFFFFFFFF55
:103F7C00FFFFFFFFFFFFFFFFFFFFFFFFFFFFFFFF45
:103F8C00FFFFFFFFFFFFFFFFFFFFFFFFFFFFFFFF35
:103F9C00FFFFFFFFFFFFFFFFFFFFFFFFFFFFFFFF25
:103FAC00FFFFFFFFFFFFDEFFFFFFFFF7DEBEB85C8A
:103FBC00551B340B951B9944FC859FD7FFF7FFFFCE
:103FCC00FFFFDEFFFFFFFFFFDFFFFFFFFFFFFFFF36
:103FDC00FFFFFFFFFFFFFFFFFFFFFFFFFFFFFFFFE5
:103FEC00FFFFFFFFFFFFFFFFFFFFFFFFFFFFFFFFD5
:103FFC00FFFFFFFFFFFFFFFFFFFFFFFFFFFFFFFFC5
:10400C00FFFFDFFFDFFFFFFFFFF7BFDF3B9ED96442
:10401C00B62B350B140BB9549EA6DFEFFFFFFFFF39
:10402C00FFFFFFFFFFFFBEFFDFFFDFFFFFFFFFFF15
:10403C00FFFFFFFFFFFFFFFFFFFFFFFFFFFFFFFF84
:10404C00FFFFFFFFFFFFFFFFFFFFFFFFFFFFFFFF74
:10405C00FFFFFFFFFFFFFFFFFFFF0000FFFFFFFF62
:10406C00FFFFFFFFFFFFFFFFFFFFFFFFFFFFFFFF54
:10407C00FFFFFFFFFFFFFFFFFFFFFFFFFFFFFFFF44
:10408C00FFFFFFFFFFFFFFFFFFFFFFFFFFFFFFFF34
:10409C00FFFFFFFFFFFFFFFFFFFFFFFFFFFFFFFF24
:1040AC00FFFFFFFFFFFFFFFFFFFFFFFFFFFFFFFF14
:1040BC00FFFFFFFFFFFFFFFFFFFFFFFFFFFFFFFF04
:1040CC00FFFFFFFFFFFFFFFFFFFFFFFFFFFFFFFFF4
:1040DC00FFFFFFFFFFFFFFFFFFFFFFFFFFFFFFFFE4
:1040EC00FFFFFFFFFFFFFFFFFFFFFFFFFFFFFFFFD4
:1040FC00FFFFFFFFFFFFFFFFFFFFFFFFFFFFFFFFC4
:10410C00FFFFFFFFFFFFFFFFFFFFFFFFFFFFFFFFB3
:10411C00FFFFFFFFFFFFFFFFFFFFFFFFFFFFFFFFA3
:10412C00FFFFFFFFFFFFFFFFFFFFFFFFFFFFFFFF93
:10413C00FFFFFFFFFFFFFFFFFFFFFFFFFFFFFFFF83
:10414C00FFFFFFFFFFFFFFFFFFFFFFFFFFFFFFFF73
:10415C00FFFFFFFFFFFFFFFFFFFFFFFFFFFFFFFF63
:10416C00FFFFFFFFFFFFFFFFFFFFFFFFFFFFFFFF53
:10417C00FFFFFFFFFFFFFFFFFFFFFFFFFFFFFFFF43
:10418C00FFFFFFFFBFFFFFFFDEFFFFFF7FD7F86CD6
:10419C00D62B761B3413163C5D8EBFD7DFEFFFFF9B
:1041AC00FFFFFFFFFFFFFFFFFFFFFFFFFFFFFFFF13
:1041BC00FFFFFFFFFFFFFFFFFFFFFFFFFFFFFFFF03
:1041CC00FFFFFFFFFFFFFFFFFFFFFFFFFFFFFFFFF3
:1041DC00FFFFFFFFFFFFFFFFFFFFFFFFFFFFFFFFE3
:1041EC00FFFFFFFFDFFFDFFFFFFFFFFFFFF7BFDF7B
:1041FC00BFAE7854140BB61BB62378543FCFFFF7E1
:10420C00DFF7FFFFFFFFFFFFFFFFDFFFDFFFFFFF1A
:10421C00FFFFFFF7FFFFFFFFFFFFFFFFFFFFFFFFAA
:10422C00FFFFFFFFFFFFFFFFFFFFFFFFFFFFFFFF92
:10423C00FFFFFFFFFFFFFFFFFFFFFFFF0000FFFF80
:10424C00FFFFFFFFFFFFFFFFFFFFFFFFFFFFFFFF72
:10425C00FFFFFFFFFFFFFFFFFFFFFFFFFFFFFFFF62
:10426C00FFFFFFFFFFFFFFFFFFFFFFFFFFFFFFFF52
:10427C00FFFFFFFFFFFFFFFFFFFFFFFFFFFFFFFF42
:10428C00FFFFFFFFFFFFFFFFFFFFFFFFFFFFFFFF32
:10429C00FFFFFFFFFFFFFFFFFFFFFFFFFFFFFFFF22
:1042AC00FFFFFFFFFFFFFFFFFFFFFFFFFFFFFFFF12
:1042BC00FFFFFFFFFFFFFFFFFFFFFFFFFFFFFFFF02
:1042CC00FFFFFFFFFFFFFFFFFFFFFFFFFFFFFFFFF2
:1042DC00FFFFFFFFFFFFFFFFFFFFFFFFFFFFFFFFE2
:1042EC00FFFFFFFFFFFFFFFFFFFFFFFFFFFFFFFFD2
:1042FC00FFFFFFFFFFFFFFFFFFFFFFFFFFFFFFFFC2
:10430C00FFFFFFFFFFFFFFFFFFFFFFFFFFFFFFFFB1
:10431C00FFFFFFFFFFFFFFFFFFFFFFFFFFFFFFFFA1
:10432C00FFFFFFFFFFFFFFFFFFFFFFFFFFFFFFFF91
:10433C00FFFFFFFFFFFFFFFFFFFFFFFFFFFFFFFF81
:10434C00FFFFFFFFFFFFFFFFFFFFFFFFFFFFFFFF71
:10435C00FFFFFFFFFFFFFFFFFFFFFFFFFFFFFFFF61
:10436C00DEFFFFFFFFFFFFFFFFFFFFFFBFDF3D96FD
:10437C00D533340B5513163C9A7D7FCFFFF7FFFFD7
:10438C00FFFFFFFFFFFFFFFFFFFFFFFFFFFFFFFF31
:10439C00FFFFFFFFFFFFFFFFFFFFFFFFFFFFFFFF21
:1043AC00FFFFFFFFFFFFFFFFFFFFFFFFFFFFFFFF11
:1043BC00FFFFFFFFFFFFFFFFFFFFFFFFFFFFFFFF01
:1043CC00FFFFFFFFFFFFFFFFFFFFFFFFFFFFFFFFF1
:1043DC00FFF7BFE7FC953744B6231403D62BBA85F9
:1043EC007FD7FFF7FFFFFFFFFFFFFFFFDFFFFFFFA1
:1043FC00FFFFFFFFFFFFFFFFFFFFFFFFFFFFFFFFC1
:10440C00FFFFFFFFFFFFFFFFFFFFFFFFFFFFFFFFB0
:10441C00FFFFFFFFFFFFFFFFFFFFFFFFFFFF00009E
:10442C00FFFFFFFFFFFFFFFFFFFFFFFFFFFFFFFF90
:10443C00FFFFFFFFFFFFFFFFFFFFFFFFFFFFFFFF80
:10444C00FFFFFFFFFFFFFFFFFFFFFFFFFFFFFFFF70
:10445C00FFFFFFFFFFFFFFFFFFFFFFFFFFFFFFFF60
:10446C00FFFFFFFFFFFFFFFFFFFFFFFFFFFFFFFF50
:10447C00FFFFFFFFFFFFFFFFFFFFFFFFFFFFFFFF40
:10448C00FFFFFFFFFFFFFFFFFFFFFFFFFFFFFFFF30
:10449C00FFFFFFFFFFFFFFFFFFFFFFFFFFFFFFFF20
:1044AC00FFFFFFFFFFFFFFFFFFFFFFFFFFFFFFFF10
:1044BC00FFFFFFFFFFFFFFFFFFFFFFFFFFFFFFFF00
:1044CC00FFFFFFFFFFFFFFFFFFFFFFFFFFFFFFFFF0
:1044DC00FFFFFFFFFFFFFFFFFFFFFFFFFFFFFFFFE0
:1044EC00FFFFFFFFFFFFFFFFFFFFFFFFFFFFFFFFD0
:1044FC00FFFFFFFFFFFFFFFFFFFFFFFFFFFFFFFFC0
:10450C00FFFFFFFFFFFFFFFFFFFFFFFFFFFFFFFFAF
:10451C00FFFFFFFFFFFFFFFFFFFFFFFFFFFFFFFF9F
:10452C00FFFFFFFFFFFFFFFFFFFFFFFFFFFFFFFF8F
:10453C00FFFFFFFFFFFFFFFFFFFFFFFFFFFFFFFF7F
:10454C00FEFFFFFFFFFFDFFFFFFFFFF7FFF7BEAE32
:10455C005744961B340B741B9B857FD7DFEFFFFFF3
:10456C00FFFFDFFFDFFFFFFFFFFFFFFFFFFFFFFF8F
:10457C00FFFFFFFFFFFFFFFFFFFFFFFFFFFFFFFF3F
:10458C00FFFFFFFFFFFFFFFFFFFFFFFFFFFFFFFF2F
:10459C00FFFFFFFFFFFFFFFFFFFFFFFFFFFFFFFF1F
:1045AC00FFFFFFFFFFFFFFFFFFFFFFFFFFFFFFFF0F
:1045BC00FFFFFFFFFFF77FD71D8E952B3303D6230D
:1045CC00F533FB8DFFEFFFF7FFFFFFFFFFFFDFFF73
:1045DC00FFFFFFFFFFFFFFFFFFFFFFFFFFFFFFFFDF
:1045EC00FFFFFFFFFFFFFFFFFFFFFFFFFFFFFFFFCF
:1045FC00FFFFFFFFFFFFFFFFFFFFFFFFFFFFFFFFBF
:10460C000000FFFFFFFFFFFFFFFFFFFFFFFFFFFFAC
:10461C00FFFFFFFFFFFFFFFFFFFFFFFFFFFFFFFF9E
:10462C00FFFFFFFFFFFFFFFFFFFFFFFFFFFFFFFF8E
:10463C00FFFFFFFFFFFFFFFFFFFFFFFFFFFFFFFF7E
:10464C00FFFFFFFFFFFFFFFFFFFFFFFFFFFFFFFF6E
:10465C00FFFFFFFFFFFFFFFFFFFFFFFFFFFFFFFF5E
:10466C00FFFFFFFFFFFFFFFFFFFFFFFFFFFFFFFF4E
:10467C00FFFFFFFFFFFFFFFFFFFFFFFFFFFFFFFF3E
:10468C00FFFFFFFFFFFFFFFFFFFFFFFFFFFFFFFF2E
:10469C00FFFFFFFFFFFFFFFFFFFFFFFFFFFFFFFF1E
:1046AC00FFFFFFFFFFFFFFFFFFFFFFFFFFFFFFFF0E
:1046BC00FFFFFFFFFFFFFFFFFFFFFFFFFFFFFFFFFE
:1046CC00FFFFFFFFFFFFFFFFFFFFFFFFFFFFFFFFEE
:1046DC00FFFFFFFFFFFFFFFFFFFFFFFFFFFFFFFFDE
:1046EC00FFFFFFFFFFFFFFFFFFFFFFFFFFFFFFFFCE
:1046FC00FFFFFFFFFFFFFFFFFFFFFFFFFFFFFFFFBE
:10470C00FFFFFFFFFFFFFFFFFFFFFFFFFFFFFFFFAD
:10471C00FFFFFFFFFFFFFFFFFFFFFFFFFFFFFFFF9D
:10472C00FFFFDEFFFFFFFFFFDFF7FFF7FFF75FC7BE
:10473C009B755513760BD623B854DEBEFFF7FFFFDF
:10474C00FEFFFFFFFFFFFFFFFFFFFFFFFFFFFFFF6E
:10475C00FFFFFFFFFFFFFFFFFFFFFFFFFFFFFFFF5D
:10476C00FFFFFFFFFFFFFFFFFFFFFFFFFFFFFFFF4D
:10477C00FFFFFFFFFFFFFFFFFFFFFFFFFFFFFFFF3D
:10478C00FFFFFFFFFFFFFFFFFFFFFFFFFFFFFFFF2D
:10479C00FEFFFEFFFFFFFFFFFFF75FCF196DF62B4C
:1047AC00740B5413B8543FBFFFF7FFFFDFFFFFFF3D
:1047BC00FFFFFFFFFFFFFFFFFFFFFFFFFFFFFFFFFD
:1047CC00FFFFFFFFFFFFFFFFFFFFFFFFFFFFFFFFED
:1047DC00FFFFFFFFFFFFFFFFFFFFFFFFFFFFFFFFDD
:1047EC00FFFF0000FFFFFFFFFFFFFFFFFFFFFFFFCB
:1047FC00FFFFFFFFFFFFFFFFFFFFFFFFFFFFFFFFBD
:10480C00FFFFFFFFFFFFFFFFFFFFFFFFFFFFFFFFAC
:10481C00FFFFFFFFFFFFFFFFFFFFFFFFFFFFFFFF9C
:10482C00FFFFFFFFFFFFFFFFFFFFFFFFFFFFFFFF8C
:10483C00FFFFFFFFFFFFFFFFFFFFFFFFFFFFFFFF7C
:10484C00FFFFFFFFFFFFFFFFFFFFFFFFFFFFFFFF6C
:10485C00FFFFFFFFFFFFFFFFFFFFFFFFFFFFFFFF5C
:10486C00FFFFFFFFFFFFFFFFFFFFFFFFFFFFFFFF4C
:10487C00FFFFFFFFFFFFFFFFFFFFFFFFFFFFFFFF3C
:10488C00FFFFFFFFFFFFFFFFFFFFFFFFFFFFFFFF2C
:10489C00FFFFFFFFFFFFFFFFFFFFFFFFFFFFFFFF1C
:1048AC00FFFFFFFFFFFFFFFFFFFFFFFFFFFFFFFF0C
:1048BC00FFFFFFFFFFFFFFFFFFFFFFFFFFFFFFFFFC
:1048CC00FFFFFFFFFFFFFFFFFFFFFFFFFFFFFFFFEC
:1048DC00FFFFFFFFFFFFFFFFFFFFFFFFFFFFFFFFDC
:1048EC00FFFFFFFFFFFFFFFFFFFFFFFFFFFFFFFFCC
:1048FC00FFFFFFFFFFFFFFFFFFFFFFFFFFFFFFFFBC
:10490C00FFFFFFFFFFFFDFFFFFFFFFFFFFF7FFEFE3
:10491C00BB85173497131403984CFFAEBFDFFFFF12
:10492C00FEFFBDFFFEFFFFFFFFFFFFFFFFFFFFFFCF
:10493C00FFFFFFFFFFFFFFFFFFFFFFFFFFFFFFFF7B
:10494C00FFFFFFFFFFFFFFFFFFFFFFFFFFFFFFFF6B
:10495C00FFFFFFFFFFFFFFFFFFFFFFFFFFFFFFFF5B
:10496C00FFFFFFFFFFFFFFFFFFFFFFFFFFFFFFFF4B
:10497C00FFFFFFFFFEFFFFFFFFFFFFFFDFE75FC74C
:10498C00195D5313740BF62B5A75FFE7FFFFFFFFEE
:10499C00FFFFFFFFFFFFFFFFFFFFFFFFFFFFFFFF1B
:1049AC00FFFFFFFFFFFFFFFFFFFFFFFFFFFFFFFF0B
:1049BC00FFFFFFFFFFFFFFFFFFFFFFFFFFFFFFFFFB
:1049CC00FFFFFFFF0000FFFFFFFFFFFFFFFFFFFFE9
:1049DC00FFFFFFFFFFFFFFFFFFFFFFFFFFFFFFFFDB
:1049EC00FFFFFFFFFFFFFFFFFFFFFFFFFFFFFFFFCB
:1049FC00FFFFFFFFFFFFFFFFFFFFFFFFFFFFFFFFBB
:104A0C00FFFFFFFFFFFFFFFFFFFFFFFFFFFFFFFFAA
:104A1C00FFFFFFFFFFFFFFFFFFFFFFFFFFFFFFFF9A
:104A2C00FFFFFFFFFFFFFFFFFFFFFFFFFFFFFFFF8A
:104A3C00FFFFFFFFFFFFFFFFFFFFFFFFFFFFFFFF7A
:104A4C00FFFFFFFFFFFFFFFFFFFFFFFFFFFFFFFF6A
:104A5C00FFFFFFFFFFFFFFFFFFFFFFFFFFFFFFFF5A
:104A6C00FFFFFFFFFFFFFFFFFFFFFFFFFFFFFFFF4A
:104A7C00FFFFFFFFFFFFFFFFFFFFFFFFFFFFFFFF3A
:104A8C00FFFFFFFFFFFFFFFFFFFFFFFFFFFFFFFF2A
:104A9C00FFFFFFFFFFFFFFFFFFFFFFFFFFFFFFFF1A
:104AAC00FFFFFFFFFFFFFFFFFFFFFFFFFFFFFFFF0A
:104ABC00FFFFFFFFFFFFFFFFFFFFFFFFFFFFFFFFFA
:104ACC00FFFFFFFFFFFFFFFFFFFFFFFFFFFFFFFFEA
:104ADC00FFFFFFFFFFFFFFFFFFFFFFFFFFFFFFFFDA
:104AEC00FFFFFFFFFFFFFFFFFFFFFFFFFFFFFFF7D2
:104AFC001FC77744340B9613F62BBA85FFEFFFF7DD
:104B0C00DFF7FEFFDEFFFFFFFFFFFFFFFFFFFFFFF3
:104B1C00FFFFFFFFFFFFFFFFFFFFFFFFFFFFFFFF99
:104B2C00FFFFFFFFFFFFFFFFFFFFFFFFFFFFFFFF89
:104B3C00FFFFFFFFFFFFFFFFFFFFFFFFFFFFFFFF79
:104B4C00FFFFFFFFFFFFFFFFFFFFFFFFFFFFFFFF69
:104B5C00FFFFFFFFFFFFFFFFFFF7FFF7FFF7FFF779
:104B6C00FFF75C9E5644951B7413F63B9EA6FFEF15
:104B7C00FFFFFFFFFFFFFFFFFFFFFFFFFFFFFFFF39
:104B8C00FFFFFFFFFFFFFFFFFFFFFFFFFFFFFFFF29
:104B9C00FFFFFFFFFFFFFFFFFFFFFFFFFFFFFFFF19
:104BAC00FFFFFFFFFFFF0000FFFFFFFFFFFFFFFF07
:104BBC00FFFFFFFFFFFFFFFFFFFFFFFFFFFFFFFFF9
:104BCC00FFFFFFFFFFFFFFFFFFFFFFFFFFFFFFFFE9
:104BDC00FFFFFFFFFFFFFFFFFFFFFFFFFFFFFFFFD9
:104BEC00FFFFFFFFFFFFFFFFFFFFFFFFFFFFFFFFC9
:104BFC00FFFFFFFFFFFFFFFFFFFFFFFFFFFFFFFFB9
:104C0C00FFFFFFFFFFFFFFFFFFFFFFFFFFFFFFFFA8
:104C1C00FFFFFFFFFFFFFFFFFFFFFFFFFFFFFFFF98
:104C2C00FFFFFFFFFFFFFFFFFFFFFFFFFFFFFFFF88
:104C3C00FFFFFFFFFFFFFFFFFFFFFFFFFFFFFFFF78
:104C4C00FFFFFFFFFFFFFFFFFFFFFFFFFFFFFFFF68
:104C5C00FFFFFFFFFFFFFFFFFFFFFFFFFFFFFFFF58
:104C6C00FFFFFFFFFFFFFFFFFFFFFFFFFFFFFFFF48
:104C7C00FFFFFFFFFFFFFFFFFFFFFFFFFFFFFFFF38
:104C8C00FFFFFFFFFFFFFFFFFFFFFFFFFFFFFFFF28
:104C9C00FFFFFFFFFFFFFFFFFFFFFFFFFFFFFFFF18
:104CAC00FFFFFFFFFFFFFFFFFFFFFFFFFFFFFFFF08
:104CBC00FFFFFFFFFFFFFFFFFFFFFFFFFFFFFFFFF8
:104CCC00FFFFFFFFFFFFFFFFFFFFFFFFDFFFFFF710
:104CDC00DFE71875D623340B731BFC851EC7FFF753
:104CEC00FFF7DFF7DEFFFFFFFFFFFFFFFFFFFFFF19
:104CFC00FFFFFFFFFFFFFFFFFFFFFFFFFFFFFFFFB8
:104D0C00FFFFFFFFFFFFFFFFFFFFFFFFFFFFFFFFA7
:104D1C00FFFFFFFFFFFFFFFFFFFFFFFFFFFFFFFF97
:104D2C00FFFFFFFFFFFFFFFFFFFFFFFFFFFFFFFF87
:104D3C00FFFFFFFFFFFFFFFFFFFFFFF7FFF7FFF78F
:104D4C00FFFFFFFFBFDFFB8DB42B130B9523D95C4B
:104D5C007FCFFFF7FFFFFFFFFFFFFFFFFFFFFFFF0F
:104D6C00FFFFFFFFFFFFFFFFFFFFFFFFFFFFFFFF47
:104D7C00FFFFFFFFFFFFFFFFFFFFFFFFFFFFFFFF37
:104D8C00FFFFFFFFFFFFFFFF0000FFFFFFFFFFFF25
:104D9C00FFFFFFFFFFFFFFFFFFFFFFFFFFFFFFFF17
:104DAC00FFFFFFFFFFFFFFFFFFFFFFFFFFFFFFFF07
:104DBC00FFFFFFFFFFFFFFFFFFFFFFFFFFFFFFFFF7
:104DCC00FFFFFFFFFFFFFFFFFFFFFFFFFFFFFFFFE7
:104DDC00FFFFFFFFFFFFFFFFFFFFFFFFFFFFFFFFD7
:104DEC00FFFFFFFFFFFFFFFFFFFFFFFFFFFFFFFFC7
:104DFC00FFFFFFFFFFFFFFFFFFFFFFFFFFFFFFFFB7
:104E0C00FFFFFFFFFFFFFFFFFFFFFFFFFFFFFFFFA6
:104E1C00FFFFFFFFFFFFFFFFFFFFFFFFFFFFFFFF96
:104E2C00FFFFFFFFFFFFFFFFFFFFFFFFFFFFFFFF86
:104E3C00FFFFFFFFFFFFFFFFFFFFFFFFFFFFFFFF76
:104E4C00FFFFFFFFFFFFFFFFFFFFFFFFFFFFFFFF66
:104E5C00FFFFFFFFFFFFFFFFFFFFFFFFFFFFFFFF56
:104E6C00FFFFFFFFFFFFFFFFFFFFFFFFFFFFFFFF46
:104E7C00FFFFFFFFFFFFFFFFFFFFFFFFFFFFFFFF36
:104E8C00FFFFFFFFFFFFFFFFFFFFFFFFFFFFFFFF26
:104E9C00FFFFFFFFFFFFFFFFFFFFFFFFFFFFFFFF16
:104EAC00FFFFFFFFFFFFFFFFFFFFFFFFFFFFFFFF06
:104EBC00FFEFDFAEB5335513951B554C1EBFFFF7F7
:104ECC00FFFFFFF7FFF7FFFFFFFFFFFFFFFFFFFFF6
:104EDC00FFFFFFFFFFFFFFFFFFFFFFFFFFFFFFFFD6
:104EEC00FFFFFFFFFFFFFFFFFFFFFFFFFFFFFFFFC6
:104EFC00FFFFFFFFFFFFFFFFFFFFFFFFFFFFFFFFB6
:104F0C00FFFFFFFFFFFFFFFFFFFFFEFFFFFFFFFFA6
:104F1C00DFFFDFFFFFFFBEFFFFFFFFFFFFF7FFF726
:104F2C00FFFFDFFFBFFFFFF77FCFD864742375133C
:104F3C00B5233D8EFFE7FFFFDFFFFFFFFFFFFFFF06
:104F4C00FFFFFFFFFFFFDFFFFFFFFFFFFFFFFFFF85
:104F5C00FFFFFFFFFFFFFFFFFFFFFFFFFFFFFFFF55
:104F6C00FFFFFFFFFFFFFFFFFFFF0000FFFFFFFF43
:104F7C00FFFFFFFFFFFFFFFFFFFFFFFFFFFFFFFF35
:104F8C00FFFFFFFFFFFFFFFFFFFFFFFFFFFFFFFF25
:104F9C00FFFFFFFFFFFFFFFFFFFFFFFFFFFFFFFF15
:104FAC00FFFFFFFFFFFFFFFFFFFFFFFFFFFFFFFF05
:104FBC00FFFFFFFFFFFFFFFFFFFFFFFFFFFFFFFFF5
:104FCC00FFFFFFFFFFFFFFFFFFFFFFFFFFFFFFFFE5
:104FDC00FFFFFFFFFFFFFFFFFFFFFFFFFFFFFFFFD5
:104FEC00FFFFFFFFFFFFFFFFFFFFFFFFFFFFFFFFC5
:104FFC00FFFFFFFFFFFFFFFFFFFFFFFFFFFFFFFFB5
:10500C00FFFFFFFFFFFFFFFFFFFFFFFFFFFFFFFFA4
:10501C00FFFFFFFFFFFFFFFFFFFFFFFFFFFFFFFF94
:10502C00FFFFFFFFFFFFFFFFFFFFFFFFFFFFFFFF84
:10503C00FFFFFFFFFFFFFFFFFFFFFFFFFFFFFFFF74
:10504C00FFFFFFFFFFFFFFFFFFFFFFFFFFFFFFFF64
:10505C00FFFFFFFFFFFFFFFFFFFFFFFFFFFFFFFF54
:10506C00FFFFFFFFFFFFFFFFFFFFFFFFFFFFFFFF44
:10507C00FFFFFFFFFFFFFFFFFFFFFFFFFFFFFFFF34
:10508C00FFFFFFFFFFFFFFFFFFFFFFFFFFFFFFFF24
:10509C00FFF73FCFD95C751B7513F6335B9EDFE7CB
:1050AC00FFFFFFFFFFFFFFFFFFFFFFFFFFFFFFFF04
:1050BC00FFFFFFFFFFFFFFFFFFFFFFFFFFFFFFFFF4
:1050CC00FFFFFFFFFFFFFFFFFFFFFFFFFFFFFFFFE4
:1050DC00FFFFFFFFFFFFFFFFFFFFFFFFFFFFFFFFD4
:1050EC00FFFFFFFFFFFFFFFFFFFFFFFFFFFFFFFFC4
:1050FC00DFFFFFFFFFFFFFFFDEFFBEFFFFFFFFF73E
:10510C00FFFFFFFFFFFFDFFFFFFFFFEF9EAE564CE1
:10511C00540B9513974C1FB7FFF7FFFFFFFFFFFFD3
:10512C00DEFFFEFFFFFFFFFFFFFFFFFFFFFFFFFFA5
:10513C00FFFFFFFFFFFFFFFFFFFFFFFFFFFFFFFF73
:10514C00FFFFFFFFFFFFFFFFFFFFFFFF0000FFFF61
:10515C00FFFFFFFFFFFFFFFFFFFFFFFFFFFFFFFF53
:10516C00FFFFFFFFFFFFFFFFFFFFFFFFFFFFFFFF43
:10517C00FFFFFFFFFFFFFFFFFFFFFFFFFFFFFFFF33
:10518C00FFFFFFFFFFFFFFFFFFFFFFFFFFFFFFFF23
:10519C00FFFFFFFFFFFFFFFFFFFFFFFFFFFFFFFF13
:1051AC00FFFFFFFFFFFFFFFFFFFFFFFFFFFFFFFF03
:1051BC00FFFFFFFFFFFFFFFFFFFFFFFFFFFFFFFFF3
:1051CC00FFFFFFFFFFFFFFFFFFFFFFFFFFFFFFFFE3
:1051DC00FFFFFFFFFFFFFFFFFFFFFFFFFFFFFFFFD3
:1051EC00FFFFFFFFFFFFFFFFFFFFFFFFFFFFFFFFC3
:1051FC00FFFFFFFFFFFFFFFFFFFFFFFFFFFFFFFFB3
:10520C00FFFFFFFFFFFFFFFFFFFFFFFFFFFFFFFFA2
:10521C00FFFFFFFFFFFFFFFFFFFFFFFFFFFFFFFF92
:10522C00FFFFFFFFFFFFFFFFFFFFFFFFFFFFFFFF82
:10523C00FFFFFFFFFFFFFFFFFFFFFFFFFFFFFFFF72
:10524C00FFFFFFFFFFFFFFFFFFFFFFFFFFFFFFFF62
:10525C00FFFFFFFFFFFFFFFFFFFFFFFFFFFFFFFF52
:10526C00FFFFFFFFFFFFFFFFFFFFFFFFFFFFDEFF63
:10527C00FFFFFFEF3D9E951B760B9523186DDFE727
:10528C00FFFFFFF7FFF7FFFFFFFFFFFFFFFFFFFF32
:10529C00FFFFFFFFFFFFFFFFFFFFFFFFFFFFFFFF12
:1052AC00FFFFFFFFFFFFFFFFFFFFFFFFFFFFFFFF02
:1052BC00FFFFFFFFFFFFFFFFFFFFFFFFFFFFFFFFF2
:1052CC00FFFFFFFFFFFFFFFFFFFFFFFFFFFFFFFFE2
:1052DC00FFFFDFFFFFFFFFFFFFFFFFFFDEFFFFFF13
:1052EC00FFFFFFFFDFFFDFFFDFFFFFFFFFF7FFEF3A
:1052FC00DB85B523750B741BBB75DFDFFFFFFFFF71
:10530C00FFFFFFFFFFFFFFFFFFFFFFFFDFFFFFFFC1
:10531C00FFFFFFFFFFFFFFFFFFFFFFFFFFFFFFFF91
:10532C00FFFFFFFFFFFFFFFFFFFFFFFFFFFF00007F
:10533C00FFFFFFFFFFFFFFFFFFFFFFFFFFFFFFFF71
:10534C00FFFFFFFFFFFFFFFFFFFFFFFFFFFFFFFF61
:10535C00FFFFFFFFFFFFFFFFFFFFFFFFFFFFFFFF51
:10536C00FFFFFFFFFFFFFFFFFFFFFFFFFFFFFFFF41
:10537C00FFFFFFFFFFFFFFFFFFFFFFFFFFFFFFFF31
:10538C00FFFFFFFFFFFFFFFFFFFFFFFFFFFFFFFF21
:10539C00FFFFFFFFFFFFFFFFFFFFFFFFFFFFFFFF11
:1053AC00FFFFFFFFFFFFFFFFFFFFFFFFFFFFFFFF01
:1053BC00FFFFFFFFFFFFFFFFFFFFFFFFFFFFFFFFF1
:1053CC00FFFFFFFFFFFFFFFFFFFFFFFFFFFFFFFFE1
:1053DC00FFFFFFFFFFFFFFFFFFFFFFFFFFFFFFFFD1
:1053EC00FFFFFFFFFFFFFFFFFFFFFFFFFFFFFFFFC1
:1053FC00FFFFFFFFFFFFFFFFFFFFFFFFFFFFFFFFB1
:10540C00FFFFFFFFFFFFFFFFFFFFFFFFFFFFFFFFA0
:10541C00FFFFFFFFFFFFFFFFFFFFFFFFFFFFFFFF90
:10542C00FFFFFFFFFFFFFFFFFFFFFFFFFFFFFFFF80
:10543C00FFFFFFFFFFFFFFFFFFFFFFFFFFFFFFFF70
:10544C00FFFFFFFFFFFFFFFFFFFFFFFFFFFFFFFF60
:10545C00DEFFFFFF1FC7B854550B550B774CFFBE33
:10546C00FFF7FFFFFFF7FFFFFFFFDFFFFFFFFFFF70
:10547C00FFFFFFFFFFFFFFFFFFFFFFFFFFFFFFFF30
:10548C00FFFFFFFFFFFFFFFFFFFFFFFFFFFFFFFF20
:10549C00FFFFFFFFFFFFFFFFFFFFFFFFFFFFFFFF10
:1054AC00FFFFFFFFFFFFFFFFFFFFFFFFFFFFFFFF00
:1054BC00FFFFFFFFFFFFFFFFFFFFFFF7FFFFFFFFF8
:1054CC00FFFFFFFFFFFFDFFFFFFFFFFFDFF7FFF730
:1054DC00FFF71FC71A5D541374135744BEB6FFF77A
:1054EC00FFFFFFFFFFFFFFFFFFFFFFFFFFFFFFFFC0
:1054FC00FFFFFFFFFFFFFFFFFFFFFFFFFFFFFFFFB0
:10550C00FFFFFFFFFFFFFFFFFFFFFFFFFFFFFFFF9F
:10551C000000FFFFFFFFFFFFFFFFFFFFFFFFFFFF8D
:10552C00FFFFFFFFFFFFFFFFFFFFFFFFFFFFFFFF7F
:10553C00FFFFFFFFFFFFFFFFFFFFFFFFFFFFFFFF6F
:10554C00FFFFFFFFFFFFFFFFFFFFFFFFFFFFFFFF5F
:10555C00FFFFFFFFFFFFFFFFFFFFFFFFFFFFFFFF4F
:10556C00FFFFFFFFFFFFFFFFFFFFFFFFFFFFFFFF3F
:10557C00FFFFFFFFFFFFFFFFFFFFFFFFFFFFFFFF2F
:10558C00FFFFFFFFFFFFFFFFFFFFFFFFFFFFFFFF1F
:10559C00FFFFFFFFFFFFFFFFFFFFFFFFFFFFFFFF0F
:1055AC00FFFFFFFFFFFFFFFFFFFFFFFFFFFFFFFFFF
:1055BC00FFFFFFFFFFFFFFFFFFFFFFFFFFFFFFFFEF
:1055CC00FFFFFFFFFFFFFFFFFFFFFFFFFFFFFFFFDF
:1055DC00FFFFFFFFFFFFFFFFFFFFFFFFFFFFFFFFCF
:1055EC00FFFFFFFFFFFFFFFFFFFFFFFFFFFFFFFFBF
:1055FC00FFFFFFFFFFFFFFFFFFFFFFFFFFFFFFFFAF
:10560C00FFFFFFFFFFFFFFFFFFFFFFFFFFFFFFFF9E
:10561C00FFFFFFFFFFFFFFFFFFFFFFFFFFFFFFFF8E
:10562C00FFFFFFFFFFFFFFFFFFFFFFFFFFFFFFFF7E
:10563C00FFFFFFFFFFEF9B857523550BB623BB8543
:10564C00FFEFFFFFFFFFFFFFFFFFFFFFDFFFFFFF8E
:10565C00FFFFFFFFFFFFFFFFFFFFFFFFFFFFFFFF4E
:10566C00FFFFFFFFFFFFFFFFFFFFFFFFFFFFFFFF3E
:10567C00FFFFFFFFFFFFFFFFFFFFFFFFFFFFFFFF2E
:10568C00FFFFFFFFFFFFFFFFFFFFFFFFFFFFFFFF1E
:10569C00FFFFFFFFFFFFFFFFFFFFFFFFFFF7FFF71E
:1056AC00FFEFFFF7FFFFDFFFDFFFDFFFFFFFFFF77E
:1056BC00FFF7FFF7FFEF9E9ED5335413541B5A751B
:1056CC00FFDFFFF7FFFFFFFFFFFFFFFFFFFFFFFF06
:1056DC00FFFFFFFFFFFFFFFFFFFFFFFFFFFFFFFFCE
:1056EC00FFFFFFFFFFFFFFFFFFFFFFFFFFFFFFFFBE
:1056FC00FFFF0000FFFFFFFFFFFFFFFFFFFFFFFFAC
:10570C00FFFFFFFFFFFFFFFFFFFFFFFFFFFFFFFF9D
:10571C00FFFFFFFFFFFFFFFFFFFFFFFFFFFFFFFF8D
:10572C00FFFFFFFFFFFFFFFFFFFFFFFFFFFFFFFF7D
:10573C00FFFFFFFFFFFFFFFFFFFFFFFFFFFFFFFF6D
:10574C00FFFFFFFFFFFFFFFFFFFFFFFFFFFFFFFF5D
:10575C00FFFFFFFFFFFFFFFFFFFFFFFFFFFFFFFF4D
:10576C00FFFFFFFFFFFFFFFFFFFFFFFFFFFFFFFF3D
:10577C00FFFFFFFFFFFFFFFFFFFFFFFFFFFFFFFF2D
:10578C00FFFFFFFFFFFFFFFFFFFFFFFFFFFFFFFF1D
:10579C00FFFFFFFFFFFFFFFFFFFFFFFFFFFFFFFF0D
:1057AC00FFFFFFFFFFFFFFFFFFFFFFFFFFFFFFFFFD
:1057BC00FFFFFFFFFFFFFFFFFFFFFFFFFFFFFFFFED
:1057CC00FFFFFFFFFFFFFFFFFFFFFFFFFFFFFFFFDD
:1057DC00FFFFFFFFFFFFFFFFFFFFFFFFFFFFFFFFCD
:1057EC00FFFFFFFFFFFFFFFFFFFFFFFFFFFFFFFFBD
:1057FC00FFFFFFFFFFFFFFFFFFFFFFFFFFFFFFFFAD
:10580C00FFFFFFFFFFFFFFFFFFFFFFFFFFFFFFFF9C
:10581C00FFFFFFFFFFF71FC7574C551B751BFA5CAB
:10582C001FBFFFF7FFFFFFFFFFFFFFFFFFFFFFFFA4
:10583C00FFFFFFFFFFFFFFFFFFFFFFFFFFFFFFFF6C
:10584C00FFFFFFFFFFFFFFFFFFFFFFFFFFFFFFFF5C
:10585C00FFFFFFFFFFFFFFFFFFFFFFFFFFFFFFFF4C
:10586C00FFFFFFFFFFFFFFFFFFFFFFFFFFFFFFFF3C
:10587C00FFFFFFFFFFFFFFFFFFFFFFFFFFFFFFF734
:10588C003FC7BCB69FD7FFF7FFFFDFFFDFFFFFFF70
:10589C00FFFFFFF7FFFFFFF79FCF5975741B130B2B
:1058AC003644BEA6FFF7FFFFFFFFFFFFFFFFFFFF22
:1058BC00FFFFFFFFFFFFFFFFFFFFFFFFFFFFFFFFEC
:1058CC00FFFFFFFFFFFFFFFFFFFFFFFFFFFFFFFFDC
:1058DC00FFFFFFFF0000FFFFFFFFFFFFFFFFFFFFCA
:1058EC00FFFFFFFFFFFFFFFFFFFFFFFFFFFFFFFFBC
:1058FC00FFFFFFFFFFFFFFFFFFFFFFFFFFFFFFFFAC
:10590C00FFFFFFFFFFFFFFFFFFFFFFFFFFFFFFFF9B
:10591C00FFFFFFFFFFFFFFFFFFFFFFFFFFFFFFFF8B
:10592C00FFFFFFFFFFFFFFFFFFFFFFFFFFFFFFFF7B
:10593C00FFFFFFFFFFFFFFFFFFFFFFFFFFFFFFFF6B
:10594C00FFFFFFFFFFFFFFFFFFFFFFFFFFFFFFFF5B
:10595C00FFFFFFFFFFFFFFFFFFFFFFFFFFFFFFFF4B
:10596C00FFFFFFFFFFFFFFFFFFFFFFFFFFFFFFFF3B
:10597C00FFFFFFFFFFFFFFFFFFFFFFFFFFFFFFFF2B
:10598C00FFFFFFFFFFFFFFFFFFFFFFFFFFFFFFFF1B
:10599C00FFFFFFFFFFFFFFFFFFFFFFFFFFFFFFFF0B
:1059AC00FFFFFFFFFFFFFFFFFFFFFFFFFFFFFFFFFB
:1059BC00FFFFFFFFFFFFFFFFFFFFFFFFFFFFFFFFEB
:1059CC00FFFFFFFFFFFFFFFFFFFFFFFFFFFFFFFFDB
:1059DC00FFFFFFFFFFFFFFFFFFFFFFFFFFFFFFFFCB
:1059EC00FFFFFFFFFFFFFFFFFFFFFFFFFFFFFFFFBB
:1059FC00FFFFFFFFFFF7FFE7BB85741B5413D53385
:105A0C007E9EFFEFFFFFFFFFFFFFFFFFDFFFFFFFAC
:105A1C00FFFFFFFFFFFFFFFFFFFFFFFFFFFFFFFF8A
:105A2C00FFFFFFFFFFFFFFFFFFFFFFFFFFFFFFFF7A
:105A3C00FFFFFFFFFFFFFFFFFFFFFFFFFFFFFFFF6A
:105A4C00FFFFFFFFFFFFFFFFFFFFFFFFFFFFFFFF5A
:105A5C00FFFFFFFFFFFFFFFFFFFFFEFFFFFFFFFF4B
:105A6C00FFEFDB8DB6645B9EFFEFFFFFFEFFFFFFDA
:105A7C00FFFFFFFFFFFFFFFFFFFFFFF71FBF5844B4
:105A8C00551B7423F864BFDFFFFFFFFFDFFFFFFF31
:105A9C00FFFFDEFFFFFFFFFFFFFFFFFFFFFFFFFF2B
:105AAC00FFFFFFFFFFFFFFFFFFFFFFFFFFFFFFFFFA
:105ABC00FFFFFFFFFFFF0000FFFFFFFFFFFFFFFFE8
:105ACC00FFFFFFFFFFFFFFFFFFFFFFFFFFFFFFFFDA
